:100000000C9464100C949C100C949C100C949C10F8
:100010000C949C100C949C100C949C100C949C10B0
:100020000C949C100C949C100C9485200C944120F2
:100030000C94F62B0C949C100C949C100C949C101B
:100040000C949C100C949C100C949C100C949C1080
:100050000C949C100C945E210C949C100C949C109D
:100060000C949C100C949C100C949C100C949C1060
:100070000C949C100C949C100C949C100C949C1050
:100080000C949C100C949C100C949C100C949C1040
:100090000C949C100C949C100C949C100C949C1030
:1000A0000C949C100C949C100C949C10000000006C
:1000B0000000000000000000000000000000000040
:1000C0000000000000000000000000000000000030
:1000D0000000000000000000000000000000000020
:1000E0000000000000000000000000000000808010
:1000F00080404020201008040204081010202040F6
:1001000040808000000000000000000000000000AF
:1001100000000000000000000000000000000000DF
:1001200000000000000000000000000000000000CF
:1001300000000000000000000000000000000000BF
:1001400000000000000000000000000000000000AF
:100150000000000000000000000000000000003F60
:10016000C1010102020404040402020101010000B1
:10017000000000008000004080804000003030001F
:10018000000000010264180412C2CA2488F08080B2
:10019000404040402020202010101010080808087F
:1001A0000404040402020202010101010000000033
:1001B000000000000000000000000000000000003F
:1001C000000000000000000000000000000000002F
:1001D0000000000000000000000000000000E01827
:1001E0000601000000000000000000000080838382
:1001F000404040402021212010101010080808081D
:1002000004040404020202020101010100000000D2
:1002100000000000000000000000000000000000DE
:1002200000000000000000000000000000000000CE
:1002300000000000000000000000000000000000BE
:1002400000000000000000000000000080808080AE
:10025000404040402020202010101010080F0808B7
:1002600004040404020408101020204040414224E9
:1002700098C088888C9C1C1E0E06000000000000A0
:10028000000000000000000000000000000000006E
:10029000000000000000000000000000000000005E
:1002A000000000000000000000000000000000004E
:1002B000000000000000000000000000000000003E
:1002C000000000000000000000000000000000002E
:1002D000000000000000000000000000000000001E
:1002E000000000000000000000000000000000000E
:1002F00000000000000000000000000000000000FE
:1003000000000000000000000000000000000000ED
:1003100000000000000000000000000000000000DD
:1003200000000000000000000000000000000000CD
:1003300000000000000000000000000000000000BD
:1003400000000000000000000000000000000000AD
:10035000000000000000000000000000000000009D
:10036000000000000000000000008080804040206D
:100370002010080402040810102020404080800053
:10038000000000000000000000000000000000006D
:10039000000000000000000000000000000000005D
:1003A000000000000000000000000000000000004D
:1003B000000000000000000000000000000000003D
:1003C000000000000000000000000000000000002D
:1003D00000000000000000000000003FC101010219
:1003E0000204844444428201010100000000000034
:1003F000800000408080400000303000000000019C
:100400000204040808102040808080804040404062
:1004100020202020101010100808080804040404EC
:1004200002020202010101010000000000000000C0
:1004300000000000000000000000000000000000BC
:1004400000000000000000000000000000000000AC
:1004500000000000000000000000E018060100009D
:100460000C03000218190005FE80838340404040C1
:10047000202121201010101008080808040404048A
:100480000408304080800000018698600000000071
:10049000000000000000000000000000000000005C
:1004A000000000000000000000000000000000004C
:1004B000000000000000000000000000000000003C
:1004C000000000000000000080808080404040402C
:1004D0002020202010101010080F08080404040425
:1004E0000202020201010101000000000000000000
:1004F0000000000000000000000000060F0F0703CE
:100500000361F0F8FC600101013C78F8F070000034
:1005100000000000000000000000000000000000DB
:1005200000000000000000000000000000000000CB
:1005300000000000000000000000000000000000BB
:1005400000000000000000000000000000000000AB
:10055000000000000000000000000000000000009B
:10056000000000000000000000000000000000008B
:10057000000000000000000000000000000000007B
:10058000000000000000000000000000000000006B
:10059000000000000000000000000000000000005B
:1005A000000000000000000000000000000000004B
:1005B000000000000000000000000000000000003B
:1005C000000000000000000000000000000000002B
:1005D000000000000000000000000000000000001B
:1005E00000000000000080808040402020100804AF
:1005F000020408101020204040808000000000000D
:1006000000000000000000000000000000000000EA
:1006100000000000000000000000000000000000DA
:1006200000000000000000000000000000000000CA
:1006300000000000000000000000000000000000BA
:1006400000000000000000000000000000000000AA
:10065000000000000000003FC101010202048444C8
:1006600044428201010100000000000080000040BF
:100670008080400000303000000000010264180457
:1006800012C2CA2488F080804040404020202020B0
:1006900010101010080808080404040402020202E2
:1006A0000101010100000000000000000000000046
:1006B000000000000000000000000000000000003A
:1006C000000000000000000000000000000000002A
:1006D000000000000000E018060100000C0300020A
:1006E00018190005FE8083834040404020212120CE
:1006F0001010101008080808040404040202020282
:1007000001010101000000000000000000000000E5
:1007100000000000000000000000000000000000D9
:1007200000000000000000000000000000000000C9
:1007300000000000000000000000000000000000B9
:100740000000000080808080404040402020202029
:1007500010101010080F080804040404020202021A
:100760000101010100000000000000000000000085
:100770000000000000000000000000000000000079
:100780000000000000000000000000000000000069
:100790000000000000000000000000000000000059
:1007A0000000000000000000000000000000000049
:1007B0000000000000000000000000000000000039
:1007C0000000000000000000000000000000000029
:1007D0000000000000000000000000000000000019
:1007E0000000000000000000000000000000000009
:1007F00000000000000000000000000000000000F9
:1008000000000000000000000000000000000000E8
:1008100000000000000000000000000000000000D8
:1008200000000000000000000000000000000000C8
:1008300000000000000000000000000000000000B8
:1008400000000000000000000000000000000000A8
:100850000000000000000000000000000000008018
:10086000804040402020202020180402010204087B
:1008700010202040408080000000000000000000A8
:100880000000000000000000000000000000000068
:100890000000000000000000000000000000000058
:1008A0000000000000000000000000000000000048
:1008B0000000000000000000000000000000000038
:1008C0000000000000000000000000000000000028
:1008D0000000003FC10101020204040404020201FD
:1008E0000000000000000000800000408080400008
:1008F000003030000000000102040408081020400D
:100900008080808040404040202020201010101027
:10091000080808080404040402020202010101019B
:1009200000000000000000000000000000000000C7
:1009300000000000000000000000000000000000B7
:1009400000000000000000000000000000000000A7
:100950000000E01806010000000000000000000098
:10096000008083834040404020212120101010103F
:1009700008080808040404040408304080800000CB
:1009800001869860000000000000000000000000E8
:100990000000000000000000000000000000000057
:1009A0000000000000000000000000000000000047
:1009B0000000000000000000000000000000000037
:1009C0008080808040404040202020201010101067
:1009D000080F080804040404020408101020204032
:1009E0004041422418000000000000000000000008
:1009F00000000000000000000000000000000101F5
:100A000001000000000000000000000000000000E5
:100A100000000000000000000000000000000000D6
:100A200000000000000000000000000000000000C6
:100A300000000000000000000000000000000000B6
:100A400000000000000000000000000000000000A6
:100A50000000000000000000000000000000000096
:100A60000000000000000000000000000000000086
:100A70000000000000000000000000000000000076
:100A80000000000000000000000000000000000066
:100A90000000000000000000000000000000000056
:100AA0000000000000000000000000000000000046
:100AB0000000000000000000000000000000000036
:100AC0000000000000000000000000000000000026
:100AD0000000000000000000000000000000808016
:100AE0004040402010080402010204081020408009
:100AF0008000000000000000000000000000000076
:100B000000000000000000000000000000000000E5
:100B100000000000000000000000000000000000D5
:100B200000000000000000000000000000000000C5
:100B300000000000000000000000000000000000B5
:100B40000000000000000000000000000000003F66
:100B5000C1010102020404040402020101010000B7
:100B600000000000000000800000800000606000C5
:100B700000010204040808101020204080808080BA
:100B80004040404020202020101010100808080885
:100B90000404040402020202010101010000000039
:100BA0000000000000000000000000000000000045
:100BB0000000000000000000000000000000000035
:100BC0000000000000000000000000000000C03035
:100BD0000C0300000000000000000000008086867A
:100BE000404040402122222011111010080808081E
:100BF00004040404040830408080000001869860EA
:100C000000000000000000000000000000000000E4
:100C100000000000000000000000000000000000D4
:100C200000000000000000000000000000000000C4
:100C300000000000000000000000000080808080B4
:100C4000404040402020202010101010080F0808BD
:100C500004040404020408101020204040414224EF
:100C6000180000000000000000000000000000006C
:100C70000000000000000000000001010100000071
:100C80000000000000000000000000000000000064
:100C90000000000000000000000000000000000054
:100CA0000000000000000000000000000000000044
:100CB0000000000000000000000000000000000034
:100CC0000000000000000000000000000000000024
:100CD0000000000000000000000000000000000014
:100CE0000000000000000000000000000000000004
:100CF00000000000000000000000000000000000F4
:100D000000000000000000000000000000000000E3
:100D100000000000000000000000000000000000D3
:100D200000000000000000000000000000000000C3
:100D300000000000000000000000000000000000B3
:100D400000000000000000000000000000000000A3
:100D50000000000000000000000080808080404013
:100D600020100804020408102040808000000000C9
:100D70000000000000000000000000000000000073
:100D80000000000000000000000000000000000063
:100D90000000000000000000000000000000000053
:100DA0000000000000000000000000000000000043
:100DB0000000000000000000000000000000000033
:100DC00000000000000000000000007E820202041B
:100DD00004080808080404020101000000000000E3
:100DE000000000800000800000606000010102043B
:100DF000040808101020204080808080404040403F
:100E000020202020101010100808080804040404F2
:100E100002020202010101010000000000000000C6
:100E200000000000000000000000000000000000C2
:100E300000000000000000000000000000000000B2
:100E400000000000000000000000C0300C030000A3
:100E50000000000000000000008086864040404006
:100E6000212222201111101008080808040404048B
:100E70000408304080800000018698600000000077
:100E80000000000000000000000000000000000062
:100E90000000000000000000000000000000000052
:100EA0000000000000000000000000000000000042
:100EB0000000000000000000808080804040404032
:100EC0002020202010101010080F0808040404042B
:100ED0000204081010202040404142241800000065
:100EE0000000000000000000000000000000000002
:100EF00000000000000001010100000000000000EF
:100F000000000000000000000000000000000000E1
:100F100000000000000000000000000000000000D1
:100F200000000000000000000000000000000000C1
:100F300000000000000000000000000000000000B1
:100F400000000000000000000000000000000000A1
:100F50000000000000000000000000000000000091
:100F60000000000000000000000000000000000081
:100F70000000000000000000000000000000000071
:100F80000000000000000000000000000000000061
:100F90000000000000000000000000000000000051
:100FA0000000000000000000000000000000000041
:100FB0000000000000000000000000000000000031
:100FC0000000000000000000000000000000000021
:100FD0000000000000008080808040402010080455
:100FE0000204081020408080000000000000000083
:100FF00000000000000000000000000000000000F1
:1010000000000000000000000000000000000000E0
:1010100000000000000000000000000000000000D0
:1010200000000000000000000000000000000000C0
:1010300000000000000000000000000000000000B0
:101040000000000000001C34C40404040808080860
:1010500008040402010100000000000080000040BC
:1010600080804000003030000101020204040408C6
:101070000810204080808080404040402020202078
:1010800010101010080808080404040402020202E8
:10109000010101010000000000000000000000004C
:1010A0000000000000000000000000000000000040
:1010B0000000000000000000000000000000000030
:1010C000000000000000E018060100000000000021
:1010D0000000000000808383404040402021212008
:1010E0001010101008080808040404040408304014
:1010F0008080000001869860000000000000000071
:1011000000000000000000000000000000000000DF
:1011100000000000000000000000000000000000CF
:1011200000000000000000000000000000000000BF
:10113000000000008080808040404040202020202F
:1011400010101010080F080804040404020408100A
:101150001020204040414224180000000000000000
:10116000000000000000000000000000000000007F
:10117000000001010100000000000000000000006C
:10118000000000000000000000000000000000005F
:10119000000000000000000000000000000000004F
:1011A000000000000000000000000000000000003F
:1011B000000000000000000000000000000000002F
:1011C000000000000000000000000000000000001F
:1011D000000000000000000000000000000000000F
:1011E00000000000000000000000000000000000FF
:1011F00000000000000000000000000000000000EF
:1012000000000000000000000000000000000000DE
:1012100000000000000000000000000000000000CE
:1012200000000000000000000000000000000000BE
:1012300000000000000000000000000000000000AE
:10124000000000000000000000000000000000801E
:101250008040404020202020201804020102040881
:1012600010202040408080000000000000000000AE
:10127000000000000000000000000000000000006E
:10128000000000000000000000000000000000005E
:10129000000000000000000000000000000000004E
:1012A000000000000000000000000000000000003E
:1012B000000000000000000000000000000000002E
:1012C00000060D31C1010101020202040402020103
:1012D000000000000000000080000040808040000E
:1012E0000030300000000001020404080810204013
:1012F000808080804040404020202020101010102E
:1013000008080808040404040202020201010101A1
:1013100000000000000000000000000000000000CD
:1013200000000000000000000000000000000000BD
:1013300000000000000000000000000000000000AD
:101340000000E0180601000000000000000000009E
:101350000080838340404040202121201010101045
:1013600008080808040404040408304080800000D1
:1013700001869860000000000000000000000000EE
:10138000000000000000000000000000000000005D
:10139000000000000000000000000000000000004D
:1013A000000000000000000000000000000000003D
:1013B000808080804040404020202020101010106D
:1013C000080F080804040404020408101020204038
:1013D000404142241800000000000000000000000E
:1013E00000000000000000000000000000000101FB
:1013F00001000000000000000000000000000000EC
:1014000000000000000000000000000000000000DC
:1014100000000000000000000000000000000000CC
:1014200000000000000000000000000000000000BC
:1014300000000000000000000000000000000000AC
:10144000000000000000000000000000000000009C
:10145000000000000000000000000000000000008C
:10146000000000000000000000000000000000007C
:10147000000000000000000000000000000000006C
:10148000000000000000000000000000554E444530
:1014900046494E4544200046554E4354494F4E2040
:1014A000330046554E4354494F4E20320046554E68
:1014B0004354494F4E203100515745525459202032
:1014C00020200029003A003B003C003D003E003F48
:1014D0000040004100420043004400450000004637
:1014E000004700480035001E001F00200021002298
:1014F00000230024002500260027002D002E002AAE
:101500000049004A004B002B0014001A0008001587
:101510000017001C0018000C00120013002F0030F0
:101520000031004C004D004E003900040016000749
:101530000009000A000B000D000E000F00330034FC
:101540000000002800000000000000E10001511D23
:10155000001B0006001900050011001000360037BE
:10156000003800E5000251000052000000E000E3F6
:1015700000E200000000002C00000000000000005D
:1015800000E6000351E700E400500051004F00293D
:10159000003A003B003C003D003E003F004000415F
:1015A0000042004300440045000000AA00A800A932
:1015B0000035001E001F002000210022002300240F
:1015C000002500260027002D002E002A00AC00AECA
:1015D00000AB002B0014001A000800150017001CB7
:1015E0000018000C00120013002F00300031004CD6
:1015F000004D004E00390004001600070009000AE3
:10160000000B000D000E000F00330034000000C37B
:101610005C000000000000E10000001D001B00B2A3
:10162000001900050011001000360037003800E5F1
:101630000000000000CA5C0000E000E300E20000DF
:101640000000002C000000000000000000E6000088
:1016500000E700E400C45CCB5CC55C29003A003BB9
:10166000003C003D003E003F00400041004200437E
:1016700000440045000000AA00A800A90035001E93
:10168000001F002000210022002300240025002646
:101690000027002D002E002A00AC00AE00AB002B6E
:1016A0000014001A000800150017001C0018000C98
:1016B00000120013002F00300031004C004D004E8E
:1016C00000390004001600070009000A000B000D95
:1016D000000E000F00330034000000C35C00000067
:1016E000000000E10000001D001B00B20019000511
:1016F0000011001000360037003800E5000000003F
:1017000000CA5C0000E000E300E200000000002CE2
:10171000000000000000000000E6000000E700E418
:1017200000C45CCB5CC55C29003A003B003C003D3A
:10173000003E003F004000410042004300440000E2
:101740005C0000AA00A800A90035001E001F0020B0
:101750000021002200230024002500260027002D60
:10176000002E002A00C65CC85CCC5C2B0014001A5A
:10177000000800150017001C0018000C00120013D0
:10178000002F003000A75DC75CC95CCD5C39000448
:10179000001600070009000A000B000D000E000FE4
:1017A00000330034000000C35C000000000000E1D2
:1017B0000000001D001B00B2001900050011001000
:1017C00000360037003800E50000000000CA5C0069
:1017D00000E000E300E200000000002C0000000038
:1017E0000000000000E6000000E700E400C45CCB5D
:1017F0005CC55C00DA0281FFD9F1DB20A4A62EAF24
:1018000000A0C000A1C800AED580A81FD300408DA5
:101810001420001E0F05005343524C00004341505A
:10182000530057504D3A2000203D3D3D3D3D0A00BC
:10183000203D5343523D0A000A4C415945523A203B
:101840000057504D3A20000A00203D3D3D3D3D20CF
:1018500000203D4E554D3D20003D3D3D3D3D20008D
:101860003D4341503D200000010101010101010102
:101870000102020202020202020203030303030343
:101880000303040404040404040505050505060611
:1018900006060607070707070808080809090909CF
:1018A0000A0A0A0B0B0B0C0C0C0D0D0D0E0E0E0F75
:1018B0000F0F101011111112121313141415151605
:1018C000161717181819191A1A1B1B1C1D1D1E1E76
:1018D0001F202021222223242425262627282929C7
:1018E0002A2B2C2D2D2E2F303132323334353637F2
:1018F00038393A3B3C3D3E3F4041424344454647F0
:1019000048494A4C4D4E4F50515354555658595AC8
:101910005B5D5E5F616264656668696B6C6D6F706C
:1019200072737577787A7B7D7E8082838587888ADB
:101930008C8E8F91939596989A9C9EA0A2A3A5A712
:10194000A9ABADAFB1B3B5B7BABCBEC0C2C4C6C90E
:10195000CBCDCFD1D4D6D8DBDDDFE2E4E7E9EBEEC7
:10196000F0F3F5F8FAFDFF2223252628292A2C2D4D
:101970002F3032333536383A3B3D3E4042434547BF
:10198000494A4C4E5051535557595A5C5E606264F7
:101990006668696B6D6F71737577797B7D7F818305
:1019A0008587898A8C8E90929496989A9C9E9FA106
:1019B000A3A5A7A8AAACAEAFB1B3B4B6B8B9BBBC27
:1019C000BEBFC1C2C3C5C6C7C9CACBCCCDCED0D19C
:1019D000D2D2D3D4D5D6D7D7D8D9D9DADADBDBDB94
:1019E000DCDCDCDCDCDDDDDDDDDCDCDCDCDCDBDB35
:1019F000DBDADAD9D9D8D7D7D6D5D4D3D2D2D1D089
:101A0000CECDCCCBCAC9C7C6C5C3C2C1BFBEBCBB85
:101A1000B9B8B6B4B3B1AFAEACAAA8A7A5A3A19FFD
:101A20009E9C9A98969492908E8C8A8987858381C1
:101A30007F7D7B79777573716F6D6B6968666462A2
:101A4000605E5C5A5957555351504E4C4A49474570
:101A50004342403E3D3B3A3836353332302F2D2C11
:101A60002A29282625232200AF00AE05010980A1DE
:101A700001850319012AB700150126B700950175E4
:101A8000108100C0050C0901A101850419012AA0DB
:101A900002150126A002950175108100C0050109FB
:101AA00006A1018506050719E029E715002501951E
:101AB00008750181020507190029EF150025019518
:101AC000F075018102050819012905950575019137
:101AD00002950175039101C005010906A1010507E1
:101AE00019E029E715002501950875018102950186
:101AF000750881010507190029FF150026FF0095CB
:101B000006750881000508190129059505750191DB
:101B100002950175039101C009023B00020100A07A
:101B2000FA0904000001030101000921110100016B
:101B30002240000705810308000109040100010398
:101B4000000000092111010001226D000705820338
:101B50002000011201000200000008090009000134
:101B600000010200010A0367006700380037000027
:101B700000100367006F0070006F006C006100725E
:101B80000000000403090407087F0807003E5B4FBC
:101B90005B3E003E6B4F6B3E001C3E7C3E1C0018C3
:101BA0003C7E3C18001C577D571C001C5E7F5E1C51
:101BB0000000183C180000FFE7C3E7FF00001824EE
:101BC000180000FFE7DBE7FF0030483A060E00266A
:101BD0002979292600407F05050700407F05253F1C
:101BE000005A3CE73C5A007F3E1C1C0800081C1CA5
:101BF0003E7F0014227F2214005F5F005F5F0006BB
:101C0000097F017F00006689956A006060606060FE
:101C10000094A2FFA2940008047E04080010207E15
:101C200020100008082A1C0800081C2A0808001EAA
:101C300010101010000C1E0C1E0C0030383E3830F6
:101C400000060E3E0E060000000000000000005FCF
:101C5000000000000700070000147F147F14002418
:101C60002A7F2A1200231308646200364956205046
:101C700000000807030000001C2241000000412270
:101C80001C00002A1C7F1C2A0008083E08080000CF
:101C9000807030000008080808080000006060003C
:101CA000002010080402003E5149453E0000427FDA
:101CB0004000007249494946002141494D3300180E
:101CC00014127F10002745454539003C4A494931E7
:101CD0000041211109070036494949360046494962
:101CE000291E000000140000000040340000000025
:101CF0000814224100141414141400004122140882
:101D0000000201590906003E415D594E007C121146
:101D1000127C007F49494936003E41414122007F03
:101D20004141413E007F49494941007F090909017C
:101D3000003E41415173007F0808087F0000417F49
:101D40004100002040413F01007F08142241007FF4
:101D500040404040007F021C027F007F0408107F4B
:101D6000003E4141413E007F09090906003E4151C4
:101D7000215E007F0919294600264949493200039E
:101D8000017F0103003F4040403F001F2040201FD3
:101D9000003F4038403F0063140814630003047898
:101DA0000403006159494D4300007F414141000255
:101DB0000408102000004141417F00040201020498
:101DC00000404040404000000307080000205454F9
:101DD0007840007F28444438003844444428003880
:101DE0004444287F0038545454180000087E0902E7
:101DF0000018A4A49C78007F080404780000447DA7
:101E00004000002040403D00007F102844000000BA
:101E1000417F4000007C04780478007C080404784A
:101E200000384444443800FC1824241800182424A2
:101E300018FC007C0804040800485454542400048E
:101E4000043F4424003C4040207C001C2040201CD7
:101E5000003C4030403C004428102844004C909006
:101E6000907C004464544C4400000836410000005B
:101E70000077000000004136080000020102040261
:101E8000003C2623263C00000000000000404040AB
:101E9000F0F8F8FF38FFF8F83FF8F8FF38FFF8F8E7
:101EA000F040404000000000000080C0C0C0800042
:101EB00000C0C08000000080C0C000C0C000008022
:101EC000C0C00000000000C0C0C0C0C000C0C00052
:101ED0000000000000000000000000000000000002
:101EE00000000000000000000000000000000000F2
:101EF00000000000000000000000000000000000E2
:101F0000000000000000C0F0F8FC3E1E06010000CA
:101F1000007F4141417F007F4141417F000080C0FF
:101F2000E07E5B4F5BFEC00000C000DCD7DEDEDE83
:101F3000D7DC00C00000000000000000000000002E
:101F400000000000000000000000000000494949B6
:101F5000FFFFFFFFE0DFBFBF00BFBFDFE0FFFFFF0E
:101F6000FF49494900000000001F3F6060E0BF1FBB
:101F7000007F7F071E381E077F7F007F7F0E1F3B7D
:101F8000716000000000007F7F0C0C0C007E7E0062
:101F90007F7E0303007F7E03037E7E03037F7E003C
:101FA0000F3E703C063C703E0F00327B49493F7E3D
:101FB000007F7E0303001E3F69696F26000000005A
:101FC000000000000000030F1F3F3C78706000001D
:101FD000007F4141417F007F4141417F00307B7F55
:101FE0007830202030787F3B0003000F7F0F0F0FE9
:101FF0007F0F000300000000000000000000000050
:1020000000000000000000000000000000010101CD
:10201000070F0F7F0F7F0F0F7E0F0F7F0F7F0F0FA9
:1020200007010101000000000000000000000101A4
:1020300000000000000000000000000000000000A0
:102040000000000000000000000000000000000090
:102050000000000000000000000000000000000080
:102060000000000000000000000000000000000070
:102070000000000000000000000000000000000060
:102080000000000000000000000000000000000050
:102090000000000000000000000000000000000040
:1020A0000000000000000000000000000000000030
:1020B0000000000000000000000000000000000020
:1020C000000000000000000011241FBECFEFDAE086
:1020D000DEBFCDBF04B603FE18C080917A08909190
:1020E0007B08A0917C08B0917D088730904BA74079
:1020F000B04B59F410927A0810927B0810927C0829
:1021000010927D08E0E0F8E3099528E0A2E7B1E04D
:1021100001C01D92AA37B207E1F711E0A0E0B1E0DB
:10212000E2EDF7E602C005900D92A237B107D9F7AC
:102130000E941D2C0C94D1330C940000CF93DF939C
:102140004091780850917908485756409A01245890
:102150003D4F21303240C0F020E032E0241B350BEF
:102160006091760670917706FC01CA01240F351F35
:10217000C1E0D0E08217930750F070937706609328
:102180007606DF91CF9108952CE732E0E9CF4491B4
:10219000DC01A858B94F5C91451781F04C93AC0114
:1021A000A5E056954795AA95E1F7DE0102C0AA0F72
:1021B000BB1F4A95E2F7AD016A2B752B019631964C
:1021C000D9CF90916F06899FC0011124811522E01B
:1021D000920714F090E080E08858994F9093790826
:1021E000809378080895E8EDF0E080818E7F808309
:1021F0001092E2001092DA001092E100A0EEB0E03E
:102200008C9181608C9380818F77808319BCA7ED3E
:10221000B0E08C918E7F8C9380818F7E8083109232
:10222000380608952091E4003091E50095E6A90173
:102230002091EC00822F817020FF06C08091E80081
:1022400080FF06C080E008952091E80022FD1AC0BA
:1022500080915D06882389F0853089F08091EB00BC
:1022600085FD0FC02091E4003091E500421753072F
:10227000F9F29150E1F684E0089582E0089583E058
:10228000089581E00895EF92FF920F931F93CF93EB
:102290007C018B010E941211C82F811117C08091FF
:1022A000E80085FD0BC08091E8008E778093E80000
:1022B0000E941211882399F3C82F08C0F701819159
:1022C0007F018093F1000150110949F78C2FCF91C4
:1022D0001F910F91FF90EF90089580915F0687FF07
:1022E00013C08091E80082FF06C08091E8008B77E0
:1022F0008093E80004C080915D068111F2CF0895BB
:1023000080915D068823D9F38091E80080FFF8CFA3
:102310008091E8008E77ECCF982F9093E900242FDE
:10232000762F50E0891731F07091EC002091ED008C
:102330005091F00021FD07C09F5F973071F78093A7
:10234000E90081E008953091EB003E7F3093EB008F
:102350003091ED003D7F3093ED003091EB00316026
:102360003093EB007093EC002093ED005093F0005D
:102370002091EE0027FDE0CF80E00895CF92DF921C
:10238000EF92FF920F931F93CF93DF93C8EDD0E0AE
:1023900088818F7E8883E7EDF0E080818160808393
:1023A00084E082BF81E08093380688818E7F8883B5
:1023B00002EE10E0F80110821092DA0081EEC82ED1
:1023C000D12CF601108288818F778883888180687C
:1023D000888388818F7D888319BC10925D06109256
:1023E0005E0610925C0610925B0690EEE92EF12CD0
:1023F000F70180818B7F808388818160888342E0C0
:1024000060E080E00E948C11F60180818E7F8083E5
:10241000F801808181608083808188608083F701FA
:1024200080818E7F8083888180618883DF91CF91D6
:102430001F910F91FF90EF90DF90CF900895FC01D6
:10244000809165069091660686179707A0F0611542
:10245000710529F49091E8009E779093E80090E050
:102460006115710551F4911108C08091E80082FF57
:1024700034C080E00895BC01F2CF80915D068823CE
:10248000C1F18530C1F18091E80083FD30C08091B9
:10249000E80082FDEACF8091E80080FFE1CF8091E3
:1024A000F3002091F200382F6115710519F02830E2
:1024B000310558F091E02830310509F090E0209185
:1024C000E8002E772093E800CBCF81918093F10034
:1024D000615071092F5F3F4FE7CF80915D068823E0
:1024E00041F0853041F08091E80083FFBECF81E06C
:1024F000089582E0089583E0089508950895089569
:1025000080913A0608952FB7F89460912F06709144
:10251000300680913106909132062FBF08952091A8
:102520002C0630912D062817390771F090932D064F
:1025300080932C06E0912A06F0912B06309721F02B
:102540000084F185E02D09940895209128063091AA
:1025500029062817390771F09093290680932806D9
:10256000E0912A06F0912B06309721F00680F78142
:10257000E02D09940895E0912A06F0912B063097FA
:1025800021F00190F081E02D099480E00895FA0196
:10259000811101C0FB01099480916A06982F9E7FEA
:1025A00029F48170826080936A0608958031E8F38F
:1025B00081708E60F8CFAF92BF92DF92EF92FF9260
:1025C0000F931F93CF93DF93082F162FE901E42F6A
:1025D000F0E0E959F74E611110C0E4915E2F4E2FE3
:1025E0004983E8835A83DF91CF911F910F91FF9028
:1025F000EF90DF90BF90AF900895E62EF12C4491BC
:10260000D42EE42FF0E026E0829FC00111242FEFAA
:1026100030E0B9010E946D32802F90E0880F991F41
:1026200055E5569FD001579FB00D11248A1B9B0B77
:10263000982F990F890F5901AE18BF08AE9ED0018F
:10264000AF9EB00DBE9EB00D11245B2F189F800170
:102650001124012F11275901A01AB10AAE9E800141
:10266000AF9E100DBE9E100D11245901A81AB1087D
:10267000AE9CC001AF9C900DBE9C900D1124892F83
:102680009927281B390B2E9FC0012F9F900D3E9F2D
:10269000900D1124E92F62307105A1F050F46115FD
:1026A000710509F49DCF6130710581F0EB2F512F39
:1026B00097CF6430710569F080F06630710509F4D8
:1026C0008FCFF4CFE42F4B2F592F8ACFE42F412FF8
:1026D00087CFEB2F542F492F83CF4B2F5D2DE12F29
:1026E0007FCF80E00895F894E82FE295EF70F0E056
:1026F00031A1282F2F7081E090E001C0880F2A952A
:10270000EAF7982F9095932391A392A1892B82A306
:10271000789408959091330692FF06C0282F28716F
:102720002830F9F4877F846093FF06C0282F287132
:102730002831F1F4877E84612091340620FF06C0A1
:10274000382F38713830D9F4877F816021FF06C077
:10275000282F28712831D1F4877E816194FD877EEE
:102760000895282F24712430F9F68B7F8860DCCF00
:10277000282F2471243101F78B7E8861DDCF382F1B
:102780003171313019F78E7F8860E0CF282F2171A9
:10279000213121F78E7E8861E1CFCF93DF93EC0169
:1027A00082389105A9F1D8F58133910509F496C0D5
:1027B00048F58932910509F48AC08A9709F495C0D1
:1027C000C11522E5D20708F0B6C0C11531E5D3071F
:1027D00008F026C1C83ED10508F09CC0C03ED10516
:1027E00060F5C83AD10508F087C0C53AD10508F0B0
:1027F000EFC0C130D10509F12097F9F0C430D105FF
:10280000E0F440C08533910509F45AC0C997C1F678
:1028100080913306837089F0C0EED0E00EC0833E15
:10282000910599F170F4803E910501F1823E910588
:1028300039F68091330682FD21C0CE01DF91CF9120
:102840000895863E910561F1873E910571F1843EC0
:10285000910509F0B5CF8091340681FFEECF8091CC
:102860003306C7EED0E084FD0DC0E7CF809133067C
:1028700080FD07C19091340690FFDFCFC3EED0E01A
:1028800084FFDBCFD0E0C0E0D8CF8091330682FD5B
:10289000FBC09091340690FDBFCF84FFCECFF2CF26
:1028A0008091330683FDDDCFC8CF8091330683FD51
:1028B000EEC09091340691FFF0CFC4EED0E0BDCFD2
:1028C0008091330685FFB9CFC9E2D0E0B6CF8091C1
:1028D000330685FFB2CFC5E3D0E0AFCF809133069A
:1028E00086FFABCFCAE2D0E0A8CF8091330686FF47
:1028F000A4CFC1E3D0E0A1CFCF3BD10518F6C85A91
:10290000D0E0CC0FDD1FC35EDE4F0990D881C02D13
:10291000D46493CFC11540E5D40708F064C0C11555
:1029200080E4D80708F05CC0CE019A9581159F41DC
:1029300008F483CFA7CFC11536E5D30718F5C11525
:1029400045E5D40708F084C0C11584E5D80708F030
:102950007AC09C2F969596959E0123703327C115BA
:10296000D34508F462C0C1E0D0E002C0CC0FDD1F47
:102970002A95E2F730E2939FC0011124C82BD92B8E
:10298000DA685BCFC1158AE5D80778F4C11599E5F7
:10299000D90708F068C0C11528E5D20708F472CF3E
:1029A000DC2FCC27C06FD06A48CFCE01905681155E
:1029B000904208F067CF8D2F8F710E948A1390E0AC
:1029C000982F882788279F719C012C2BE90149C0EB
:1029D000C55AD0E0C65EDE4FC881D0E0D0642DCFAE
:1029E000DF70D06A2ACFCE01E4E096958795EA950C
:1029F000E1F783702C2F26952695237040E2249FC3
:102A000090011124382B8C2F8370C1E0D0E002C0DC
:102A1000CC0FDD1F8A95E2F7C22BD32BDC680DCFDC
:102A2000DC2FCC27C16FD06A08CFC1E0D0E002C054
:102A3000CC0FDD1F2A95E2F720E2929FC0011124FE
:102A4000C82BD92BEBCFDC2FCC27C46FD06AF5CEA7
:102A50008C2F0E948A13C82FD0E0DC2FCC27CC27E4
:102A6000DF71D062EACE8C2F8F700E948A1334E01F
:102A7000D695C7953A95E1F7CF709C2FEC01D069B8
:102A8000DCCEC9E3D0E0D9CEC2EED0E0D6CEC6EEE1
:102A9000D0E0D3CE80913302811110923302089599
:102AA00080959091320298239093320208959091EC
:102AB00019019923D1F09091330697FF16C0E82FA2
:102AC000E695E695E695EE31E0F4F0E0EC58FE4F41
:102AD000282F277081E090E001C0880F2A95EAF73F
:102AE00080959281892382830895E6E7F1E09191B0
:102AF000891303C0DF0111971C9291E0EC37F907AD
:102B0000B1F70895909119019923C1F0909133067E
:102B100097FF14C0E82FE695E695E695EE31F8F4B8
:102B2000F0E0EC58FE4F877021E030E001C0220F4A
:102B30008A95EAF78281822B82830895A6E7B1E025
:102B4000EFEF90E02D91821751F0EF3F19F4211132
:102B500001C0E92F9F5F9630A9F7EF3F09F4089570
:102B60000E2E000CFF0BEC58FE4FE6CF80910F02AB
:102B70009091DE01981301C008958F5F8770FACF9E
:102B8000AF92BF92CF92DF92EF92FF920F931F937B
:102B9000CF93DF93C0905302D0905402E09055023F
:102BA000F090560240913402509135026091360205
:102BB00070913702C42AD52AE62AF72ACFE1D0E05D
:102BC000082F10E021E1929F000D111D112496E6BF
:102BD000A92EBC2ED701C6010C2E04C0B695A79510
:102BE000979587950A94D2F780FD0FC0219788F7B3
:102BF000B12C8B2DDF91CF911F910F91FF90EF9012
:102C0000DF90CF90BF90AF900895AC9EF001AD9E45
:102C1000F00D1124E00FF11FEE0FFF1FED53FB4EDF
:102C2000859194910E94CD13019701F3E2CFCF9348
:102C3000DF93EC010E94C015EC2FF0E091E1D99FE9
:102C4000E00DF11D112496E6899FE00DF11D112480
:102C5000EE0FFF1FED53FB4E85919491DF91CF91C5
:102C60000C94CD1321E1929F800D1124982F977021
:102C700086958695869525E0829FF0011124E95678
:102C8000FE4F50E040E080E0219130E0092E02C08C
:102C9000369527950A94E2F721703327042E01C058
:102CA000220F0A94EAF7822B4F5F5F4F45305105A0
:102CB00059F7089521E1929F800D1124982F977064
:102CC00041E001C0440F9A95EAF78695869586956E
:102CD00095E0899FF0011124E956FE4F90E080E0D5
:102CE00070E05191DF0111979B01082E02C03695CB
:102CF00027950A94E2F7217021952527242325277B
:102D00002C9301968530910561F70895FC0180812F
:102D100091810E94171692959F70963091F058F409
:102D2000925F9F70923058F4803F19F030F4883EE3
:102D300030F481E008959A5FF4CF843FD1F380E0CE
:102D40000895883EB0F3813FD1F7F3CF8091C80258
:102D50008531F0F48091950190E0019665E070E096
:102D60000E948D328093950124E030E0281B390BBE
:102D70004CE752E0249FC001259F900D349F900D99
:102D80001124805E974F0C949E1084EA95E0FBCF4F
:102D90008832D8F38091940190E001968170992750
:102DA0008093940121E030E0281B390B4CE752E07E
:102DB000249FC001259F900D349F900D11248455B0
:102DC0009F4FE1CFE8E7F6E080E092E0DF019C0171
:102DD0001D9221503040E1F7F0937908E093780894
:102DE0008FEF9FEF90937706809376060895CF93A9
:102DF000DF93C0917808D09179088A30C1F420918E
:102E00006F06CE0188579640622F70E00E946D32A7
:102E1000281B822F66E00E948132C82FC15018F40F
:102E2000DF91CF91089580E20E94F716F7CF8D30A1
:102E3000E9F4C857D64020916F06622F70E0CE01AA
:102E40000E946D32281B822F9E01280F311D2115F3
:102E5000324018F080E0D0E0C0E0C80FD11DC85863
:102E6000D94FD0937908C0937808DACF96E0FE0165
:102E7000A0E7B6E001900D929A95E1F7803E08F444
:102E800058C086E0FE0111928A95E9F7C091780852
:102E9000D091790846E050E0BE0180E796E00E94BC
:102EA00019339E0128573640892B41F1C90145E06D
:102EB000969587954A95E1F741E050E0BA0102C046
:102EC000660F771F8A95E2F7CB01609176067091C5
:102ED0007706862B972BB9016B5F7F4FE5E07695E0
:102EE0006795EA95E1F702C0440F551F6A95E2F72E
:102EF000842B952B90937706809376062A5F3F4F1D
:102F000040916F06642F70E0C9010E946D32481B2A
:102F1000463010F4240F311D211572E0370710F0F0
:102F200030E020E02858394F309379082093780812
:102F300077CFF6E08F9FB00111246957744E46E0B9
:102F400050E0CE010E940333A1CFCF93DF93EC0179
:102F5000FE018491811103C0DF91CF9108950E94F9
:102F6000F7162196F5CF0F931F934091530250917E
:102F700054026091550270915602CB01AA27BB27DB
:102F80000097A105B10509F445C0AC01BD0180E180
:102F9000052F162F272F3327011511052105310580
:102FA00019F0885FB901A8018A019B01F4E0369508
:102FB000279517950795FA95D1F701151105210564
:102FC000310519F08C5FB901A8018A019B01E2E08B
:102FD0003695279517950795EA95D1F701151105AF
:102FE0002105310519F08E5FB901A8017695679525
:102FF00057954795452B462B472B09F08F5F81301E
:1030000089F0882349F0823081F0833089F08CE8A0
:1030100094E104C080E0BCCF88EB94E11F910F9154
:103020000C94A5178DEA94E1F9CF82EA94E1F6CFEA
:1030300087E994E1F3CF8091320290913102892B9C
:1030400080937401909133029923A1F0892B80938E
:103050007401809119018823D9F18091330687FF8B
:1030600037C08EE1E6E7F1E090E0815098F59111EC
:103070000E944A1540E250E061E172E084E791E08D
:103080000E941933892B59F180E2E4E7F1E0A1E1D4
:10309000B2E001900D928A95E1F7E0912A06F09155
:1030A0002B063097E1F080911901882359F0809127
:1030B000330687FF07C0809174018093750186E015
:1030C000809374010280F381E02D84E791E00994FC
:1030D00086E0C8CF2191222341F29F5FC6CF089599
:1030E00090E080E00E94A51290E080E00E948F12A4
:1030F000109231020C941B18609353027093540287
:1031000080935502909356020C9470180F931F935E
:1031100041E050E060E070E004C0440F551F661FBE
:10312000771F8A95D2F7CB01BA016095709580958B
:1031300090950091530210915402209155023091C4
:10314000560260237123822393231F910F910C94C5
:103150007C18909110028095892380931002282F6B
:10316000277091F4282F082E000C330B92171306AA
:1031700059F09091340692FD07C085958595859507
:103180000E9486181092100208950F931F9341E039
:1031900050E060E070E004C0440F551F661F771FC9
:1031A0008A95D2F78091530290915402A0915502D2
:1031B000B09156028A019B01082B192B2A2B3B2B1D
:1031C000C901B8011F910F910C947C1860933402CF
:1031D0007093350280933602909337020C947018E6
:1031E0001092320280911901E6E7F1E0882359F04C
:1031F0008091330687FF07C08EE1DF011D928A951B
:10320000E9F70C94701886E0F8CF1F93CF93DF9303
:10321000CDB7DEB7AA970FB6F894DEBF0FBECDBF0D
:103220008FE596E02091F100FC012193CF01F6E0BB
:1032300087369F07B9F780916006833009F470C024
:10324000B8F4813009F447C0823009F4B1C08091EC
:10325000E80083FF7EC280915F06909160069A30FD
:1032600008F077C2E92FF0E0ED52FC4C0C94A1324B
:103270008A3009F48CC08B3009F46FC0893039F77B
:1032800080915F06813219F7809163069091640600
:103290000297E8F68091E800877F8093E8008091AC
:1032A000E80082FF38C09091F3008091F20002970D
:1032B00031F48091F100813011F0863021F4809159
:1032C000F10080933A068091E8008B778093E800C4
:1032D0000E946D11BCCF80915F06813A09F0B7CF93
:1032E0008091E800877F8093E80080916306909149
:1032F0006406892B61F460E28BE396E070E00E9443
:103300001F128091E8008B778093E800A0CF60E0E7
:1033100090E080E0F3CF80915D068111C0CF97CF20
:1033200080915F06813A09F092CF80916306909177
:103330006406892B09F08BCF8091E800877F80930A
:10334000E8008091E80080FFFCCF80911901809314
:10335000F1008091E8008E77B9CF80915F068132CD
:1033600009F075CF8091630690916406892B09F06E
:103370006ECF8091E800877F8093E8000E946D11F6
:1033800080916106809319010E94F01860CF8091AE
:103390005F06813209F05BCF8091E800877F8093E0
:1033A000E8000E946D1180916206809339064FCF2C
:1033B00080915F06813A09F04ACF8091E800877FCB
:1033C0008093E8008091E80080FFFCCF809139066F
:1033D000BECF803899F0823809F0BBC18091630676
:1033E0008F70873008F0B5C18093E9008091EB00C1
:1033F00085FB882780F91092E90006C080915B0662
:1034000090915C06911182609091E800977F909373
:10341000E8008093F1001092F1008091E8008E772F
:1034200094C1882309F482C1823009F092C180914D
:103430006106811185C1809163068F702FEF280F7F
:10344000263008F086C18093E9002091EB0020FF30
:1034500077C1933031F48091EB0080628093EB0070
:103460006FC19091EB0090619093EB0021E030E010
:1034700001C0220F8A95EAF72093EA001092EA0031
:103480008091EB008860EACF811163C110916106E1
:103490001F778091E3008078812B8093E3008091F7
:1034A000E800877F8093E8000E946D118091E8001A
:1034B00080FFFCCF8091E30080688093E30082E08E
:1034C000111183E080935D0644C18058823008F07A
:1034D00040C180916106909162068C3D23E0920785
:1034E000A1F583E08A838AE289834FB7F894DE01ED
:1034F000139620E03EE051E2E32FF0E050935700B6
:10350000E49120FF03C0E295EF703F5FEF708E2FD4
:1035100090E0EA30C0F0C7968D939D932F5F2431E1
:1035200059F74FBF8091E800877F8093E8006AE2F7
:1035300070E0CE0101960E941F128091E8008B7707
:103540008093E80006C1C096E7CF40916306509192
:103550006406292F33272330310509F444C078F558
:103560002130310509F46FC08BE390E0E8E1FBE125
:103570002230310509F0EDC02091E800277F20932B
:10358000E80020916506309166068217930708F4DB
:103590009C0140E02115310509F064C0411162C071
:1035A0008091E80082FDC9CF80915D06882329F2D1
:1035B000853019F28091E80083FFF2CFBECF21322F
:1035C0003105A9F12232310509F0C3C04115510579
:1035D00009F443C04130510509F0BBC08DE690E0CD
:1035E000EBE6FAE1C9CF992781309105C1F0009748
:1035F00059F0029709F0ADC0E5E6FBE1E4918E2FAA
:1036000090E0E5E6FBE107C0E3E8FBE1E4918E2F03
:1036100090E0E3E8FBE1009709F49BC0ADCFE1E760
:10362000FBE1E4918E2F90E0E1E7FBE1F4CF41155F
:10363000510571F04130510509F08BC089E090E0EF
:10364000E3E4FBE199CF82E190E0E3E5FBE194CF95
:1036500089E090E0EAE2FBE18FCF80E490E0E8EDE2
:10366000FAE18ACF80915D06882309F466CF853020
:1036700009F463CF8091E80083FD5FCF8091E8007B
:1036800082FD8ECF8091E80080FF84CF9091F3007F
:103690008091F2002115310519F08830910550F024
:1036A00041E0089709F040E08091E8008E77809330
:1036B000E80070CF44914093F100319621503109D8
:1036C0000196E8CF803809F044C08091E800877FF8
:1036D0008093E80080915E068093F1009ECE811178
:1036E00038C0109161061230A0F58091E800877F04
:1036F0008093E80010935E060E946D11112311F073
:1037000084E005C08091E30087FDFACF81E08093DB
:103710005D0642E061EC81E00E948C1142E261ECC6
:1037200082E00E948C1180915D0613C08091610639
:10373000813079F481E0933009F080E080935C0679
:103740001092E9008091E800877F8093E8000E9452
:103750006D118091E80083FF0AC08091E800877FA7
:103760008093E8008091EB0080628093EB00AA9642
:103770000FB6F894DEBF0FBECDBFDF91CF911F9182
:103780000895882321F00E9450150C941B18089569
:10379000882339F090913202982B909332020C9446
:1037A0001B180895882309F44BC0823871F40E94D5
:1037B000BB1281FF45C089E30E9482150E941B183D
:1037C00089E30E9457150C941B18833859F40E9402
:1037D000BB1280FF35C083E50E9482150E941B1832
:1037E00083E5EFCF843859F40E94BB1282FF28C0D2
:1037F00087E40E9482150E941B1887E4E2CF9CEFA9
:10380000980F913AF0F290E2980F983050F4877048
:1038100091E001C0990F8A95EAF7892F0E9450150F
:10382000D2CF9BE5980F933020F490E080E00C9489
:10383000A512885A873120F490E080E00C948F1212
:1038400008950F931F93CF93DF93EC01FC01019038
:103850000020E9F78F0101501109C017D10728F0A6
:10386000DF91CF911F910F91089589910E94F716D2
:10387000F4CF8093350670933706609336068091B7
:103880005D06843001F582E08093E9008FEF90912E
:10389000E800815095FD06C095ED9A95F1F700007E
:1038A0008111F5CF8091E80085FF0DC050E040E028
:1038B00063E070E085E396E00E9443118091E800A8
:1038C0008E778093E8000895BC0184E00C94391C45
:1038D000BC0183E00C94391CCF93DF93EC01809101
:1038E00019018823B1F18091330687FF32C060E26D
:1038F00082E08093E9008FEF9091E800815095FD80
:1039000006C095ED9A95F1F700008111F5CF8091F1
:10391000E80085FF1BC08091190170E050E040E095
:10392000811104C050E040E068E070E0CE010E94E8
:1039300043118091E8008E778093E80080E2FE01D9
:10394000ABE3B6E001900D928A95E1F7DF91CF915C
:10395000089568E081E0CDCF81E08093E00080E2CF
:103960008093D8001092C9008FE19EE40197F1F78F
:1039700000C0000087E090EBDC0180937A08909310
:103980007B08A0937C08B0937D0888E19CE00FB68B
:10399000F894A895809360000FBE90936000FFCFCD
:1039A00080916A0680FD0AC0EAEFF2E0118210827F
:1039B0001282339654E0E932F507C1F76A9A3EB1B4
:1039C0003B7F2EB124604FB7F8948AEF92E0FC0160
:1039D0005191CF0168E02EB9000000C057FF3EB9F9
:1039E000550F000000C000C000C03EB900C06A957D
:1039F00091F7F4E089329F0751F74FBF8FE594E0CC
:103A00000197F1F700C000000895CF93C82F8823D5
:103A100009F4A6C08238C1F40E94BB1281FDA0C087
:103A200089E30E9482150E941B182FEF81EE94E01B
:103A3000215080409040E1F700C0000089E30E94DF
:103A40005715CF910C941B188338A1F40E94BB1218
:103A500080FD86C083E50E9482150E941B182FEF0F
:103A600081EE94E0215080409040E1F700C00000DA
:103A700083E5E5CF8438A1F40E94BB1282FD70C0BB
:103A800087E40E9482150E941B182FEF81EE94E0BC
:103A9000215080409040E1F700C0000087E4CFCF84
:103AA0008CEF8C0F813A88F580911901882301F100
:103AB0008091330687FF1CC0EC2FE695E695E695CE
:103AC000F0E0EC58FE4F828190E04C2F477021E0EF
:103AD00030E002C0220F331F4A95E2F7822393237E
:103AE000892B79F08C2F0E9457150E941B1809C052
:103AF000E6E7F1E08191C817A9F321E0EC37F2077E
:103B0000C9F78C2F0E9482159CCF80E28C0F8830E1
:103B100068F4C77021E030E001C0220FCA95EAF7CF
:103B200080913202822B809332028BCFEBE5EC0F37
:103B3000E33040F4F0E0E65EFE4F808190E0CF910C
:103B40000C94A512C85AC73158F4EC2FF0E0EE0FD0
:103B5000FF1FE35EFE4F80819181CF910C948F1205
:103B6000CF910895CF92DF92EF92FF920F931F9320
:103B7000CF93DF936C017B0164E670E088E70E94DD
:103B80006C31EC0197FD12C010E000E0F601E00F8F
:103B9000F11F849164E670E00E94E631EC01892B0C
:103BA00029F40F5F1F4F0E151F0581F70E94693220
:103BB000CE01DF91CF911F910F91FF90EF90DF9099
:103BC000CF9008958091260690912706911103C009
:103BD00091E089270895882369F062E070E089E622
:103BE0009AE10E94B21D892B19F080912606089552
:103BF0001092260680912606EBCFCF93C091260621
:103C0000809127068823D1F00E9483126856754C54
:103C10008F4F9F4F60932206709323068093240654
:103C200090932506C11108C062E070E087E69AE132
:103C30000E94B21D892B29F0C09126068C2FCF91AE
:103C4000089581E080932606F7CF4F925F926F929E
:103C50007F928F929F92AF92BF92CF92DF92EF921C
:103C6000FF920F931F93CF93DF93FC0162804480F8
:103C700081E08483E7E6F9E17490E6EEF9E1E4910E
:103C8000C9E2D4E03AEFE32E32E0F32E42E2C42E52
:103C900046E0D42E52E0A52EBB24B39488248A9407
:103CA000912C55245A94E7190E2F10E082E08615C6
:103CB00030F080916B06888380916C068983411077
:103CC00021C01B821A8297014A81698188810E94E2
:103CD000DB12259683E0E80EF11CCC16DD0631F7E9
:103CE000DF91CF911F910F91FF90EF90DF90CF90D8
:103CF000BF90AF909F908F907F906F905F904F900C
:103D00000C94D01C8B818823E9F081508B83859D96
:103D1000C00111246C8170E00E946D32FB01FF270D
:103D2000E959F64E8491E82FE719E59DC001112469
:103D3000B8010E946D3280916D06689FB001112418
:103D40007A83C1CF0E94F33220916D0626952158C7
:103D50002A9DA0012B9D500D1124452F5527841716
:103D600095070CF0B0CF82E0861588F40E94F332FC
:103D7000B4010E948D3288830E94F33220916C0638
:103D80002695622F70E00E948D32280F29831A82B7
:103D900080916D06893C20F088EC8C838B8393CFD7
:103DA0008431D8F784E1F9CFCF92DF92EF92FF927E
:103DB0006B017C010E94CC12B701A60188E090E063
:103DC000FF90EF90DF90CF900C944C33EF92FF92E6
:103DD0000F931F93CF93DF9300D00F92CDB7DEB731
:103DE000F82E062F142FE22E80916A0680FF36C02F
:103DF000E82FE695F0E0E659FE4F90819093F802A7
:103E00008E7F8230C9F49E012F5F3F4F8F2D0E941D
:103E1000DB1280916A0680FF0FC08B8199812A8115
:103E2000EAEFF2E0218390838283339634E0E93233
:103E3000F307C1F70E94D01CF0926B0600936C064A
:103E400010936D06EE2051F060916A0670916B063A
:103E500080916C0690916D060E94D41E0F900F9079
:103E60000F90DF91CF911F910F91FF90EF900895E8
:103E7000EAE6F6E0438128E0421B08F440E021E056
:103E8000628181810C94E61EEAE6F6E0438128E037
:103E9000420F08F44FEF21E0628181810C94E61E0D
:103EA000EAE6F6E0628128E0621B08F460E021E0C7
:103EB000438181810C94E61EEAE6F6E0628128E007
:103EC000620F08F46FEF21E0438181810C94E61EBC
:103ED000EAE6F6E0818121E04381628188500C941A
:103EE000E61EEAE6F6E0818121E043816281885F97
:103EF0000C94E61E80916E06882319F08150809301
:103F00006E0660916A0670916B0680916C069091C6
:103F10006D060C94D41E80916E06833018F48F5F6A
:103F200080936E0660916A0670916B0680916C06B4
:103F300090916D060C94D41EEAE6F6E083E080834F
:103F400011828FEF828383831482608171818281E9
:103F500093810C94D41ECF9384E090E00E9426338A
:103F6000C82F82E290E00E942633982F8C2FCF91A9
:103F7000089569EE7EEF90E080E00E94583360E0A3
:103F800082E090E00E943A3360E083E090E00E949B
:103F90003A33109234021092350210923602109287
:103FA000370260E084E090E00E943A3360E082E211
:103FB00090E00E943A3360E085E090E00E943A335E
:103FC00060E086E090E00E943A336FEF87E090E097
:103FD0000E943A3340E050E0BA0188E090E00E944D
:103FE0004C3360E08DE090E00E943A3340E050E0D6
:103FF000BA0188E190E00E944C3360E087E190E0F4
:104000000E943A3340E050E0BA018CE190E00E9417
:104010004C3370E060E080E290E00E94583340E072
:1040200050E0BA0188E190E00E944C3340E050E05B
:10403000BA018FE090E00E944C3340E050E0BA01BA
:1040400083E190E00C944C33CF93C0913406C2FBD3
:10405000992790F9981799F080FBC2F9C09334061C
:104060006091330684E090E00E943A336C2F82E244
:1040700090E00E943A3382E0CF910C94A918CF913E
:1040800008951F920F920FB60F9211242F933F9312
:104090004F935F936F937F938F939F93AF93BF9350
:1040A000CF93DF93EF93FF93D091E900DF7080917E
:1040B000EC00C82FC17080FDC0E81092E90080912B
:1040C000F000877F8093F00078940E940519109289
:1040D000E9008091F00088608093F000CD2BCF70D4
:1040E000C093E900FF91EF91DF91CF91BF91AF9124
:1040F0009F918F917F916F915F914F913F912F9100
:104100000F900FBE0F901F9018951F920F920FB631
:104110000F9211242F933F934F935F936F937F934D
:104120008F939F93AF93BF93EF93FF938091E100A1
:1041300082FF09C08091E20082FF05C08091E1000A
:104140008B7F8093E1008091DA0080FF24C0809112
:10415000D80080FF20C08091DA008E7F8093DA0043
:104160008091D90080FF9DC080E189BD82E189BD39
:1041700009B400FEFDCF81E080935D068091380692
:10418000811109C00E94F3100E94BE118091E200CB
:1041900084608093E2008091E10080FF17C08091ED
:1041A000E20080FF13C08091E2008E7F8093E200E6
:1041B0008091E20080618093E2008091D80080626B
:1041C0008093D80019BC85E080935D068091E10062
:1041D00084FF2BC08091E20084FF27C080E189BD6D
:1041E00082E189BD89B5982F917080FFFBCF8091C6
:1041F000D8008F7D8093D8008091E1008F7E8093DE
:10420000E1008091E2008F7E8093E2008091E200E5
:1042100081608093E20080915E06882309F447C0A4
:1042200084E080935D0680915D068091E10083FFCC
:1042300027C08091E20083FF23C08091E100877F47
:104240008093E10082E080935D0610925E0680918B
:10425000E1008E7F8093E1008091E2008E7F809369
:10426000E2008091E20080618093E20042E060E041
:1042700080E00E948C118091F00088608093F000B3
:10428000FF91EF91BF91AF919F918F917F916F912E
:104290005F914F913F912F910F900FBE0F901F9004
:1042A000189519BC10925D061092380674CF809153
:1042B000E30087FD93E090935D06B5CF78941F925D
:1042C0001FB61F9211248F939F93AF93BF9380913A
:1042D0002F0690913006A0913106B09132060196DA
:1042E000A11DB11D80932F0690933006A093310637
:1042F000B0933206BF91AF919F918F911F901FBED7
:104300001F9018959C014FB7F89480912F069091BB
:104310003006A0913106B09132064FBF821B930B3D
:1043200008952FB7F89480912F0690913006A091B0
:104330003106B09132062FBF08950F931F93CF938C
:10434000DF93C62FD42F022FFC0182818823A1F096
:10435000609369060E949121909368068093670696
:10436000C77081E001C0880FCA95EAF7DF91CF914D
:104370001F910F910C94C81B80916906681338C077
:1043800080916706909168060E948221883C910581
:1043900078F510E21D0FCD17B9F080E28C0F883050
:1043A00040F4C77081E001C0880FCA95EAF70E9407
:1043B000C11B183048F481E09D2F977001C0880F11
:1043C0009A95EAF70E94C81B802F0E94051D802F36
:1043D0000E94D21B183098F4D77081E001C0880F7A
:1043E000DA95EAF7DF91CF911F910F910C94C11BE1
:1043F000C77081E001C0880FCA95EAF7F3CFDF915B
:10440000CF911F910F91089560916A06669570E0B3
:1044100041E050E088E191E00E940C33892B19F4CF
:1044200081E08093F9020E9491219093F30280939E
:10443000F202089590916A0690FF36C09170811142
:1044400029C0926090936A06662351F060916A06D3
:1044500070916B0680916C0690916D060E94D41E3F
:1044600060916A06669570E041E050E088E191E075
:104470000E940C33892BA9F01092F90281E08093FD
:10448000F50220E040916D0660916C0680916B060C
:104490000C94E61E883010F09E60D4CF880F982BC5
:1044A000D1CF0E940422EACF089580916A068695B2
:1044B000815009F487E061E00C941A2280916A0629
:1044C00086958F5F883008F081E061E00C941A22B5
:1044D00080916A0680FF07C0869582588F77853065
:1044E00010F40C945E2261E082E00C941A224F9248
:1044F0005F926F927F928F929F92AF92BF92CF9274
:10450000DF92EF92FF920F931F93CF93DF9300D030
:1045100000D00F92CDB7DEB77C01FC01838194817E
:10452000892B39F01081D180812F8D218F3F09F0A7
:10453000FCC50F900F900F900F900F90DF91CF91CF
:104540001F910F91FF90EF90DF90CF90BF90AF90B1
:104550009F908F907F906F905F904F9008950E94F2
:10456000C015082F682F89819A810E945A16E12F61
:10457000F0E021E1D29EE00DF11D112436E6039F0B
:10458000E00DF11D1124EE0FFF1FED53FB4E0591C1
:104590001491F7012281222309F434C5C8019056F1
:1045A0008115F0E29F0750F0905E811530E193078E
:1045B00028F0915C81159F4108F062C0C8019927DD
:1045C000AC01445051094432510518F08B970E97B5
:1045D00080F4E0919102F0E0EE0FFF1FEA56FD4FEC
:1045E000808191818F3F3FE7930719F00196918376
:1045F0008083073A9DE5190709F45BC0043FFCE599
:104600001F0709F4AAC008F0A1C5093D8CE51807E9
:1046100009F49FC00A3D9CE5190709F4AAC0083DAA
:10462000ECE51E0709F04BC026E241EE61EEC70142
:104630000E949D2180911002877009F47ACFF701C2
:104640008281882309F475CF8091340682FD71CF71
:1046500082E00F900F900F900F900F90DF91CF910D
:104660001F910F91FF90EF90DF90CF90BF90AF9090
:104670009F908F907F906F905F904F900C94A918AF
:1046800090E080E00F3F110511F008F099CFC801CC
:1046900097CF063F3CE5130709F467C008F461C0F3
:1046A000073F9CE5190709F0C7C427E245EE66EE0F
:1046B000BECF8091CE0291E089278093CE021092E6
:1046C00069060430EDE51E0708F056C00B3FFCE517
:1046D0001F0730F4C80182509C45449708F056C02B
:1046E0000E94AB1F90933406809333060131ECE5B2
:1046F0001E0709F41EC108F099C009302CE5120705
:1047000009F405C108F068C005308CE5180709F404
:10471000F2C008F053C00330ECE51E0709F4E1C015
:1047200008F0E5C080913306816002301C4509F431
:10473000DBC0609133061091340684E090E00E9463
:104740003A33612F82E290E00E943A330E94F018DF
:1047500071CF27E245EE65EE6ACF26E241EE60EECC
:1047600066CF27E245EE64EE62CF26E241EE62EECE
:104770005ECF28E241E0EFCF02363DE5130709F4B2
:10478000AFCF063A8DE5180709F4AACF06313CE50C
:10479000130709F008C1222309F4FBC080913202FB
:1047A0008A7A91E009F490E0909396018111EFC02C
:1047B00089E20E9482150E941B183CCF809133062B
:1047C000806207303CE5130709F48EC008F49BC0F3
:1047D00080913306806488C0809133068B7F0D30D2
:1047E0009CE5190709F480C098F4809133068E7F08
:1047F0000B30FCE51F0709F477C0809133068C600D
:104800000C301C4508F470C0809133068D7F6CC05D
:10481000809133068F7E0F303CE5130709F464C0A6
:1048200008F47BC0809133068F7D5EC00E3F9CE50F
:10483000190709F47AC050F50531FCE51F0709F4A2
:1048400086C098F480913306837F03313CE51307DB
:1048500009F44AC008F471C00E94F0189091330620
:10486000892F97FB87F980583FC00C3F9CE51907BB
:1048700009F445C008F055C08091340681600B3FB3
:104880001C4509F056CF8093340653CF02302DE5F6
:10489000120709F468C0A8F401158DE5180709F49A
:1048A00052C080913406836001301D4560F38091D1
:1048B0003406982F909591708E7F892B90FB81F90B
:1048C000E2CF0236EDE51E0709F453C0063AFDE5D6
:1048D0001F0709F455C003301D4509F02ACF60E0D9
:1048E00043C08091330682608093330622CF80914B
:1048F00033068460F9CF809133068860F5CF8091CC
:1049000034068260C0CF809133068061EDCF0E9473
:10491000F018809133068068E7CF80913306877F57
:10492000E3CF809134068E7FAECF809134068D7FA9
:10493000AACF809133068F7BD7CF0E94F018809149
:1049400033068F77D1CF809134068C7F9CCF8091B6
:10495000330682FB992790F921E0922790FB82F998
:1049600090FB83F9C1CF61E08EE090E00E943A3382
:10497000E0CE90913306892F8F7E94FF8061B4CF73
:1049800090913306892F8E7F90FF8160ADCF85E3B4
:1049900010CF80919601811104C089E20E945715C1
:1049A0000ACF85E3FBCF222309F44BC30B35FDE58A
:1049B0001F0709F4AAC008F089C001153CE51307D8
:1049C00009F496C00F3D1C4509F057C30E94B91F5A
:1049D00031CE40E55FE16CE57FE1083CFCE51F0777
:1049E00009F45FC041E75FE168E67FE1093C1C45EF
:1049F00008F457C04CE55FE160E57FE152C00E3C32
:104A00003CE5130709F45FC0A8F44AE75FE16BE8EF
:104A10007FE10C3CECE51E0709F443C044E45FE190
:104A200068E37FE10D3C1C45E0F14BE85FE16AE79C
:104A30007FE137C0073D2CE5120708F4FBCD0E35AA
:104A40001D4509F01AC30E946822F4CD80916A06C0
:104A500080FF1BC08E7F80936A0660916A0670910A
:104A60006B0680916C0690916D060E94D41E109288
:104A7000F9028FEF90E7E2E081509040E040E1F7EB
:104A800000C000000E94D01CD5CD816080936A06D2
:104A900061E086950E941A22CDCD45E552E26EE591
:104AA00072E20E94C712C6CD4EE552E265E572E29F
:104AB000F8CF48E65FE161E77FE1F3CF48E35FE1EC
:104AC00064E47FE1EECF61E081E0E4CF0C359DE569
:104AD0001907E9F00D351D4509F0CFC28091340664
:104AE00082FB882780F991E089270E942420C5C293
:104AF0000E94F018FFEF24E33CE0F15020403040EA
:104B0000E1F700C000000E94AC1C81E0EECF80E025
:104B1000ECCF812F902F0E943216D82EBFC2212FAA
:104B20002F70C22E107F19F0C29420EFC222DD2018
:104B3000B9F0CC2069F080E2800F883010F081104D
:104B400009C080913202C82AC09232020E941B180A
:104B5000802F4BC080913102C82AC0923102F6CF1B
:104B6000802F0E94D21BCC2009F441C0005E083087
:104B700010F0811004C08C2D0E94501506C0C09406
:104B800080913102C822C09231020E941B182FC0AE
:104B9000312F3F70C32E107F103219F0C29490EF66
:104BA000C922882089F081E0881609F488C0DD20B8
:104BB00009F492C0992009F488C0F701858180FF2B
:104BC000C7CF8F70858381C02091340622FF54C0E7
:104BD000DD2009F44AC0CC2039F080913202C82A85
:104BE000C09232020E941B1880E00E94051DEA2D2F
:104BF000E850FF0B349710F40E94BB12BB20A9F0C1
:104C00008091100280FD11C0F70112828595859573
:104C100085950E94C518C7010E94772280911002D5
:104C20008595859585950E94861885E0F701DE01BA
:104C3000119601900D928A95E1F789819A810E94DF
:104C400032169A81E981F0E021E1929FE00DF11D99
:104C5000112436E6839FE00DF11D1124EE0FFF1F96
:104C6000ED53FB4E8591949164CC80E00E94D21B61
:104C7000CC2009F4BCCF7FCFDD20A1F0909133028E
:104C80008C2D892B911003C00E94C81BB0CFE1E08E
:104C90009E12FACF22FDABCF981709F4A8CF8093CC
:104CA0003302A5CF911006C00E944A158C2D0E9498
:104CB000C11B9DCFF1E09F1609F499CFF5CFDD2000
:104CC00031F025E0291508F492CF8C2DDDCF34E0AA
:104CD000391508F48CCFEACF992041F3F9E38F120C
:104CE0008AC12FEF37EE83E0215030408040E1F75A
:104CF00000C0000080C1812F86958695837061F089
:104D0000813009F074CFC8019370D11002C090E0D7
:104D100080E00E948F126BCFC8019370D11002C047
:104D200090E080E00E94A51262CF812F837009F08D
:104D300066C0D1105CCF802F829586958770880FD2
:104D4000880F602F6F70462E512C712C612C082E0D
:104D500004C0440C551C661C771C0A94D2F740E032
:104D600050E0BA0104FF0FC04FE050E060E070E097
:104D700004C0440F551F661F771F8A95D2F74095D0
:104D8000509560957095812F8695869583708230B9
:104D900019F1D8F4009134021091350220913602B5
:104DA00030913702813069F04429552966297729E5
:104DB000CB01BA0160237123822393230E94E6185A
:104DC00016CF402A512A622A732ACB01BA016429DC
:104DD000752986299729F2CF4429552966297729EB
:104DE0000091340210913502209136023091370241
:104DF000CB01BA016027712782279327DFCF8695E1
:104E0000DD2011F0812F8170882309F4F0CE802FEE
:104E1000829586958770880F880F602F6F70462E59
:104E2000512C712C612C082E04C0440C551C661C9E
:104E3000771C0A94D2F740E050E0BA0104FF0FC09B
:104E40004FE050E060E070E004C0440F551F661F63
:104E5000771F8A95D2F74095509560957095812F70
:104E6000869586958370823019F1D8F400915302AB
:104E7000109154022091550230915602813069F010
:104E80004429552966297729CB01BA01602371236A
:104E9000822393230E947C18AACE402A512A622A98
:104EA000732ACB01BA016429752986299729F2CF83
:104EB00044295529662977290091530210915402FB
:104EC0002091550230915602CB01BA01602771271B
:104ED00082279327DFCF1F70DD2029F0812F0E94CA
:104EE000C518802FD1CE802F0E94C11B812F0E9418
:104EF00086187DCE802F92EF891609F43FC0981551
:104F000070F0E0EF8E16D1F0F1EF8F1691F0DD200A
:104F100009F46CC091101CCE812F8F7133C023EF28
:104F2000821699F134EF8312F2CF8091340682FF1A
:104F30003FC0812F8F71DD20D1F224C0DD20C9F068
:104F400084E0891508F453CE1F7161E070E080E0C1
:104F500090E004C0660F771F881F991F1A95D2F73B
:104F60000091530210915402209155023091560243
:104F7000ADCF95E0991508F43ACEE6CF812F8F7129
:104F8000D110B5CF0E94C51832CE60E070E0CB01E1
:104F9000DD2009F47FCF1F7161E070E080E090E0D8
:104FA00004C0660F771F881F991F1A95D2F772CF1A
:104FB000DD2089F01F71812F0E94C5188091340671
:104FC00082FD07C0E8E01E9FC0011124836080932A
:104FD0001002812FD7CF81E00E94A918F1E0F915C6
:104FE00008F005CE82E00E94A91801CE992039F080
:104FF000893309F476CE802F0E94D21BF8CD812F01
:105000008F7175CF073A8DE51807D9F0043F8CE50D
:10501000180709F4A2CB08F03CCB093DECE51E07CC
:1050200009F497CB0A3DFCE51F0709F4A2CB083D24
:105030002CE5120709F4F8CA06319CE5190709F4B2
:10504000A8CC8091320282720A3C9CE5190709F4CF
:1050500035CD08F0D4CC063CFCE51F0709F429CD7A
:1050600008F0B7CC043C3CE5130709F416CD08F072
:105070001BCD033C1C4509F4E9CCF701828110816A
:105080000181882309F445CD812F902F0E94C015FE
:10509000D82E682F812F902F0E945A16E12FF0E012
:1050A00021E1029FE00DF11D112436E6D39EE00DB3
:1050B000F11D1124EE0FFF1FED53FB4E85919491CE
:1050C0000E94CD138C01882EF701D2809580929496
:1050D0005FE09522809110028770C1F0BD2CDD2029
:1050E000B1F0812F807F803421F080E2800F883002
:1050F00068F08091340682FD09C082E00E94A91800
:10510000809110028770BB24B3948111B12CA12E21
:10511000A2943FE0A322FBE0FA1508F468CDEA2D43
:10512000F0E0E352FC4C0C94A13285E0DE011196D4
:1051300001900D928A95E1F7F701228189819A8188
:1051400021110DCA0E943216082F11CA063FFCE534
:105150001F0709F40ACB08F404CB073F8CE51807B6
:1051600009F4A3CAACCA1F93CF93DF938091DD01EA
:10517000807FA9F48091DA01882389F080910F0261
:10518000D091DE016091D8017091D901A091DB012D
:10519000B091DC01C62FC72316E0D81304C0DF91FD
:1051A000CF911F91089590E0109711F0CF3F19F41F
:1051B00001968770F2CF189F9001199F300D11242E
:1051C000F901E152FE4F41814713F2CF408146136E
:1051D000EFCF42814111ECCF438154814A1B5B0BDD
:1051E000483C510528F78091DD018F7080618093E4
:1051F000DD01F901EC51FE4F80818F708061808369
:1052000088ED91E00E947722DF91CF911F910C945D
:10521000B615AF92BF92CF92DF92EF92FF920F93AB
:105220001F93CF93DF93CDB7DEB761970FB6F89496
:10523000DEBF0FBECDBF8C0185E0F801DE011D96FB
:1052400001900D928A95E1F7F801E28088EDA82E91
:1052500081E0B82E6091DB017091DC016115710570
:1052600009F432C19091D8014091D901892F84234A
:105270008F3F09F429C120813181C380D480F0900F
:10528000DA01F601E61BF70BFF2009F4E8C0809174
:10529000DD01582F507FE83CF10508F0ABC05111FB
:1052A00077C0FE2C431321C092131FC0E1101DC014
:1052B0008F7080618093DD01C5010E94772280910B
:1052C000DD01F80185838F2D61960FB6F894DEBF5E
:1052D0000FBECDBFDF91CF911F910F91FF90EF9047
:1052E000DF90CF90BF90AF900895CD2829F0822F06
:1052F00083238F3F09F003C180E0F82FF170DF2E88
:1053000080FF3CC080910F024091DE0156E0841383
:1053100015C02D873E878D859E850E941716292FE3
:1053200022952F702230F0F0243018F59F70F1F0A4
:10533000F8019581907FD1F4D12C1EC090E0589F48
:10534000F001599FF00D1124E152FE4F6181361397
:1053500006C06081261303C06281E6120FC0019669
:105360008770D5CF9F7011F0882331F3805E88302D
:1053700018F3C8010E947722FD2CA5CFEE2009F476
:10538000A2CF8091DD0181608093DD01F12C9BCF64
:10539000431306C0921304C0F801EE2009F479C04B
:1053A000C8010E948616882309F1EE20F9F0809149
:1053B000DD01803270F02091D8013091D901388719
:1053C0002F831986DB86CA868C87CE0107960E94BA
:1053D000772286E0F801A8EDB1E001900D928A9560
:1053E000E1F70E94B328FF24F3946DCFC8010E9417
:1053F0007722F9CF51110AC088ED91E00E947722FF
:1054000086E0F50111928A95E9F7C0CF43130FC0EA
:1054100092130DC0E1100BC0F8018583C8010E94F2
:10542000772286E0F50111928A95E9F74CCFC80101
:105430000E9486168823D1F2EE20C1F28091DD0110
:10544000803238F22091D8013091D9013A832983F2
:105450001B82DD82CC828E83CE010196B8CFE83CE0
:10546000F105F8F6FE2CEE2009F243131FC092134B
:105470001DC08091DD0180FD10C0982F907F69F0E4
:10548000F8018583903F31F0982F907F905F8F7067
:10549000892B8583C8010E94772286E0F801A8ED58
:1054A000B1E001900D928A95E1F70DCFC8010E94FD
:1054B000861681118ECF8091DD0181608093DD01A0
:1054C000C8010E947722FFCEEE2009F48FCFC801D9
:1054D0000E948616F82E882309F488CF86E0F8010A
:1054E000A8EDB1E001900D928A95E1F78091D80185
:1054F0009091D9010E9417160E94B328E4CE81E052
:105500008E25FBCE1F93CF93DF93CDB7DEB7679782
:105510000FB6F894DEBF0FBECDBF4B8B5C8B6D8B8F
:105520007E8B8F8B6111109231021A8A198A85E065
:10553000FE017396DE011D9601900D928A95E1F7AA
:1055400086E0FE013D96DE01179601900D928A9548
:10555000E1F7CE0107960E940929882389F016E019
:1055600080910F029091DE01891349C067960FB6B2
:10557000F894DEBF0FBECDBFDF91CF911F9108958C
:1055800086E0FE013796DE01119601900D928A9514
:10559000E1F78A859B85892B11F38F819885892373
:1055A0008F3FE9F22091DE0130E0C901019687705A
:1055B000992740910F024817190671F40E94F018BC
:1055C0001092DE0110920F0286E0E8EDF1E0DF01BB
:1055D0001D928A95E9F7C3CF96E0929FD001939FE1
:1055E000B00D1124A152BE4FFE01319601900D92D3
:1055F0009A95E1F78093DE010E94B615B0CF819FA6
:10560000C001112481529E4F0E940929882309F468
:10561000ADCF80910F0290E001968770992780931B
:105620000F029ECF4F925F926F927F928F929F92C6
:10563000AF92BF92CF92DF92EF92FF920F931F93A0
:10564000CF93DF93CDB7DEB768970FB6F894DEBF80
:105650000FBECDBF8E010F5F1F4F88E1F801119281
:105660008A95E9F79BE4E92E91E0F92E6801AA24D6
:10567000A394B12C32E6832E31E0932EF701819171
:105680007F018F3F09F44FC0F894E82FE295EF7047
:10569000F0E021A18F70A50102C0440F551F8A952B
:1056A000E2F7CA01922F982B91A392A180958923AA
:1056B00082A3789400C0E1E5F1E041E050E060E0D1
:1056C00070E0412C512C320121912F3F09F46EC022
:1056D000A22FA295AF70B0E090968C9190E02F70C1
:1056E00002C0959587952A95E2F780FD5FC0DB01A2
:1056F000CA01482A592A6A2A7B2A440F551F661F65
:10570000771F8E169F0601F7F701319780818F3F33
:1057100011F00E94731350EA5A95F1F7F601408296
:10572000518262827382F4E0CF0ED11C41E5E4160F
:1057300041E0F40609F0A2CF48E150E0B8018BE364
:1057400092E00E941933FF24F394009709F4F12C9E
:10575000892B81F188E1F801ABE3B2E001900D9271
:105760008A95E1F781E080933A020E94912190931B
:1057700039028093380280913802909139020E9458
:1057800082210597D8F0EBE3F2E0AAE5B2E041917F
:105790005191619171914D935D936D937D9352E021
:1057A000E335F507A1F710923A0208C080E090E0D7
:1057B000DC019FCF80913A028111DDCF8F2D689659
:1057C0000FB6F894DEBF0FBECDBFDF91CF911F9112
:1057D0000F91FF90EF90DF90CF90BF90AF909F9090
:1057E0008F907F906F905F904F9008951F921FB69B
:1057F0001F9211248F939F93AF93BF9380912E0696
:10580000811113C080912F0690913006A09131062E
:10581000B09132064196A11DB11D80932F06909341
:105820003006A0933106B0933206BF91AF919F919D
:105830008F911F901FBE1F901895CDB7DEB761974F
:105840000FB6F894DEBF0FBECDBF84B7877F84BF8D
:105850000FB6F894A89580916000886180936000ED
:10586000109260000FBE80E890E00FB6F89480932D
:105870006100909361000FBE85B7806885BF85B7D2
:10588000806885BF81E793E19093730180937201F3
:105890000E94F3100E94BE118091E2008460809308
:1058A000E200789480915D068823A1F01091E900D0
:1058B0001F709091EC00892F817090FD80E8182B6B
:1058C0001092E9008091E80083FD0E9405191F7085
:1058D0001093E90082E084BD93E095BD9AEF97BDF7
:1058E00080936E000BE411E041E5E42E41E0F42EDC
:1058F000D8018D918D018F3F11F00E947313E01636
:10590000F106B1F701E511E032E6E32E31E0F32EC6
:10591000F80181918F018F3F11F00E947313E016FF
:10592000F106B1F788E1EAE5F2E0DF01282F1D92E8
:105930002A95E9F7EBE3F2E0DF011D928A95E9F79A
:1059400090E080E00E943433893E9E4F11F00E9427
:10595000B91F82E090E00E942633809372020E9479
:10596000AB1F90933406809333060E94122BEFEF07
:10597000F6E721E0E150F0402040E1F700C00000F0
:105980000E94122B80915A0280FF08C06FEF7FEFB8
:1059900090E080E00E9458330E94AC1C83E090E0CD
:1059A0000E942633682F70E090E080E00E94E618A5
:1059B0001092EF0280E880936F060E9466316DE0DE
:1059C00070E086E098E10E94B21D892B59F5809124
:1059D000EF0263E070E081FD70C283E098E10E9415
:1059E000B21D892BF9F46DE070E083EF97E10E941E
:1059F000B21D892BB9F40E9483126856754C8F4FE3
:105A00009F4F609322067093230680932406909301
:105A100025060E94E21681E08093270680932606E1
:105A20001092F00280915702811136C090E080E020
:105A30000E943433893E9E4F21F00E94B91F0E947C
:105A40009C1F88E090E00E942E3360936A0670935A
:105A50006B0680936C0690936D066E7F71F40E94C6
:105A60009C1F88E090E00E942E3360936A0670933A
:105A70006B0680936C0690936D060E94CC12109278
:105A8000F90280916A0680FF04C060E086950E945A
:105A90001A2281E08093570284E091E090932B06D4
:105AA00080932A0680915D06FF24F39400E112E1C1
:105AB000853009F462C20E94122B8F8781110E94E7
:105AC0008312AAE5B2E0E3E7F2E010E000E0902FF5
:105AD0004D915D916D917D9141905190619071904A
