:100000000C94D0060C9408070C9408070C9408076D
:100010000C9408070C9408070C9408070C94080724
:100020000C9408070C9408070C94C1170C947D17C6
:100030000C9408240C9408070C9408070C940807E7
:100040000C9408070C9408070C9408070C940807F4
:100050000C9408070C949A180C9408070C94080741
:100060000C9408070C9408070C9408070C940807D4
:100070000C9408070C9408070C9408070C940807C4
:100080000C9408070C9408070C9408070C940807B4
:100090000C9408070C9408070C9408070C940807A4
:1000A0000C9408070C9408070C94080705010980B4
:1000B000A101850319012AB700150126B700950192
:1000C00075108100C0050C0901A101850419012AE0
:1000D000A002150126A002950175108100C00660DE
:1000E000FF0961A1010962150026FF00952075082E
:1000F00081020963150026FF00952075089102C052
:1001000005010906A101050719E029E715002501E8
:10011000950875018102950175088101050719008F
:1001200029FF150026FF00950675088100050819AE
:10013000012905950575019102950175039101C08D
:1001400000000000000000000000000000000000AF
:10015000000000000000000000000000000000009F
:10016000000000007E0F00D4FFFFFFC700000078F2
:1001700000000000000000002A2B28000000000002
:100180000000000000000000000000290000000046
:100190002C1E3420212224342627252E362D3738B4
:1001A000271E1F202122232425263333362E3738BD
:1001B0001F0405060708090A0B0C0D0E0F1011127B
:1001C000131415161718191A1B1C1D2F3130232D47
:1001D000350405060708090A0B0C0D0E0F10111245
:1001E000131415161718191A1B1C1D2F3130354CF6
:1001F00000DA0281FFD9F1DB20A4A62EAF00A0C057
:1002000000A1C800AED580A81FD300408D142000E7
:1002100000047F3F1F643214643214783C1E1E14A5
:100220000A05554E444546494E4544200046554E24
:100230004354494F4E20330046554E4354494F4E88
:1002400020320046554E4354494F4E2031005157FD
:10025000455254592020202000203D3D3D3D3D0A7F
:1002600000203D5343523D0A000A4C415945523A41
:10027000200057504D3A20000A00203D3D3D3D3DB5
:100280002000203D4E554D3D20003D3D3D3D3D2053
:10029000003D4341503D20000001010101010101E9
:1002A000010102020202020202020203030303032B
:1002B00003030304040404040404050505050506FA
:1002C00006060606070707070708080808090909B8
:1002D000090A0A0A0B0B0B0C0C0C0D0D0D0E0E0E61
:1002E0000F0F0F10101111111212131314141515F2
:1002F00016161717181819191A1A1B1B1C1D1D1E64
:100300001E1F2020212222232424252626272829B7
:10031000292A2B2C2D2D2E2F3031323233343536E5
:100320003738393A3B3C3D3E3F40414243444546E5
:100330004748494A4C4D4E4F5051535455565859C1
:100340005A5B5D5E5F616264656668696B6C6D6F68
:100350007072737577787A7B7D7E808283858788DB
:100360008A8C8E8F91939596989A9C9EA0A2A3A515
:10037000A7A9ABADAFB1B3B5B7BABCBEC0C2C4C616
:10038000C9CBCDCFD1D4D6D8DBDDDFE2E4E7E9EBD2
:10039000EEF0F3F5F8FAFDFFFFAA7F554022232582
:1003A0002628292A2C2D2F3032333536383A3B3D3A
:1003B0003E4042434547494A4C4E50515355575988
:1003C0005A5C5E6062646668696B6D6F71737577A5
:1003D000797B7D7F81838587898A8C8E90929496A4
:1003E000989A9C9E9FA1A3A5A7A8AAACAEAFB1B3B3
:1003F000B4B6B8B9BBBCBEBFC1C2C3C5C6C7C9CA03
:10040000CBCCCDCED0D1D2D2D3D4D5D6D7D7D8D9C4
:10041000D9DADADBDBDBDCDCDCDCDCDDDDDDDDDC22
:10042000DCDCDCDCDBDBDBDADAD9D9D8D7D7D6D534
:10043000D4D3D2D2D1D0CECDCCCBCAC9C7C6C5C3F6
:10044000C2C1BFBEBCBBB9B8B6B4B3B1AFAEACAA43
:10045000A8A7A5A3A19F9E9C9A98969492908E8CF3
:100460008A89878583817F7D7B79777573716F6DCD
:100470006B6968666462605E5C5A595755535150A7
:100480004E4C4A4947454342403E3D3B3A3836355B
:100490003332302F2D2C2A29282625232200AF0085
:1004A000AE29003A003B003C003D003E003F0040CA
:1004B0000041004200430044004500000046004760
:1004C00000480035001E001F0020002100220023EC
:1004D0000024002500260027002D002E002A0049B8
:1004E000004A004B002B0014001A000800150017EA
:1004F000001C0018000C00120013002F0030003107
:10050000004C004D004E00390004001600070009A1
:10051000000A000B000D000E000F00330034000035
:10052000002800000000000000E10001511D001B38
:1005300000060019000500110010003600370038D1
:1005400000E5000251000052000000E000E300E27C
:1005500000000000002C000000000000000000E689
:1005600000E7000351E400500051004F0029003A19
:10057000003B003C003D003E003F00400041004287
:10058000004300440045000000AA00A800A900356F
:10059000001E001F0020002100220023002400254F
:1005A00000260027002D002E002A00AC00AE00AB74
:1005B000002B0014001A000800150017001C00187A
:1005C000000C00120013002F00300031004C004DD1
:1005D000004E00390004001600070009000A000B55
:1005E000000D000E000F00330034000000C25C005C
:1005F0000000000000E10000001D001B00B2001917
:1006000000050011001000360037003800E500003A
:10061000000000C95C0000E000E300E20000000010
:10062000002C000000000000000000E600E70000D1
:1006300000E400C35CCA5CC45C29003A003B003C97
:10064000003D003E003F00400041004200430044A6
:100650000045000000AA00A800A90035001E001FE8
:10066000002000210022002300240025002600276E
:10067000002D002E002A00AC00AE00AB002B0014B1
:10068000001A000800150017001C0018000C0012CA
:100690000013002F00300031004C004D004E003997
:1006A0000004001600070009000A000B000D000EF0
:1006B000000F00330034000000C25C0000000000A6
:1006C00000E10000001D001B00B200190005001130
:1006D000001000360037003800E50000000000C9B7
:1006E0005C0000E000E300E200000000002C0000DD
:1006F00000000000000000E600E7000000E400C386
:100700005CCA5CC45C29003A003B003C003D003EF2
:10071000003F0040004100420043004400005C00F4
:1007200000AA00A800A90035001E001F002000211B
:10073000002200230024002500260027002D002E83
:10074000002A00C55CC75CCB5C2B0014001A0008B3
:1007500000150017001C0018000C00120013002FD9
:100760000030003100C65CC85CCC5C390004001667
:1007700000070009000A000B000D000E000F0033F7
:100780000034000000C25C000000000000E1000036
:10079000001D001B00B200190005001100100036FA
:1007A0000037003800E50000000000C95C0000E0F0
:1007B00000E300E200000000002C00000000000048
:1007C000000000E600E7000000E400C35CCA5CC46F
:1007D0005C09025B00030100A0FA090400000103A8
:1007E00001010009211101000122400007058103D8
:1007F00008000109040100020300000009211101A1
:1008000000012222000705820320000107050303DF
:100810002000010904020001030000000921110168
:1008200000012232000705840320000112010002AA
:1008300000000008090009000100010200010A038C
:1008400067006700380037000000100367006F0082
:1008500070006F006C006100720000000403090466
:1008600007087F0807003E5B4F5B3E003E6B4F6B07
:100870003E001C3E7C3E1C00183C7E3C18001C5771
:100880007D571C001C5E7F5E1C0000183C18000099
:10089000FFE7C3E7FF00001824180000FFE7DBE7CD
:1008A000FF0030483A060E00262979292600407FAD
:1008B00005050700407F05253F005A3CE73C5A00EC
:1008C0007F3E1C1C0800081C1C3E7F0014227F2257
:1008D00014005F5F005F5F0006097F017F00006614
:1008E00089956A0060606060600094A2FFA2940035
:1008F00008047E04080010207E20100008082A1C2E
:100900000800081C2A0808001E10101010000C1EF9
:100910000C1E0C0030383E383000060E3E0E06002D
:1009200000000000000000005F000000000700075A
:100930000000147F147F1400242A7F2A120023133E
:100940000864620036495620500000080703000082
:10095000001C224100000041221C00002A1C7F1CB8
:100960002A0008083E0808000080703000000808CF
:100970000808080000006060000020100804020061
:100980003E5149453E0000427F40000072494949BE
:1009900046002141494D33001814127F10002745AD
:1009A000454539003C4A49493100412111090700B8
:1009B000364949493600464949291E0000001400BD
:1009C000000000403400000000081422410014140C
:1009D00014141400004122140800020159090600F1
:1009E0003E415D594E007C1211127C007F494949FD
:1009F00036003E41414122007F4141413E007F4956
:100A0000494941007F09090901003E4141517300F4
:100A10007F0808087F0000417F4100002040413FDF
:100A200001007F08142241007F40404040007F02C7
:100A30001C027F007F0408107F003E4141413E00C0
:100A40007F09090906003E4151215E007F091929ED
:100A5000460026494949320003017F0103003F4017
:100A600040403F001F2040201F003F4038403F00D3
:100A70006314081463000304780403006159494DAA
:100A80004300007F41414100020408102000004162
:100A900041417F0004020102040040404040400008
:100AA0000003070800002054547840007F28444485
:100AB0003800384444442800384444287F003854DF
:100AC0005454180000087E09020018A4A49C780061
:100AD0007F080404780000447D4000002040403D31
:100AE00000007F102844000000417F4000007C048B
:100AF000780478007C0804047800384444443800C2
:100B0000FC182424180018242418FC007C08040471
:100B1000080048545454240004043F4424003C403A
:100B200040207C001C2040201C003C4030403C0009
:100B30004428102844004C9090907C004464544C0D
:100B4000440000083641000000007700000000412A
:100B5000360800000201020402003C2623263C0065
:100B6000000000000000404040F0F8F8FF38FFF8B7
:100B7000F83FF8F8FF38FFF8F8F040404000000078
:100B800000000080C0C0C0800000C0C08000000025
:100B900080C0C000C0C0000080C0C00000000000D5
:100BA000C0C0C0C0C000C0C0000000000000000005
:100BB0000000000000000000000000000000000035
:100BC0000000000000000000000000000000000025
:100BD000000000000000000000000000000000C055
:100BE000F0F8FC3E1E06010000007F4141417F00FD
:100BF0007F4141417F000080C0E07E5B4F5BFEC0D3
:100C00000000C000DCD7DEDEDED7DC00C000000064
:100C100000000000000000000000000000000000D4
:100C2000000000000000494949FFFFFFFFE0DFBF6F
:100C3000BF00BFBFDFE0FFFFFFFF494949000000E1
:100C400000001F3F6060E0BF1F007F7F071E381E4F
:100C5000077F7F007F7F0E1F3B7160000000000058
:100C60007F7F0C0C0C007E7E007F7E0303007F7E66
:100C700003037E7E03037F7E000F3E703C063C70C4
:100C80003E0F00327B49493F7E007F7E0303001EFA
:100C90003F69696F260000000000000000000003AB
:100CA0000F1F3F3C7870600000007F4141417F0092
:100CB0007F4141417F00307B7F7830202030787F3A
:100CC0003B0003000F7F0F0F0F7F0F00030000009A
:100CD0000000000000000000000000000000000014
:100CE000000000000000010101070F0F7F0F7F0FC0
:100CF0000F7E0F0F7F0F7F0F0F0701010100000014
:100D000000000000000000010100000000000000E1
:100D100000000000000000000000000000000000D3
:100D200000000000000000000000000000000000C3
:100D300000000000000000000000000000000000B3
:100D400000000000000000000000000000000000A3
:100D50000000000000000000000000000000000093
:100D60000000000000000000000000000000000083
:100D70000000000000000000000000000000000073
:100D80000000000000000000000000000000000063
:100D90000000000000000000000000000000000053
:100DA00011241FBECFEFDAE0DEBFCDBF04B603FED5
:100DB00018C08091230690912406A0912506B09139
:100DC00026068730904BA740B04B59F4109223066B
:100DD000109224061092250610922606E0E0F8E311
:100DE000099511E0A0E0B1E0EEE7FBE502C0059057
:100DF0000D92A83AB107D9F726E0A8EAB1E001C000
:100E00001D92A332B207E1F70E942F240C94942D77
:100E10000C940000E8EDF0E080818E7F80831092DA
:100E2000E2001092DA001092E100A0EEB0E08C91A6
:100E300081608C9380818F77808319BCA7EDB0E0AF
:100E40008C918E7F8C9380818F7E80831092FD03A6
:100E500008952091E4003091E50095E6A9012091E4
:100E6000EC00822F817020FF06C08091E80080FF97
:100E700006C080E008952091E80022FD1AC080910C
:100E80000A04882389F0853089F08091EB0085FD84
:100E90000FC02091E4003091E50042175307F9F2AA
:100EA0009150E1F684E0089582E0089583E008958A
:100EB00081E00895EF92FF920F931F93CF937C01EF
:100EC0008B010E942907C82F811117C08091E8006B
:100ED00085FD0BC08091E8008E778093E8000E942A
:100EE0002907882399F3C82F08C0F70181917F0152
:100EF0008093F1000150110949F78C2FCF911F9178
:100F00000F91FF90EF90089580910C0487FF13C01C
:100F10008091E80082FF06C08091E8008B77809383
:100F2000E80004C080910A048111F2CF08958091F5
:100F30000A048823D9F38091E80080FFF8CF8091DC
:100F4000E8008E77ECCF982F9093E900242F762F2E
:100F500050E0891731F07091EC002091ED00509134
:100F6000F00021FD07C09F5F973071F78093E90083
:100F700081E008953091EB003E7F3093EB0030919B
:100F8000ED003D7F3093ED003091EB003160309308
:100F9000EB007093EC002093ED005093F000209153
:100FA000EE0027FDE0CF80E00895CF92DF92EF9230
:100FB000FF920F931F93CF93DF93C8EDD0E088810A
:100FC0008F7E8883E7EDF0E080818160808384E01C
:100FD00082BF81E08093FD0388818E7F888302EE4B
:100FE00010E0F80110821092DA0081EEC82ED12CA8
:100FF000F601108288818F77888388818068888352
:1010000088818F7D888319BC10920A0410920B048A
:10101000109209041092080490EEE92EF12CF701C9
:1010200080818B7F808388818160888342E060E05B
:1010300080E00E94A307F60180818E7F8083F80103
:10104000808181608083808188608083F7018081D6
:101050008E7F8083888180618883DF91CF911F910B
:101060000F91FF90EF90DF90CF900895FC01809159
:1010700012049091130486179707A0F0611571056B
:1010800029F49091E8009E779093E80090E0611534
:10109000710551F4911108C08091E80082FF34C0BD
:1010A00080E00895BC01F2CF80910A048823C1F149
:1010B0008530C1F18091E80083FD30C08091E80067
:1010C00082FDEACF8091E80080FFE1CF8091F300BC
:1010D0002091F200382F6115710519F02830310583
:1010E00058F091E02830310509F090E02091E800B7
:1010F0002E772093E800CBCF81918093F10061504F
:1011000071092F5F3F4FE7CF80910A04882341F098
:10111000853041F08091E80083FFBECF81E00895E3
:1011200082E0089583E008950895089508958091D8
:10113000FF0308952FB7F8946091F6037091F703B9
:101140008091F8039091F9032FBF08952091F30344
:101150003091F4032817390771F09093F4038093CA
:10116000F303E091F103F091F203309721F0008452
:10117000F185E02D099408952091EF033091F0035B
:101180002817390771F09093F0038093EF03E091F3
:10119000F103F091F203309721F00680F781E02D02
:1011A00009940895E091F103F091F203309721F052
:1011B0000190F081E02D099480E00895FA018111F9
:1011C00001C0FB0109948091E403982F9E7F29F4CC
:1011D000817082608093E40308958A34E8F381701B
:1011E0008864F8CFAF92BF92DF92EF92FF920F9395
:1011F0001F93CF93DF93082F162FE901E42FF0E020
:10120000E856FD4F611110C0E4915E2F4E2F4983C7
:10121000E8835A83DF91CF911F910F91FF90EF9058
:10122000DF90BF90AF900895E62EF12C4491D42E1C
:10123000E42FF0E026E0829FC00111242FEF30E080
:10124000B9010E94682C802F90E0880F991F55E506
:10125000569FD001579FB00D11248A1B9B0B982FCE
:10126000990F890F5901AE18BF08AE9ED001AF9EED
:10127000B00DBE9EB00D11245B2F189F800111246C
:10128000012F11275901A01AB10AAE9E8001AF9E0D
:10129000100DBE9E100D11245901A81AB108AE9C64
:1012A000C001AF9C900DBE9C900D1124892F9927F1
:1012B000281B390B2E9FC0012F9F900D3E9F900D34
:1012C0001124E92F62307105A1F050F46115710508
:1012D00009F49DCF6130710581F0EB2F512F97CF2D
:1012E0006430710569F080F06630710509F48FCFC4
:1012F000F4CFE42F4B2F592F8ACFE42F412F87CFE4
:10130000EB2F542F492F83CF4B2F5D2DE12F7FCF14
:1013100080E00895F894E82FE295EF70F0E031A1B5
:10132000282F2F7081E090E001C0880F2A95EAF7FE
:10133000982F9095932391A392A1892B82A37894BF
:10134000089590913A0292FF06C0282F2871283004
:10135000F9F4877F846093FF06C0282F2871283115
:10136000F1F4877E846120913B0220FF06C0382F74
:1013700038713830D9F4877F816021FF06C0282F6B
:1013800028712831D1F4877E816194FD877E08958C
:10139000282F24712430F9F68B7F8860DCCF282F2A
:1013A0002471243101F78B7E8861DDCF382F3171B4
:1013B000313019F78E7F8860E0CF282F21712131DD
:1013C00021F78E7E8861E1CFCF93DF93EC018238E5
:1013D0009105A9F1D8F58133910509F496C048F536
:1013E0008932910509F48AC08A9709F495C0C1151C
:1013F00022E5D20708F0B6C0C11531E5D30708F0E1
:1014000026C1C83ED10508F09CC0C03ED10560F59C
:10141000C83AD10508F087C0C53AD10508F0EFC039
:10142000C130D10509F12097F9F0C430D105E0F4BD
:1014300040C08533910509F45AC0C997C1F680911F
:101440003A02837089F0C0EED0E00EC0833E910571
:1014500099F170F4803E910501F1823E910539F6D3
:1014600080913A0282FD21C0CE01DF91CF91089593
:10147000863E910561F1873E910571F1843E9105AB
:1014800009F0B5CF80913B0281FFEECF80913A0207
:10149000C7EED0E084FD0DC0E7CF80913A0280FD19
:1014A00007C190913B0290FFDFCFC3EED0E084FFF5
:1014B000DBCFD0E0C0E0D8CF80913A0282FDFBC004
:1014C00090913B0290FDBFCF84FFCECFF2CF8091B1
:1014D0003A0283FDDDCFC8CF80913A0283FDEEC092
:1014E00090913B0291FFF0CFC4EED0E0BDCF809150
:1014F0003A0285FFB9CFC9E2D0E0B6CF80913A0277
:1015000085FFB2CFC5E3D0E0AFCF80913A0286FF2E
:10151000ABCFCAE2D0E0A8CF80913A0286FFA4CF39
:10152000C1E3D0E0A1CFCF3BD10518F6C85AD0E037
:10153000CC0FDD1FCA5DDE4F0990D881C02DD46469
:1015400093CFC11540E5D40708F064C0C11580E40D
:10155000D80708F05CC0CE019A9581159F4108F428
:1015600083CFA7CFC11536E5D30718F5C11545E5DB
:10157000D40708F084C0C11584E5D80708F07AC004
:101580009C2F969596959E0123703327C115D345C0
:1015900008F462C0C1E0D0E002C0CC0FDD1F2A9584
:1015A000E2F730E2939FC0011124C82BD92BDA68EF
:1015B0005BCFC1158AE5D80778F4C11599E5D9073D
:1015C00008F068C0C11528E5D20708F472CFDC2FF7
:1015D000CC27C06FD06A48CFCE019056811590427B
:1015E00008F067CF8D2F8F710E94A10990E0982F8E
:1015F000882788279F719C012C2BE90149C0C55A77
:10160000D0E0CD5DDE4FC881D0E0D0642DCFDF705B
:10161000D06A2ACFCE01E4E096958795EA95E1F766
:1016200083702C2F26952695237040E2249F9001ED
:101630001124382B8C2F8370C1E0D0E002C0CC0F76
:10164000DD1F8A95E2F7C22BD32BDC680DCFDC2F90
:10165000CC27C16FD06A08CFC1E0D0E002C0CC0F68
:10166000DD1F2A95E2F720E2929FC0011124C82BCA
:10167000D92BEBCFDC2FCC27C46FD06AF5CE8C2FC3
:101680000E94A109C82FD0E0DC2FCC27CC27DF7126
:10169000D062EACE8C2F8F700E94A10934E0D695DB
:1016A000C7953A95E1F7CF709C2FEC01D069DCCE5D
:1016B000C9E3D0E0D9CEC2EED0E0D6CEC6EED0E0BF
:1016C000D3CE80911D02811110921D020895809544
:1016D00090911C02982390931C020895ECEAF1E08B
:1016E0009191891303C0DF0111971C9291E0E23BB5
:1016F000F907B1F70895ACEAB1E0EFEF90E02D9172
:10170000821751F0EF3F19F4211101C0E92F9F5FBB
:101710009630A9F7EF3F09F408950E2E000CFF0B49
:10172000E655FE4F82830895809111029091E00169
:10173000981301C008958F5F8770FACF21E1929FBF
:10174000800D1124982F977086958695869523E0B5
:10175000829FF0011124ED54FE4F50E040E080E004
:10176000219130E0092E02C0369527950A94E2F7C0
:1017700021703327042E01C0220F0A94EAF7822B2E
:101780004F5F5F4F4330510559F7089521E1929F14
:10179000800D1124982F977041E001C0440F9A9555
:1017A000EAF786958695869593E0899FF001112446
:1017B000ED54FE4F90E080E070E05191DF01119711
:1017C0009B01082E02C0369527950A94E2F72170F6
:1017D00021952527242325272C93019683309105D5
:1017E00061F70895982F92959F7011F0892F94E0DA
:1017F000282F2695269511F09E5F822F869509F059
:101800009F5F892F0895CF93DF93C0912106D091D8
:1018100022068A30C1F420911804CE018B519440E5
:10182000622F70E00E94682C281B822F66E00E94C5
:101830007C2CC82FC15018F4DF91CF91089580E21D
:101840000E94030CF7CF8D30E9F4CB51D4402091A6
:101850001804622F70E0CE010E94682C281B822F92
:101860009E01280F311D2115324018F080E0D0E094
:10187000C0E0C80FD11DC55EDB4FD0932206C093D8
:101880002106DACF96E0FE01ABE1B6E001900D92C1
:101890009A95E1F7803E08F458C086E0FE01119267
:1018A0008A95E9F7C0912106D091220646E050E0E2
:1018B000BE018BE196E00E943F2D9E012B513440EA
:1018C000892B41F1C90145E0969587954A95E1F745
:1018D00041E050E0BA0102C0660F771F8A95E2F737
:1018E000CB016091190470911A04862B972BB901D2
:1018F0006B5F7F4FE5E076956795EA95E1F702C06B
:10190000440F551F6A95E2F7842B952B90931A0488
:10191000809319042A5F3F4F40911804642F70E0B0
:10192000C9010E94682C481B463010F4240F311D59
:10193000211572E0370710F030E020E0255E3B4FC4
:10194000309322062093210677CFF6E08F9FB001D7
:101950001124605A774F46E050E0CE010E94292DB5
:10196000A1CFCF93DF93EC01FE018491811103C0DD
:10197000DF91CF9108950E94030C2196F5CF8091BD
:101980001C0290911B02892B8093AA0190911D0249
:10199000992391F0892B8093AA0120E08CEA91E0B1
:1019A000FC013191CF0131112F5FF1E0823B9F07A4
:1019B000B9F721110E94610B48E050E063E172E049
:1019C0008AEA91E00E943F2D892BA9F088E0EAEA9B
:1019D000F1E0A3E1B2E001900D928A95E1F7E09188
:1019E000F103F091F203309731F00280F381E02DA2
:1019F0008AEA91E00994089590E080E00E94BC0892
:101A000090E080E00E94A60810921B020C94BF0C8C
:101A1000809317040C94FC0C80911704982F9670F7
:101A2000963019F488600C94080D877FFCCF21E074
:101A300030E001C0220F8A95EAF7209580911704C3
:101A400082230C94080D9091120280958923809333
:101A50001202282F277091F4282F082E000C330B28
:101A60009217130659F090913B0292FD07C085959D
:101A7000859585950E94170D10921202089521E018
:101A800030E001C0220F8A95EAF780911704822B7B
:101A90000C94080D80931E020C94FC0C10921C02F6
:101AA000ECEAF1E086E0DF011D928A95E9F70C94FB
:101AB000FC0C1F93CF93DF93CDB7DEB7AA970FB679
:101AC000F894DEBF0FBECDBF8CE094E02091F10012
:101AD000DC012D93CD01B4E084319B07B9F78091EF
:101AE0000D04833009F472C0B8F4813009F449C0A0
:101AF000823009F4B3C08091E80083FF8BC28091EB
:101B00000C0490910D049A3008F084C2E92FF0E0A3
:101B1000EA56F24D0C94EB2C8A3009F48EC08B30CF
:101B200009F471C0893039F780910C04813219F7BA
:101B30008091100490911104009711F00297D9F64A
:101B40008091E800877F8093E8008091E80082FF21
:101B500038C09091F3008091F200029731F48091A7
:101B6000F100813011F0863021F48091F1008093F2
:101B7000FF038091E8008B778093E8000E94840740
:101B8000BACF80910C04813A09F0B5CF8091E8007A
:101B9000877F8093E8008091100490911104892B35
:101BA00061F468E080E094E070E00E943608809183
:101BB000E8008B778093E8009ECF60E090E080E0C3
:101BC000F3CF80910A048111C0CF95CF80910C048E
:101BD000813A09F090CF8091100490911104892BE3
:101BE00009F089CF8091E800877F8093E800809199
:101BF000E80080FFFCCF809122018093F10080916A
:101C0000E8008E77B9CF80910C04813209F073CF50
:101C10008091100490911104892B09F06CCF809170
:101C2000E800877F8093E8000E94840780910E047B
:101C3000809322010E944E0D5ECF80910C04813270
:101C400009F059CF8091E800877F8093E8000E94D7
:101C5000840780910F048093FE034DCF80910C0484
:101C6000813A09F048CF8091E800877F8093E800AF
:101C70008091E80080FFFCCF8091FE03BECF8038CA
:101C800099F0823809F0C6C1809110048F708730B6
:101C900008F0C0C18093E9008091EB0085FB8827A4
:101CA00080F91092E90006C080910804909109041F
:101CB000911182609091E800977F9093E800809363
:101CC000F1001092F1008091E8008E779FC1882387
:101CD00009F48DC1823009F09DC180910E048111FB
:101CE00090C1809110048F702FEF280F263008F0DC
:101CF00091C18093E9002091EB0020FF82C19330D5
:101D000031F48091EB0080628093EB007AC1909176
:101D1000EB0090619093EB0021E030E001C0220FD6
:101D20008A95EAF72093EA001092EA008091EB008E
:101D30008860EACF81116EC110910E041F778091E7
:101D4000E3008078812B8093E3008091E800877F17
:101D50008093E8000E9484078091E80080FFFCCF18
:101D60008091E30080688093E30082E0111183E0BA
:101D700080930A044FC18058823008F04BC12091F3
:101D80000E0430910F042C3DE3E03E07A1F583E003
:101D90008A838AE289834FB7F894DE01139620E0A4
:101DA0003EE051E2E32FF0E050935700E49120FF32
:101DB00003C0E295EF703F5FEF708E2F90E0EA3046
:101DC000C0F0C7968D939D932F5F243159F74FBF75
:101DD0008091E800877F8093E8006AE270E0CE019E
:101DE00001960E9436088091E8008B778093E80086
:101DF00011C1C096E7CF8091100490911104432F38
:101E000055274330510509F44AC078F54130510552
:101E100009F47AC08BE590E0E1EDF7E0423051053E
:101E200009F0F8C02091E800277F2093E800209176
:101E30001204309113048217930708F49C0140E0C8
:101E40002115310509F065C0411163C08091E8009A
:101E500082FDC9CF80910A04882329F2853019F2C6
:101E60008091E80083FFF2CFBECF4132510509F4E3
:101E70003CC04232510509F0CDC08330910508F0D5
:101E8000C9C0FC01EE0FFF1FE556FE4F0190F08127
:101E9000E02D88569E4FDC018C9190E01AC03327CC
:101EA00021303105D1F02115310561F022303105A5
:101EB00009F0B0C0EEE3F8E0E4918E2F90E0EEE39D
:101EC000F8E007C0ECE5F8E0E4918E2F90E0ECE557
:101ED000F8E0009709F49EC0A5CFEAE4F8E0E491A9
:101EE0008E2F90E0EAE4F8E0F4CF8330910508F01B
:101EF00091C0880F991FFC01EF55FE4F0190F081B2
:101F0000E02D89E090E08ECF82E190E0ECE2F8E015
:101F100089CF80910A04882309F465CF853009F4BC
:101F200062CF8091E80083FD5ECF8091E80082FD62
:101F30008DCF8091E80080FF83CF9091F300809156
:101F4000F2002115310519F08830910550F041E07B
:101F5000089709F040E08091E8008E778093E800D0
:101F60006FCF44914093F100319621503109019691
:101F7000E8CF803809F04EC08091E800877F8093D9
:101F8000E80080910B048093F1009DCE811142C046
:101F900010910E041230F0F58091E800877F809355
:101FA000E80010930B040E948407112311F084E0D1
:101FB00005C08091E30087FDFACF81E080930A0499
:101FC00042E061EC81E00E94A30742E261EC84E020
:101FD0000E94A30742E261EC82E00E94A30742E272
:101FE00060EC83E00E94A30780910A0413C08091F3
:101FF0000E04813079F481E0933009F080E0809321
:1020000009041092E9008091E800877F8093E8003E
:102010000E9484078091E80083FF0AC08091E80055
:10202000877F8093E8008091EB0080628093EB00D3
:10203000AA960FB6F894DEBF0FBECDBFDF91CF9149
:102040001F910895882321F00E94670B0C94BF0C08
:102050000895882339F090911C02982B90931C02CC
:102060000C94BF0C0895882309F44BC0823871F496
:102070000E94D20881FF45C089E30E947B0B0E9429
:10208000BF0C89E30E946E0B0C94BF0C833859F48B
:102090000E94D20880FF35C083E50E947B0B0E941E
:1020A000BF0C83E5EFCF843859F40E94D20882FF39
:1020B00028C087E40E947B0B0E94BF0C87E4E2CF1C
:1020C0009CEF980F913AF0F290E2980F983050F40C
:1020D000877091E001C0990F8A95EAF7892F0E94D5
:1020E000670BD2CF9BE5980F933020F490E080E00F
:1020F0000C94BC08885A873120F490E080E00C945E
:10210000A6080895CF92DF92EF92FF920F931F934C
:10211000CF93DF936C017B0164E670E088E70E9457
:10212000672BEC0197FD12C010E000E0F601E00F14
:10213000F11F849164E670E00E94E12BEC01892B91
:1021400029F40F5F1F4F0E151F0581F70E94642CA5
:10215000CE01DF91CF911F910F91FF90EF90DF9013
:10216000CF9008958091ED039091EE03911103C0FB
:1021700091E089270895882369F062E070E08FE993
:1021800094E00E948210892B19F08091ED0308954C
:102190001092ED038091ED03EBCFCF93C091ED034F
:1021A0008091EE038823D1F00E949A086856754CFE
:1021B0008F4F9F4F6093E9037093EA038093EB0383
:1021C0009093EC03C11108C062E070E08DE994E0E7
:1021D0000E948210892B29F0C091ED038C2FCF91A2
:1021E000089581E08093ED03F7CF8093FA03709315
:1021F000FC036093FB0380910A048430F9F480931C
:10220000E9008FEF9091E800815095FD06C095EDB3
:102210009A95F1F700008111F5CF8091E80085FFD4
:102220000DC050E040E063E070E08AEF93E00E9470
:102230005A078091E8008E778093E8000895BC01EA
:1022400084E00C94F510BC0183E00C94F510CF935E
:10225000DF93EC0181E08093E9008FEF9091E8003B
:10226000815095FD06C095ED9A95F1F7000081111A
:10227000F5CF8091E80085FF14C050E040E068E0B1
:1022800070E0CE010E945A078091E8008E7780931B
:10229000E80088E0FE01A0E0B4E001900D928A958C
:1022A000E1F7DF91CF91089581E08093E00080E233
:1022B0008093D8001092C9008FE19EE40197F1F756
:1022C00000C0000087E090EBDC0180932306909330
:1022D0002406A0932506B093260688E19CE00FB65D
:1022E000F894A895809360000FBE90936000FFCF94
:1022F0008091E40380FD0AC0ECEDF2E011821082CF
:102300001282339653E0E43EF507C1F76A9A3EB174
:102310003B7F2EB124604FB7F8948CED92E0FC0126
:102320005191CF0168E02EB9000000C057FF3EB9BF
:10233000550F000000C000C000C03EB900C06A9543
:1023400091F7F3E0843E9F0751F74FBF8FE594E08C
:102350000197F1F700C000000895EF92FF920F93EC
:102360001F93CF93DF938C01CCEDD2E0F12CE12CC5
:10237000F80194816091E6038091E503FCE2EF1699
:10238000F104FCF49923F9F09E014091E7030E94C7
:10239000F2082FEFE21AF20A239688E5E816F10414
:1023A00039F70E947811F801848190E001968170DC
:1023B00099278483DF91CF911F910F91FF90EF9028
:1023C0000895992309F39E0140E0E1CF8F929F92F7
:1023D000AF92BF92CF92DF92EF92FF920F931F9333
:1023E000CF93DF93EC014C81042F10E09801D801CA
:1023F0000E94002D9B01AC010E94162D4B015C0137
:10240000E0E2F0E0E01BF10BA5E5B0E0AC019B01E0
:102410000E94162D6B017C019F01DF010E94F82CA8
:102420009B01AC010E94212D9B01AC01280D391D9F
:102430004A1D5B1DC701B6010E94AA2CF22E822FF5
:1024400090E039E23F15D8F143E0249F9001112438
:1024500035952795122F10959CEDC92E92E0D92E17
:1024600000E085E5E82EEF188E2D01FD8F2D9601F9
:10247000412F6091E6030E94F2080F5F53E0C50E02
:10248000D11C083589F70E9478119C8181E099233D
:1024900019F0903219F48FEF80932101809121017E
:1024A000890F8C83DF91CF911F910F91FF90EF9057
:1024B000DF90CF90BF90AF909F908F90089525E5CB
:1024C00030E0A901481B590BCA019A01220F331FA2
:1024D000280F391F37FFBCCF2F5F3F4FB9CF0F9366
:1024E0001F93CF93DF93CCEDD2E0FE0111821082D7
:1024F0001282339683E0E43EF807C1F710E000E073
:102500008091DA02082E000C990B081719078CF13C
:1025100080912001082E000C990B801791074CF137
:102520009E014091E7036091E6038091E5030E94DC
:10253000F2080F5F1F4F23960835110509F70E9417
:10254000781180911F019091DA02980F9093DA022E
:1025500020912001280F20932001121614F49735A2
:102560001CF0819580931F01DF91CF911F910F91F6
:102570000895198218821A82DCCFBF92CF92DF921F
:10258000EF92FF920F931F93CF93DF93FC01828111
:10259000DD24DA9480FD02C0DD24D3940CED12E03A
:1025A000D0E0C0E028E5B22EF8011182108212823C
:1025B00094E0E92EF12CC12C8091D9028C0D893543
:1025C0000CF43DC06B2D0E94882C892F082E000C26
:1025D000990B8C179D0791F48091E7038E9DA001C4
:1025E0008F9D500D11245595479555954795980108
:1025F0006091E6038091E5030E94F208CD0CF1E0C2
:10260000EF1AF108C9F621960D5F1F4FC835D105A5
:1026100059F60E9478118091D90291E0D91215C023
:10262000811111C087E58093D902DF91CF911F916D
:102630000F91FF90EF90DF90CF90BF90089587FFAC
:10264000C5CF885AC3CF8150EECF90E00196BE012E
:102650000E94962CE8CFEF92FF921F93CF93DF93C7
:10266000EC018CEDE82E82E0F82E10E08C819701D1
:102670004091E7036091E603810F0E94F2081E5F1C
:1026800083E0E80EF11C103B89F70E9478119A81D3
:102690008C8190FF08C08F5F8C83DF91CF911F9159
:1026A000FF90EF9008958150F7CF9091E40390FF51
:1026B0000CC0ECEDF2E0818360834283339693E0BB
:1026C000E43EF907C1F70C94781108950F931F9316
:1026D000CF93DF9300D00F92CDB7DEB78C018091FE
:1026E000DB0281110AC09E012F5F3F4F4FEF6FEF5A
:1026F0000E94F2088A818093DB02F80164816130D4
:1027000069F08091DB0240E0662361F040E06230D6
:1027100011F44091DB0280E060E004C06091DB02D4
:1027200040E080E00E945513F801848190E001961A
:1027300063E070E00E94962C84830F900F900F90BE
:10274000DF91CF911F910F910895CF93DF9300D028
:102750000F92CDB7DEB79091E40390FF0AC09E01BF
:102760002F5F3F4F0E94F2084B8169818A810E944E
:1027700055130F900F900F90DF91CF910895CF9345
:10278000DF93EC01E4EEF3E0438162818C810E94EF
:10279000A5138C818F5F8C83DF91CF910895CF93A8
:1027A000DF93EC01EC81F0E0E356FC4F4491E4EE62
:1027B000F3E0628181810E94A5138C818F5F8C83FD
:1027C000DF91CF910895CF93C82F882309F488C053
:1027D0008238C1F40E94D20881FD82C089E30E9440
:1027E0007B0B0E94BF0C2FEF81EE94E021508040C4
:1027F0009040E1F700C0000089E30E946E0BCF918A
:102800000C94BF0C8338A1F40E94D20880FD68C0EC
:1028100083E50E947B0B0E94BF0C2FEF81EE94E0BA
:10282000215080409040E1F700C0000083E5E5CFF3
:102830008438A1F40E94D20882FD52C087E40E942D
:102840007B0B0E94BF0C2FEF81EE94E02150804063
:102850009040E1F700C0000087E4CFCF8CEF8C0FF1
:10286000813A68F4ECEAF1E08191C81799F121E02E
:10287000E23BF207C9F78C2F0E947B0BC0CF80E2AE
:102880008C0F883068F4C77021E030E001C0220F5F
:10289000CA95EAF780911C02822B80931C02AFCF6D
:1028A000EBE5EC0FE33040F4F0E0ED5DFE4F8081AE
:1028B00090E0CF910C94BC08C85AC73188F4EC2F33
:1028C000F0E0EE0FFF1FEA5DFE4F80819181CF9116
:1028D0000C94A6088C2F0E946E0B0E94BF0CCBCFCD
:1028E000CF9108951F93CF93DF93182FD0E0C0E0CE
:1028F000893311F4C0E5D0E0812F0E94E3132097C3
:1029000031F4812FDF91CF911F910C9433108FE917
:102910009FE00197F1F700C000002197F0CFCF931F
:10292000DF93C7E5D3E060E0CE010E94602D2196E1
:10293000C11584E0D807B9F7DF91CF9108956F9260
:102940007F928F929F92AF92BF92CF92DF92EF923F
:10295000FF920F931F93CF93DF9381EAC82E84E0F9
:10296000D82E95E1E92EFF24F394E701CC5CD10940
:1029700036011BC0F50185909490692DC8010E9415
:10298000602D682DC80101960E94602D82E0A80E7E
:10299000B11C0E5F1F4FC017D10761F782E2680EAE
:1029A000711CA296CE15DF0529F08E010252110985
:1029B0005301E0CF7E018CECE80EF11C8CECC80ECC
:1029C000D11C85E4E81684E0F80679F6DF91CF9112
:1029D0001F910F91FF90EF90DF90CF90BF90AF903D
:1029E0009F908F907F906F900895CF93C82F6FEF37
:1029F000811162E283E290E00E94602D6FEFC111CD
:102A000063E084E290E00E94602D6FEFC11160E30B
:102A100085E290E0CF910C94602D80E00E94F51447
:102A200060E086E290E00E94602D0E949F140E9468
:102A30008F1481E00C94F514CF93C0913B02C2FB3C
:102A4000992790F9981799F080FBC2F9C0933B023F
:102A500060913A0284E090E00E94602D6C2F82E247
:102A600090E00E94602D82E0CF910C94230DCF91D5
:102A700008950F931F93CF93DF93C42FD0E0CC0F13
:102A8000DD1F22E2629FC00DD11D11243CEC839F0B
:102A9000C00DD11D1124CE0187960E944C2D082F08
:102AA00010E0102F0027CE0188960E944C2D98012F
:102AB000282BC901DF91CF911F910F910895462FC7
:102AC000843038F4763028F4613118F4672F0C9490
:102AD000391590E080E00895CF92DF92FF920F9336
:102AE0001F93CF93DF936C010091170480911E0216
:102AF000082BC7E0D0E010E0FC2EC8010C2E02C06D
:102B0000959587950A94E2F780FD0CC02197A0F770
:102B1000F12C8F2DDF91CF911F910F91FF90DF90BE
:102B2000CF900895B6018C2F0E945F150E94E40992
:102B3000019761F3EECFCF93DF93EC010E946C1508
:102B4000BE010E945F15DF91CF910C94E409FC0156
:102B5000808191810E949B1592959F70963091F093
:102B600058F4925F9F70923058F4803F19F030F41F
:102B7000883E30F481E008959A5FF4CF843FD1F32A
:102B800080E00895883EB0F3813FD1F7F3CF83E230
:102B900090E00E944C2D823289F484E290E00E9401
:102BA0004C2D833059F485E290E00E944C2D91E049
:102BB000803309F090E0892F8170089580E0FCCF88
:102BC000CF9384E090E00E944C2DC82F82E290E0E9
:102BD0000E944C2D982F8C2FCF910895CF92DF9289
:102BE000EF92FF926B017C010E94E308B701A601FE
:102BF00088E090E0FF90EF90DF90CF900C94722DE2
:102C00005F926F927F928F929F92AF92BF92CF927C
:102C1000DF92EF92FF920F931F93CF93DF9300D039
:102C20000F92CDB7DEB7182F762E042F622E90911B
:102C3000E40390FF29C0E92FE695AE2FB0E0AD5830
:102C4000BE4F8C918093D7029E7F923081F59E017A
:102C50002F5F3F4F812F0E94F2084B8169818A814B
:102C60000E9455131093E5037092E6030093E70367
:102C7000662051F06091E4037091E5038091E603D2
:102C80009091E7030E94EE150F900F900F90DF9147
:102C9000CF911F910F91FF90EF90DF90CF90BF9059
:102CA000AF909F908F907F906F905F90089582304B
:102CB00019F40091E703D6CF863019F41091E5039B
:102CC000D1CF8930D9F3893169F6E9518E2F8170DE
:102CD000582EE695F0E0E856FC4FA590B490BB2442
:102CE0008CEDE82E82E0F82ED12CC12C98E5892EAF
:102CF000912CC601B4010E94682C812F511013C081
:102D0000860F9701402F672D0E94F208CA0CDB1C2A
:102D100083E0E80EF11C84EEE81683E0F80649F73C
:102D20000E9478119FCF861BECCFE4EEF3E0438145
:102D300028E0421B08F440E021E0628181810C948C
:102D40000016E4EEF3E0438128E0420F08F44FEF71
:102D500021E0628181810C940016E4EEF3E062814F
:102D600028E0621B08F460E021E0438181810C943B
:102D70000016E4EEF3E0628128E0620F08F46FEFE2
:102D800021E0438181810C940016E4EEF3E081811F
:102D900021E04381628188500C940016E4EEF3E058
:102DA000818121E043816281885F0C9400168091CB
:102DB000E803882319F081508093E8036091E403CD
:102DC0007091E5038091E6039091E7030C94EE1572
:102DD0008091E803833018F48F5F8093E80360915B
:102DE000E4037091E5038091E6039091E7030C946E
:102DF000EE15E4EEF3E083E0808311828FEF8283AF
:102E00008383148260817181828193810C94EE1599
:102E100069EE7EEF90E080E00E947E2D60E082E02F
:102E200090E00E94602D60E083E090E00E94602DC1
:102E300010921E0260E084E090E00E94602D60E04D
:102E400082E290E00E94602D60E085E090E00E94C8
:102E5000602D60E086E090E00E94602D6FEF87E0DB
:102E600090E00E94602D40E050E0BA0188E090E0E0
:102E70000E94722D60E08DE090E00E94602D40E0A5
:102E800050E0BA0188E190E00E94722D60E087E195
:102E900090E00E94602D40E050E0BA018CE190E0AB
:102EA0000E94722D70E060E080E290E00E947E2D32
:102EB00040E050E0BA0188E190E00E94722D80E08D
:102EC0000E94F5140E940D1540E050E0BA018FE019
:102ED00090E00E94722D40E050E0BA0183E190E062
:102EE0000C94722D90E080E00E945A2D893E9E4FF6
:102EF00011F40C94C71580E008951F920F920FB63D
:102F00000F9211242F933F934F935F936F937F936F
:102F10008F939F93AF93BF93CF93DF93EF93FF93E1
:102F2000D091E900DF708091EC00C82FC17080FD66
:102F3000C0E81092E9008091F000877F8093F00054
:102F400078940E94590D1092E9008091F0008860F9
:102F50008093F000CD2BCF70C093E900FF91EF91EB
:102F6000DF91CF91BF91AF919F918F917F916F91A1
:102F70005F914F913F912F910F900FBE0F901F9037
:102F800018951F920F920FB60F9211242F933F9313
:102F90004F935F936F937F938F939F93AF93BF9361
:102FA000EF93FF938091E10082FF09C08091E200DE
:102FB00082FF05C08091E1008B7F8093E1008091CA
:102FC000DA0080FF24C08091D80080FF20C080916B
:102FD000DA008E7F8093DA008091D90080FF9DC057
:102FE00080E189BD82E189BD09B400FEFDCF81E0A9
:102FF00080930A048091FD03811109C00E940A0791
:103000000E94D5078091E20084608093E200809165
:10301000E10080FF17C08091E20080FF13C0809123
:10302000E2008E7F8093E2008091E20080618093D5
:10303000E2008091D80080628093D80019BC85E0BE
:1030400080930A048091E10084FF2BC08091E2000C
:1030500084FF27C080E189BD82E189BD89B5982FB1
:10306000917080FFFBCF8091D8008F7D8093D80036
:103070008091E1008F7E8093E1008091E2008F7E5D
:103080008093E2008091E20081608093E200809171
:103090000B04882309F447C084E080930A048091DC
:1030A0000A048091E10083FF27C08091E20083FF42
:1030B00023C08091E100877F8093E10082E08093CC
:1030C0000A0410920B048091E1008E7F8093E1004E
:1030D0008091E2008E7F8093E2008091E200806127
:1030E0008093E20042E060E080E00E94A3078091CC
:1030F000F00088608093F000FF91EF91BF91AF9155
:103100009F918F917F916F915F914F913F912F91FF
:103110000F900FBE0F901F90189519BC10920A04C3
:103120001092FD0374CF8091E30087FD93E09093AC
:103130000A04B5CF78941F921FB61F9211248F9363
:103140009F93AF93BF938091F6039091F703A09163
:10315000F803B091F9030196A11DB11D8093F60308
:103160009093F703A093F803B093F903BF91AF9145
:103170009F918F911F901FBE1F9018959C014FB774
:10318000F8948091F6039091F703A091F803B09121
:10319000F9034FBF821B930B08952FB7F8948091CA
:1031A000F6039091F703A091F803B091F9032FBFB4
:1031B00008950F931F93CF93DF93C62FD42F022F21
:1031C000FC0182818823A1F0609316040E94CD182F
:1031D0009093150480931404C77081E001C0880F98
:1031E000CA95EAF7DF91CF911F910F910C942910A6
:1031F00080911604681335C08091140490911504D1
:103200000E94BE18883C910560F510E21D0FCD1795
:10321000B9F080E28C0F883040F4C77081E001C0C3
:10322000880FCA95EAF70E942210183048F481E00E
:103230009D2F977001C0880F9A95EAF70E94291078
:10324000802F0E947214183098F4D77081E001C06A
:10325000880FDA95EAF7DF91CF911F910F910C94C7
:103260002210C77081E001C0880FCA95EAF7F3CF3A
:10327000DF91CF911F910F9108956091E4036695BE
:1032800070E04BE050E084E191E00E94322D892B08
:1032900019F481E08093D8020E94CD189093D20255
:1032A0008093D10208959091E40390FF36C091700D
:1032B000811129C092609093E403662351F06091DC
:1032C000E4037091E5038091E6039091E7030E9487
:1032D000EE156091E403669570E04BE050E084E108
:1032E00091E00E94322D892BA9F01092D80281E042
:1032F0008093D40220E04091E7036091E60380913F
:10330000E5030C940016853210F09864D4CF880F32
:10331000982BD1CF0E943D19EACF08958091E40304
:103320008695815009F484E261E00C9453198091F0
:10333000E40386958F5F853208F081E061E00C94AC
:1033400053199091E40390FF07C09695981720F0C9
:10335000961710F40C94971961E00C9453193F924E
:103360004F925F926F927F928F929F92AF92BF9295
:10337000CF92DF92EF92FF920F931F93CF93DF9341
:1033800000D000D00F92CDB7DEB78C01FC01838155
:103390009481892B31F08081918189238F3F09F0BD
:1033A000ADC50F900F900F900F900F90DF91CF91C0
:1033B0001F910F91FF90EF90DF90CF90BF90AF9053
:1033C0009F908F907F906F905F904F903F90089567
:1033D0000E946C15F82E682F89819A810E94C60B75
:1033E00069817A818F2D0E945F157C01F80122810D
:1033F000222309F476C590568115F0E29F0750F01C
:10340000905E811530E1930728F0915C81159F4112
:1034100008F077C0C7019927AC01445051094432E4
:10342000510518F08B970E9780F4E0915E02F0E062
:10343000EE0FFF1FED59FD4F808191818F3F3FE7D8
:10344000930719F0019691838083C70182519F45AC
:10345000409708F019C58FEF93E00E944C2D811121
:1034600029C08EEEE80E57E5852E53E0952EE1102B
:1034700052C01C821B82442443944AE0342E7401BF
:10348000FFEFEF1AFF0AC4010E944C2D89831A82B4
:10349000882381F09FEF980F933008F04AC08A8309
:1034A000498222E0820E911CC7010E944C2D8B8321
:1034B000811140C080911202877009F472CFF80127
:1034C0008281882309F46DCF80913B0282FD69CF10
:1034D00082E00F900F900F900F900F90DF91CF919F
:1034E0001F910F91FF90EF90DF90CF90BF90AF9022
:1034F0009F908F907F906F905F904F903F900C9433
:10350000230D90E080E0FFEFEF16F10411F008F0DA
:1035100083CFC70181CF811494E0990659F2C40189
:103520000E944C2D811101C0EA94EFEF8E1A9E0A81
:103530009ECF4701CE0101967C01F7012081222315
:1035400009F49DCF213009F047C0918182819130EB
:1035500031F4F2E0EF0EF11C0E94721407C09230B9
:1035600049F422E0E20EF11C0E94E3133FEFE31A5C
:10357000F30AE3CF933031F432E0E30EF11C0E9402
:103580003310F4CF943021F08FEFE81AF80AEECF21
:1035900092E0E90EF11C30E020E0B7016F5F7F4F51
:1035A000F70141818053990B8A30910550F02150E9
:1035B0003109E0F28FE99FE00197F1F700C00000C8
:1035C000F6CF329EF001339EF00D11249C012E0F98
:1035D0003F1F842F7B01E1CFE22FF0E0E059FE4F47
:1035E0005490822F86958695869590E0FC01E05A4E
:1035F000FE4F64902770712C022E02C07594679460
:103600000A94E2F7E1E06E227724FC01E05BFE4FD2
:10361000A490B12C022E02C0B594A7940A94E2F7AC
:10362000F1E0AF22BB24FC01E05CFE4FC490D12C42
:1036300002C0D594C7942A95E2F721E0C222DD2486
:103640006114710419F081EE0E94E313A114B10416
:1036500019F086EE0E94E313852D0E947214AB28A8
:1036600019F086EE0E943310672819F081EE0E944F
:103670003310CD2809F47ACF8CE26ECF81E00E941E
:103680003F0D0E940C0D16CF81E00E94170DF9CF5F
:10369000222309F431C482E0F2CF85EFE8168CE5ED
:1036A000F80609F469C008F463C0E6EFEE16ECE52D
:1036B000FE0609F465C0222309F431C410921604F1
:1036C000F3E0EF16FDE5FF0608F061C02AEFE21611
:1036D0002CE5F20630F4C70182509C45449708F06F
:1036E00062C00E94E01590933B0280933A0291E100
:1036F000E9169CE5F90609F441C108F0B3C0F9E008
:10370000EF16FCE5FF0609F423C108F078C035E0A8
:10371000E3163CE5F30609F413C108F05AC093E040
:10372000E9169CE5F90609F401C108F005C180918C
:103730003A028160F2E0EF16FCE5FF0609F4F9C0F9
:1037400060913A02F0903B0284E090E00E94602D8C
:103750006F2D82E290E00E94602D0E944E0DAACE55
:1037600027E245EE65EEB9C326E241EE60EEB5C351
:1037700027E245EE64EEB1C326E241EE62EEADC350
:1037800027E245EE66EEA9C328E241E0EBCF31E641
:10379000E3163DE5F30609F4A4CF85EAE8168DE5C6
:1037A000F80609F49ECF26E1E2162CE5F20609F0B0
:1037B000C4C380911C028A7A91E009F490E090934E
:1037C000B201811105C189E20E947B0B0E94BF0CEE
:1037D00071CE80913A02806227E0E2162CE5F20673
:1037E00009F4A7C080913A02806138E0E3163CE515
:1037F000F30608F49EC080913A0280649AC08DE07E
:10380000E8168CE5F80609F4ADC0B0F480913A02F0
:103810008E7FEBE0EE16ECE5FE0609F48AC080919F
:103820003A028C60FCE0EF16FCE5FF0608F481C06C
:1038300080913A028D7F7DC080913A028F7E2FE089
:10384000E2162CE5F20609F474C080913A02877FF3
:1038500030E1E3163CE5F30608F46BC080913A02D0
:103860008F7D67C08DEFE8168CE5F80609F482C0FD
:1038700078F5E5E1EE16ECE5FE0609F489C0A0F462
:1038800080913A02837F23E1E2162CE5F20609F4E7
:1038900050C008F477C00E944E0D90913A02892FD3
:1038A00097FB87F9805845C08BEFE8168CE5F80642
:1038B00009F44AC008F05AC080913B028160EAEFE7
:1038C000EE16ECE5FE0609F03BCF80933B0238CFC5
:1038D000F1E0EF16FDE5FF0609F466C098F480916B
:1038E0003B028C7F3FEFE3163CE5F30671F3B0F14A
:1038F00080913B02982F909591708E7F892B90FB41
:1039000081F9E3CF91E6E9169DE5F90609F452C085
:10391000E5EAEE16EDE5FE0609F453C0F2E0EF1617
:10392000FDE5FF0609F00CCF60E03FC080913A0250
:10393000826080933A0204CF80913A028460F9CF8A
:1039400080913A028860F5CF80913B028260BDCFC2
:103950000E944E0D80913A028068EBCF80913B022D
:103960008360B3CF80913A028B7FE3CF80913B029B
:103970008E7FABCF80913B028D7FA7CF80913A02A3
:103980008F7BD7CF0E944E0D80913A028F77D1CF97
:1039900080913A0282FB992790F921E0922790FBCF
:1039A00082F990FB83F9C5CF61E08EE090E00E9440
:1039B000602DC6CE90913A02892F8F7E94FF806150
:1039C000B8CF90913A02892F8E7F90FF8160B1CF5E
:1039D00085E3FACE85E3AEC281608093E40361E0C3
:1039E00086950E94531966CD4EE859E167E979E161
:1039F0000E94DE085FCD47E959E16EE879E1F8CF32
:103A00004EEC56E165EC76E1F3CF4DEA56E169EB19
:103A100076E1EECF45E956E161EA76E1E9CF41EAA8
:103A200056E165E976E1E4CF48EE56E167ED76E1EF
:103A3000DFCF61E081E0D5CF65E082E00E94A1198F
:103A400039CD68E086E0FACF64E18FE0F7CF67E137
:103A500085E1F4CF62E289E1F1CF61E083E2C1CF99
:103A60000E944E0DEFEFF4E32CE0E150F0402040D7
:103A7000E1F700C000000E94541181E084C280E0A0
:103A800082C2C7010E949E0BD82E8EC22F2D2F708E
:103A9000C22E8F2D807F19F0C29490EFC922DD20B5
:103AA000B9F0CC2069F080E28E0D883010F08110E2
:103AB00009C080911C02C82AC0921C020E94BF0C3F
:103AC0008E2D4DC080911B02C82AC0921B02F6CFDA
:103AD0008E2D0E943310CC2009F443C080E28E0D5D
:103AE000883010F0811004C08C2D0E94670B06C036
:103AF000C09480911B02C822C0921B020E94BF0C7E
:103B000030C03F2D3F70C32E8F2D807F803219F043
:103B1000C29480EFC822882089F081E0881609F4D9
:103B20007FC0DD2009F489C0BB2009F47FC0F80103
:103B3000858180FFC5CF8F70858378C020913B023F
:103B400022FF4BC0DD2009F442C0CC2039F0809127
:103B50001C02C82AC0921C020E94BF0C80E00E9476
:103B6000E313292D2850330B2430310510F40E9423
:103B7000D208AA2009F415CC8091120280FD11CC44
:103B8000F80112828595859585950E943F0DC801A3
:103B90000E94AF19809112028595859585950F90A9
:103BA0000F900F900F900F90DF91CF911F910F9179
:103BB000FF90EF90DF90CF90BF90AF909F908F904D
:103BC0007F906F905F904F903F900C94170D80E026
:103BD0000E943310CC2029F287CFDD20A1F09091F4
:103BE0001D028C2D892BB11003C00E942910B9CF62
:103BF000E1E0BE12FACF22FDB4CF981709F4B1CF9D
:103C000080931D02AECFB11006C00E94610B8C2DB7
:103C10000E942210A6CFF1E0BF1609F4A2CFF5CF83
:103C2000DD2031F025E02B1508F49BCF8C2DDDCF66
:103C300034E03B1508F495CFEACFBB2041F3F9E31C
:103C40008F1209C02FEF37EE83E0215030408040C3
:103C5000E1F700C000008E2D0E94331082CF8F2D1F
:103C600086958695837061F0813009F07ACFC7011F
:103C70009370D11002C090E080E00E94A60871CF3E
:103C8000C7019370D11002C090E080E00E94BC0890
:103C900068CF8F2D837091F5D11063CF4E2D429553
:103CA00046954770440F440F8E2D8F70042E01C02F
:103CB000880F0A94EAF72E2D2071E4FE07C02FE04A
:103CC00030E001C0220F4A95EAF720953F2D369546
:103CD00036953370323069F050F440911E02313025
:103CE00029F0822B84230E944A0D3BCF842B822B08
:103CF000FACF282B80911E028227F5CF8695DD20F2
:103D000011F08F2D8170882309F42BCF4E2D429511
:103D100046954770440F440F8E2D8F70042E01C0BE
:103D2000880F0A94EAF72E2D2071E4FE07C02FE0D9
:103D300030E001C0220F4A95EAF720953F2D3695D5
:103D400036953370323069F050F4409117043130B9
:103D500029F0822B84230E94080D03CF842B822B11
:103D6000FACF282B809117048227F5CF9F2D9F70C3
:103D7000F92EDD2029F0892F0E943F0D8E2D35CFA1
:103D80008E2D0E9422108F2D0E94170DEACE8E2DAF
:103D9000E2EF8E16B1F1E81570F0F0EF8F16D1F06A
:103DA00021EF821691F0DD2009F45EC0B11088CEBB
:103DB0008F2D8F712AC033EF831651F194EF891242
:103DC000F2CF80913B0282FF2FC08F2D8F71DD20BB
:103DD000D9F21BC0DD2081F0E4E0EB1508F4C1CE80
:103DE0002F2D2F7181E090E001C0880F2A95EAF70E
:103DF000909117048927AFCFF5E0FB1508F4B1CEF9
:103E0000EFCF8F2D8F71D110BFCF0E943F0DA9CE64
:103E100080E0DD2009F49FCF9F2D9F7181E001C0DC
:103E2000880F9A95EAF797CFDD2099F02F2D2F7103
:103E3000F22E822F0E943F0D80913B0282FD07C02F
:103E400038E0F39EC00111248360809312028F2D0D
:103E5000DCCF81E00E94230D81E08B1508F081CE3C
:103E600082E00E94230D7DCEBB2059F0893309F0FA
:103E7000F2CE9FEFE7EEF3E09150E040F040E1F743
:103E8000E8CE8F2D8F7180CFF0E1EF16FFE5FF06B2
:103E900009F4F4CB31E1E3163FE5F30609F4F8CB7E
:103EA00083EFE8168CE5F80609F45ECC08F0F5CB54
:103EB000E8EDEE16ECE5FE0609F452CCF9EDEF164E
:103EC000FCE5FF0609F460CC37EDE3163CE5F306AC
:103ED00009F0F1CB26E241EE61EEC8010E94D9184B
:103EE000E9CA80E1E8168FE5F80609F4CDCB91E147
:103EF000E9169FE5F906A1F682E0C7CB85E0DE0171
:103F0000119601900D928A95E1F7F801228189813D
:103F10009A8121115DCA0E949E0BF82E61CAF6E1BA
:103F2000EF16FCE5FF0609F078C08091B20181111F
:103F300051CD89E20E946E0B49CC2AE5E2162DE5AF
:103F4000F20609F49ACD68F4E1148CE5F80609F458
:103F500087CD9EEDE9169CE5F906B9F40E94081795
:103F6000A9CAEBE5EE16EDE5FE0609F488CDFCE501
:103F7000EF16FDE5FF0649F480913B0282FB88279E
:103F800080F991E089270E941C15F8018281E08068
:103F9000F180882309F475CDC7010E946C15D82ED5
:103FA000682FC7010E94C60BB7018D2D0E945F15B7
:103FB0000E94E4097C01882EF801D280B580B29479
:103FC0003FE0B322809112028770C1F0AD2CDD205A
:103FD000B1F08F2D807F803421F080E28E0D88300B
:103FE00068F080913B0282FD09C082E00E94230DAF
:103FF000809112028770AA24A3948111A12C9F2C76
:1040000092942FE09222FBE0F91508F4AACDE92D55
:10401000F0E0E056F24D0C94EB2C80911C02827281
:104020002CECE2162CE5F20609F4FECC08F06DC08B
:1040300096ECE9169CE5F90609F4E2CCE8F5F3EC18
:10404000EF16FCE5FF0609F4CFCC28F532ECE316B9
:104050003CE5F30609F099CF8091E40380FFBCCCE6
:104060008E7F8093E4036091E4037091E503809177
:10407000E6039091E7030E94EE151092D8023FEFFD
:1040800080E792E0315080409040E1F700C00000AE
:104090000E9478110FCA94ECE9169CE5F90609F420
:1040A000AACC45EC56E16EEC76E1E5ECEE16ECE5DB
:1040B000FE0609F49DCC69CFF9ECEF16FCE5FF068E
:1040C00009F4A8CC88F437ECE3163CE5F30609F4D0
:1040D0009CCC49EB56E16DEA76E198ECE9169CE55B
:1040E000F90609F485CC51CFEAECEE16ECE5FE06B4
:1040F00009F495CC47ED56E168EE76E1FBECEF165E
:10410000FCE5FF0609F474CC40CF21EDE2162CE566
:10411000F20609F499CCB8F48EECE8168CE5F806B2
:1041200009F48ACC08F485CCEFECEE16ECE5FE063B
:1041300009F487CC6EE089E0F0EDEF16FCE5FF06B0
:1041400009F47CCC22CF24EDE2162CE5F20609F42A
:1041500081CC78F482EDE8168CE5F80609F477CC8A
:1041600061E088E193EDE9169CE5F90609F439CCA4
:104170000CCFE5EDEE16ECE5FE0609F46ECCFDE5A0
:10418000EF16FF0609F496C900CF1F93CF93DF9374
:104190008091DF01807FA9F48091DC01882389F080
:1041A00080911102D091E0016091DA017091DB0100
:1041B000A091DD01B091DE01C62FC72316E0D81310
:1041C00004C0DF91CF911F91089590E0109711F0F6
:1041D000CF3F19F401968770F2CF189F9001199F75
:1041E000300D1124F901EF51FE4F41814713F2CFF9
:1041F00040814613EFCF42814111ECCF438154817E
:104200004A1B5B0B483C510528F78091DF018F70FA
:1042100080618093DF01F901EA51FE4F80818F7048
:10422000806180838AED91E00E94AF19DF91CF9188
:104230001F910C94940BAF92BF92CF92DF92EF92AA
:10424000FF920F931F93CF93DF93CDB7DEB76197A4
:104250000FB6F894DEBF0FBECDBF8C0185E0F8012C
:10426000DE011D9601900D928A95E1F7F801E2803A
:104270008AEDA82E81E0B82E6091DD017091DE01FB
:104280006115710509F432C19091DA014091DB01A9
:10429000892F84238F3F09F429C120813181C38074
:1042A000D480F090DC01F601E61BF70BFF2009F447
:1042B000E8C08091DF01582F507FE83CF10508F0FD
:1042C000ABC0511177C0FE2C431321C092131FC005
:1042D000E1101DC08F7080618093DF01C5010E94D5
:1042E000AF198091DF01F80185838F2D61960FB69C
:1042F000F894DEBF0FBECDBFDF91CF911F910F911C
:10430000FF90EF90DF90CF90BF90AF900895CD28B1
:1043100029F0822F83238F3F09F003C180E0F82F1B
:10432000F170DF2E80FF3CC0809111024091E001CE
:1043300056E0841315C02D873E878D859E850E948B
:104340009B15292F22952F702230F0F0243018F57C
:104350009F70F1F0F8019581907FD1F4D12C1EC0AF
:1043600090E0589FF001599FF00D1124EF51FE4F3E
:104370006181361306C06081261303C06281E61294
:104380000FC001968770D5CF9F7011F0882331F34D
:10439000805E883018F3C8010E94AF19FD2CA5CFAC
:1043A000EE2009F4A2CF8091DF0181608093DF01CC
:1043B000F12C9BCF431306C0921304C0F801EE20EA
:1043C00009F479C0C8010E94A715882309F1EE20DD
:1043D000F9F08091DF01803270F02091DA013091A4
:1043E000DB0138872F831986DB86CA868C87CE014E
:1043F00007960E94AF1986E0F801AAEDB1E001909E
:104400000D928A95E1F70E94C520FF24F3946DCFA9
:10441000C8010E94AF19F9CF51110AC08AED91E08D
:104420000E94AF1986E0F50111928A95E9F7C0CF95
:1044300043130FC092130DC0E1100BC0F801858328
:10444000C8010E94AF1986E0F50111928A95E9F73B
:104450004CCFC8010E94A7158823D1F2EE20C1F2EB
:104460008091DF01803238F22091DA013091DB0156
:104470003A8329831B82DD82CC828E83CE01019612
:10448000B8CFE83CF105F8F6FE2CEE2009F2431314
:104490001FC092131DC08091DF0180FD10C0982FB6
:1044A000907F69F0F8018583903F31F0982F907FDD
:1044B000905F8F70892B8583C8010E94AF1986E0B9
:1044C000F801AAEDB1E001900D928A95E1F70DCFC8
:1044D000C8010E94A71581118ECF8091DF018160F4
:1044E0008093DF01C8010E94AF19FFCEEE2009F4CE
:1044F0008FCFC8010E94A715F82E882309F488CF12
:1045000086E0F801AAEDB1E001900D928A95E1F7FD
:104510008091DA019091DB010E949B150E94C520D9
:10452000E4CE81E08E25FBCE1F93CF93DF93CDB7F2
:10453000DEB767970FB6F894DEBF0FBECDBF4B8BCB
:104540005C8B6D8B7E8B8F8B611110921B021A8A94
:10455000198A85E0FE017396DE011D9601900D9289
:104560008A95E1F786E0FE013D96DE0117960190FF
:104570000D928A95E1F7CE0107960E941B218823B0
:1045800089F016E0809111029091E001891349C0F1
:1045900067960FB6F894DEBF0FBECDBFDF91CF9107
:1045A0001F91089586E0FE013796DE011196019075
:1045B0000D928A95E1F78A859B85892B11F38F816E
:1045C000988589238F3FE9F22091E00130E0C9010D
:1045D000019687709927409111024817190671F4C6
:1045E0000E944E0D1092E0011092110286E0EAED59
:1045F000F1E0DF011D928A95E9F7C3CF96E0929F23
:10460000D001939FB00D1124AF51BE4FFE013196E2
:1046100001900D929A95E1F78093E0010E94940B2E
:10462000B0CF819FC00111248F519E4F0E941B214A
:10463000882309F4ADCF8091110290E00196877034
:104640009927809311029ECF4F925F926F927F9233
:104650008F929F92AF92BF92CF92DF92EF92FF9292
:104660000F931F93CF93DF93CDB7DEB768970FB645
:10467000F894DEBF0FBECDBF8E010F5F1F4F88E1E4
:10468000F80111928A95E9F794E5E92E91E0F92E67
:104690006801AA24A394B12C3BE6832E31E0932E2B
:1046A000F70181917F018F3F09F44FC0F894E82F03
:1046B000E295EF70F0E021A18F70A50102C0440FD8
:1046C000551F8A95E2F7CA01922F982B91A392A1C8
:1046D0008095892382A3789400C0EAE5F1E041E067
:1046E00050E060E070E0412C512C320121912F3FCD
:1046F00009F46EC0A22FA295AF70B0E090968C9195
:1047000090E02F7002C0959587952A95E2F780FD7D
:104710005FC0DB01CA01482A592A6A2A7B2A440F52
:10472000551F661F771F8E169F0601F7F7013197F9
:1047300080818F3F11F00E948A0950EA5A95F1F763
:10474000F6014082518262827382F4E0CF0ED11C66
:104750004AE5E41641E0F40609F0A2CF48E150E052
:10476000B80182E292E00E943F2DFF24F39400976B
:1047700009F4F12C892B81F188E1F801A2E2B2E081
:1047800001900D928A95E1F781E0809321020E94C9
:10479000CD189093200280931F0280911F02909168
:1047A00020020E94BE180597D8F0E2E2F2E0A9EBE1
:1047B000B2E041915191619171914D935D936D93EF
:1047C0007D9352E0EA33F507A1F71092210208C069
:1047D00080E090E0DC019FCF809121028111DDCF4C
:1047E0008F2D68960FB6F894DEBF0FBECDBFDF9158
:1047F000CF911F910F91FF90EF90DF90CF90BF90DE
:10480000AF909F908F907F906F905F904F900895A2
:104810001F921FB61F9211248F939F93AF93BF9344
:104820008091F503811113C08091F6039091F703F5
:10483000A091F803B091F9034196A11DB11D809399
:10484000F6039093F703A093F803B093F903BF9195
:10485000AF919F918F911F901FBE1F901895CDB75C
:10486000DEB7AF970FB6F894DEBF0FBECDBF84B7EB
:10487000877F84BF0FB6F894A89580916000886107
:1048800080936000109260000FBE80E890E00FB649
:10489000F89480936100909361000FBE85B78068A3
:1048A00085BF85B7806885BF88E899E09093A901A6
:1048B0008093A8010E940A070E94D5078091E20018
:1048C00084608093E200789480910A048823A1F0A8
:1048D0001091E9001F709091EC00892F817090FD7C
:1048E00080E8182B1092E9008091E80083FD0E9477
:1048F000590D1F701093E90082E084BD93E095BDCF
:104900009AEF97BD80936E000E94C715811102C077
:104910000E940D1504E511E04AE5E42E41E0F42E75
:10492000D8018D918D018F3F11F00E948A09E01608
:10493000F106B1F70AE511E03BE6E32E31E0F32E94
:10494000F80181918F018F3F11F00E948A09E016D2
:10495000F106B1F788E1E9EBF2E0DF01282F1D92C3
:104960002A95E9F7E2E2F2E0DF011D928A95E9F784
:104970000E947217811102C00E94081782E090E025
:104980000E944C2D80933F020E94E01590933B02C1
:1049900080933A020E942423BFEFE6E7F1E0B15092
:1049A000E040F040E1F700C000000E942423809125
:1049B000B90280FF08C06FEF7FEF90E080E00E94B7
:1049C0007E2D0E94541183E090E00E944C2D0E94A5
:1049D0004A0D1092B60280E8809318040E94612B61
:1049E0006DE070E083E092E00E948210892BE9F58F
:1049F0008091B60263E070E081FD51C280E092E0F8
:104A00000E948210892B89F56DE070E080EF91E0C3
:104A10000E948210892B49F50E949A086856754CAD
:104A20008F4F9F4F6093E9037093EA038093EB03EA
:104A30009093EC03EBE1F4E080E092E0DF019C0175
:104A40001D9221503040E1F7F0932206E0932106B9
:104A50008FEF9FEF90931A048093190481E0809365
:104A6000EE038093ED031092B70280913C02811116
:104A700033C00E947217811104C00E9408170E945F
:104A8000F91688E090E00E94542D6093E40370933F
:104A9000E5038093E6039093E7036E7F71F40E9431
:104AA000F91688E090E00E94542D6093E40370931F
:104AB000E5038093E6039093E7030E94E3081092D6
:104AC000D8028091E40380FF04C060E086950E94D4
:104AD000531981E080933C0280E091E09093F203CF
:104AE0008093F10380910A04FF24F39400E112E122
:104AF000853009F434C20E9424238DA781110E94BD
:104B00009A0889EB92E09CA78BA7E0E4F2E0DC0135
:104B100010E000E0902F4D915D916D917D91C190DD
:104B2000D190E190F190C416D506E606F70609F497
:104B300039C2C426D526E626F72680E0812C912CA2
:104B40005401839426013701482059206A207B2094
:104B500045284628472809F41DC289A39AA348215D
:104B600059216A217B2181E0452B462B472B09F4F3
:104B700080E08BA30E94CD188160782F9DA38CA329
:104B800049A15AA16BA18DA10E949422000F111F6F
:104B9000000F111FF801E05CFD4F80819181A2811F
:104BA000B38188259925AA25BB2580839183A2837B
:104BB000B3838090630290906402092C000CAA08D1
:104BC000BB0880910C0190E0E3E6F2E021E030E0E8
:104BD0003296821793070CF0FCC180915F0290918E
:104BE0006002A0916102B09162026FB7F894C09028
:104BF000F603D090F703E090F803F090F9036FBF4D
:104C0000C81AD90AEA0AFB0A10910C0199ECC916D4
:104C1000D104E104F10414F180915E0290E0019668
:104C200069E170E00E94962C80935E02880F991FC4
:104C3000FC01ED59FD4F11821082812F183108F0CF
:104C400087E18F5F80930C010E949A0860935F0256
:104C5000709360028093610290936202A2E08A16D0
:104C60009104A104B1040CF4C1C1A0E6BAEEA501FF
:104C700094010E94162D4B015C01B8EC1B9F900122
:104C80001124032E000C440B550B2C0D3D1D4E1D05
:104C90005F1DA5E0B0E00E94162D9B01AC01C5018F
:104CA000B4010E94AA2C69017A01E1EFCE16D10469
:104CB000E104F1042CF070EFC72ED12CE12CF12C83
:104CC00080915A0290915B02A0915C02B0915D02CA
:104CD0002FB7F8948090F6039090F703A090F80314
:104CE000B090F9032FBF881A990AAA0ABB0AF5E601
:104CF0008F169104A104B10484F00E949A08609375
:104D00005A0270935B0280935C0290935D028091E3
:104D1000950280935902C092580210915902A091B5
:104D20005802A11BBB0BA50194010E94212D24E672
:104D300030E040E050E00E94CC2C120F109395021E
:104D40008091D8028823D1F18091D702E091E403C9
:104D5000E695E81BE093D302823009F04BC1F0E006
:104D6000E25EFD4FE4910E2F10E06FECE62E63E162
:104D7000F62E8091D402882361F01092D4020E9412
:104D8000CD189093D2028093D1021092D602109245
:104D9000D5020E94CD18E091D102F091D2028E1B73
:104DA0009F0B8F3F9F4750F4E00FF11FF093D2020B
:104DB000E093D10281ED92E0F70109958091EE0335
:104DC000882309F4A6C18BE194E090932206809396
:104DD00021060E94D208182F2091950230E01C82F3
:104DE000EAE0F0E0C901BF010E94682C805D8B837E
:104DF000CB01BF010E94682C805D8A8360E324366A
:104E0000310530F0C90164E670E00E94682C605DF5
:104E100069838AE892E011FF02C081E992E00E9472
:104E2000B10C8AE792E010FF02C082E892E00E9493
:104E3000B10C89E592E012FF02C081E692E00E9487
:104E4000B10C88E792E00E94B10C82E792E00E94E8
:104E5000B10CFE013196DF010D900020E9F79D01B4
:104E60002150310979018F010E151F0508F41CC16D
:104E700089E692E00E94B10C809117040E94F20B27
:104E8000813009F480C1882309F414C1823009F407
:104E90007DC1833009F47DC182E292E00DC18DEFC6
:104EA00091E0AECD80910A04843009F442C01092A2
:104EB000D80280913E02811116C0F0923E0280918C
:104EC000E403982F917090933D028E7F8093E403CA
:104ED0003FEF80E792E0315080409040E1F700C022
:104EE00000000E9478110E94B2101092F503A8E110
:104EF000B0E0E0E40FB6F894A895A09360000FBE70
:104F0000E093600083B7817F846083BF83B7816053
:104F100083BF7894889583B78E7F83BF0FB6F8944C
:104F2000A895809160008861809360001092600075
:104F30000FBE80910904882391F00E942423E9EB9D
:104F4000F2E081919191A191B191892B8A2B8B2BC8
:104F500009F098C321ED32E02E173F0791F78091B9
:104F60000A04853009F49ECF0E944E0D0E94D2089B
:104F700010923E0280913D02882349F08091E40323
:104F800081608093E40360E086950E9453190E943B
:104F90003D19B1CD8F5F880C991CAA1CBB1C8131B7
:104FA00009F0D0CD0F5F1F4F0630110509F0B2CDCB
:104FB0008FEF8EA38FA318A60E94CD188160782F43
:104FC0009AA789A74EA15FA168A58AA50E949422ED
:104FD000F0CD40815181052E000C660B770B840EBD
:104FE000951EA61EB71E2F5F3F4FF2CDC12CD12CB0
:104FF000760166CE863059F4F0E0E55EFD4FE4912F
:105000000E2F10E05FEBE52E53E1F52EB2CE893086
:1050100061F4E695F0E0E85EFD4FE4910E2F10E0BC
:105020004BE2E42E43E1F42EA4CE8F3061F4E695FA
:10503000F0E0EB5EFD4FE4910E2F10E03DEBE32E30
:1050400032E1F32E96CE853159F4F0E0EE5EFD4F5D
:10505000E4910E2F10E02FE6E22E22E1F22E89CE0F
:1050600008E210E0B6EEEB2EB1E1FB2E883109F438
:1050700080CE833249F4E0E1F2E00591149196E6A6
:10508000E92E93E1F92E75CE00ED17E0A5E9EA2EA1
:10509000A8E0FA2E843209F06CCE04EF11E08DEA1C
:1050A000E82E81E1F82E65CED8018D918D010E9408
:1050B000030CDACE8EE492E00E94B10C8091EE03F4
:1050C000882371F02091190430911A0421153105BB
:1050D00039F08091B70261E070E0882309F45DC087
:1050E0008091ED038823A9F00E949A080091E903BA
:1050F0001091EA032091EB033091EC03601B710BDC
:10510000820B930B6F3F7F4F8F4F9F4710F40E948E
:10511000B2102DA521110E94CD100E94D2089091AD
:10512000B80289138093B80280910A04843009F090
:10513000D9CC83E08093E9008091E80082FFD2CC53
:105140008091E80090E085FF0CC00E94290730E2C2
:10515000E32EF12C8E010F5F1F4F882309F4F2C05C
:1051600091E08091E8008B778093E800992309F41F
:10517000B9CCE981E150E33108F04EC1F0E0E455EB
:10518000F24D0C94EB2C83E492E096CF88E392E00E
:1051900093CF8DE292E090CF8F5F082F10E07B01DC
:1051A000082E02C0EE0CFF1C0A94E2F7A9014E2162
:1051B0005F21452B89F39091B60290FD43C0829503
:1051C000880F807680930F01980136952795369544
:1051D000279520931201815E809310011092130194
:1051E00024E630E047E050E06DE071E088E70E949F
:1051F000102C892B09F074CFA801E5E0440F551F4E
:10520000EA95E1F78091B60280FD2AC0455E5B4FCA
:1052100004E610E020E230E060E488E70E94372CEA
:10522000892B09F05DCF0E94CD10E094F09480911D
:10523000190490911A04E822F922F0921A04E092DB
:1052400019044ECF880F880F880F80930F0110929A
:105250001201895F8093100183E080931301C0CF16
:10526000E6E9F2E080E2DF011D928A95E9F7EFE6D8
:10527000F1E0FFA7EEA70BE611E063E7862E61E001
:10528000962E77E0D72E55245394AEA5BFA52D9129
:10529000BFA7AEA7F80121908F01240E352E311C37
:1052A000C101855E9B4F1C01E22FF0E0EA56FD4FE5
:1052B00030E020E06D2C621AC52C022E01C0CC0C0F
:1052C0000A94EAF7510190E0D5018D915D018C219E
:1052D000662D691B6770762E062E000C770BB82F93
:1052E00001C0BB0F7A94EAF77B2E71956195710925
:1052F0006770772701C086956A95EAF7782A8081DA
:10530000782A70829F5F9830F9F62F5F3F4F319671
:105310002830310579F6EEA5FFA58E169F0609F017
:10532000B4CF04E610E020E230E046E952E074CF6A
:105330008091F100D8018D938D01B1E0EB1AF10855
:1053400009F40ECF8091E80085FDF2CF8091E8004E
:105350008B778093E8000E942907882399F300CF78
:105360001A8289E08B8311C08A81823009F4A0C13E
:10537000833091F1813009F04FC00E949A080E9459
:10538000F12C6B837C838D839E8380910A0484300F
:1053900009F0A8CB1091E9001F709091EC00892FC3
:1053A000817090FD80E8182B82E08093E900809165
:1053B000E80080FF0DC050E040E060E270E0CE0108
:1053C00001960E945A078091E8008E778093E8004A
:1053D0001F701093E90086CBFE013196ABA5BCA5EA
:1053E0004D915D916D917D91BCA7ABA76283538375
:1053F00044833396A15DB24089F7C7CF8A8182305A
:1054000059F46B817C818D819E810E94F12C86E212
:1054100090E00E94602DB9CF8FEF8983B6CF4C8189
:105420006B818A810E9439159827892798279E8346
:105430008D83ABCFED80FE80FE24EF24FE248A8195
:105440000B8132E2039F800111249CEC899F000DA7
:10545000111D11248C8190E0880F991F080F191FCE
:105460006F2DC80187960E94602D6E2DC801889609
:10547000D0CF0E949F1489CF8A818138C1F060F417
:10548000803809F082CF20E04B816091E603809163
:10549000E5030E94001679CF823859F1833809F06C
:1054A00074CF20E04091E7036C818B81F2CF60E004
:1054B0008B810E9453199B818091E403911111C04B
:1054C0008E7F8093E4031092D802AFEFB0E7E2E062
:1054D000A150B040E040E1F700C000000E94781108
:1054E00054CF81608093E40360E086950E94531955
:1054F0004CCF8B818093E80348CF8A81813899F023
:1055000030F4803809F041CF8091E7032BCF823807
:1055100091F0833809F039CF8091E5038B83809136
:10552000E6038C8332CF8091E40380FF02C086952E
:1055300019CF80E017CF8091E80314CF6091E40386
:105540007091E5038091E6039091E7030E94EE15C8
:105550001CCF80E18A8319CF1A8289EA03CFCA80DF
:10556000DB80DC24CD24DC248E010F5F1F4FEC8018
:10557000E00EF12EF11CC601895A9C4F0E151F0535
:1055800009F403CFF9EACF16D10458F40E944C2D48
:10559000D80114968C93FFEFCF1ADF0A0F5F1F4FCD
:1055A000EACFF8011482F7CF0A811B811027012767
:1055B00010279E012F5F3F4F6901EC80E00EF12E16
:1055C000F11CC801895A9C4FE016F10609F4DDCEA2
:1055D000093A110528F4D60114966C910E94602DA9
:1055E000BFEFCB1ADB0A0F5F1F4FEBCF0E948F1468
:1055F000CCCE84E0AFCFCA80DB80DC24CD24DC2499
:105600008E010F5F1F4FEC80E00EF12EF11CC601E2
:105610008796E016F10609F4B8CEE0E3CE16E3E093
:10562000DE0658F40E944C2DD80114968C93FFEF9F
:10563000CF1ADF0A0F5F1F4FEACFF8011482F7CFAE
:105640000A811B811027012710279E012F5F3F4FE2
:105650006901EC80E00EF12EF11CC8018796E0167E
:10566000F10609F492CE003333E0130728F4D60193
:1056700014966C910E94602DBFEFCB1ADB0A0F5F6E
:105680001F4FEBCF09BD19BD09B400FEFDCF8091BE
:10569000D8008F7D8093D8008091E0008260809355
:1056A000E0008091E00081FDFCCF0E944E0D57CCC0
:1056B00086E290E00E944C2D1B821C821D828E830C
:1056C00064CE1092B9008CE08093B80008959F9248
:1056D000AF92BF92CF92DF92EF92FF920F931F9300
:1056E000CF93DF93B82EEB010E94CD186C01EE240E
:1056F000E394F12CC431D10560F025E0E22EF12CC9
:10570000CF3FDC0731F0CE0164E170E00E94682CED
:105710007B0184EAA82E94E8992E1092BC00A092F6
:10572000BC000E94CD188C018091BC0087FF0DC089
:105730008091B900887F883039F18091B900887FE5
:10574000803111F10FEF1FEF09C00E94CD18801BAF
:10575000910B8E159F0540F30EEF1FEFCF3FDC0737
:10576000E1F2C6010E94BE188C179D07B0F2C80175
:10577000DF91CF911F910F91FF90EF90DF90CF902D
:10578000BF90AF909F900895B092BB009092BC00E4
:105790000E94CD188C018091BC0087FF0AC08091C7
:1057A000B900887F883111F0803461F610E000E0A4
:1057B000DECF0E94CD18801B910B8E159F0558F3EC
:1057C000CBCF0F931F93CF93DF93EB018093BB005D
:1057D00084E88093BC000E94CD188C018091BC00AD
:1057E00087FF11C02091B900287F81E090E0283226
:1057F00011F490E080E0919581959109DF91CF912E
:105800001F910F910895CF3FDC0741F30E94CD18FF
:10581000801B910B8C179D0708F38EEF9FEFEECF47
:10582000CF92DF92EF92FF920F931F93CF93DF936C
:105830006B018A017901B9010E94672BE6010C0D09
:105840001D1DC017D10761F424E92093BC00DF912E
:10585000CF911F910F91FF90EF90DF90CF9008951F
:1058600097FDF2CFB70189910E94E12BEACFCF9249
:10587000DF92EF92FF920F931F93CF93DF93C62F88
:105880006A017901B8010E94672B97FD0CC0B8012D
:105890008C2F0E94E12BE601EC0CFD1CCE15DF05E0
:1058A00011F097FF0CC024E92093BC00DF91CF9149
:1058B0001F910F91FF90EF90DF90CF900895B80166
:1058C00089910E94E12BEACF84E98093BC0008957E
:1058D000AA1BBB1B51E107C0AA1FBB1FA617B70716
:1058E00010F0A61BB70B881F991F5A95A9F7809532
:1058F0009095BC01CD010895991B79E004C0991FD2
:10590000961708F0961B881F7A95C9F78095089519
:1059100087FB082E062687FD819567FD61950E940D
:105920007C2C0EF4919507FC8195089597FB072E2A
:1059300016F4009407D077FD09D00E94682C07FC6C
:1059400005D03EF4909581959F4F0895709561958F
:105950007F4F0895A1E21A2EAA1BBB1BFD010DC0AB
:10596000AA1FBB1FEE1FFF1FA217B307E407F5070F
:1059700020F0A21BB30BE40BF50B661F771F881FEB
:10598000991F1A9469F760957095809590959B0181
:10599000AC01BD01CF010895052E97FB1EF40094C4
:1059A0000E94E32C57FD07D00E94AA2C07FC03D0CD
:1059B0004EF40C94E32C50954095309521953F4F33
:1059C0004F4F5F4F089590958095709561957F4FEB
:1059D0008F4F9F4F0895EE0FFF1F0590F491E02D1C
:1059E00009946927962769277827872778270895B4
:1059F0000E94002D332312F48A1B9B0B0C94112D53
:105A0000A29FB001B39FC001A39F700D811D1124FF
:105A1000911DB29F700D811D1124911D08950E944A
:105A2000002DB7FF0895821B930B08950E94002D4F
:105A3000A59F900DB49F900DA49F800D911D1124E2
:105A40000895B7FF0C94162D0E94162D821B930B00
:105A50000895FB01DC0102C005900D9241505040B9
:105A6000D8F70895FC014150504030F001900616DF
:105A7000D1F73197CF010895882799270895FB0121
:105A8000DC0104C08D910190801921F441505040F7
:105A9000C8F7881B990B0895F999FECF92BD81BD77
:105AA000F89A992780B50895A6E1B0E044E050E067
:105AB0000C94862DA8E1B0E042E050E00C94862DD5
:105AC000262FF999FECF92BD81BDF89A019700B4B7
:105AD000021639F01FBA20BD0FB6F894FA9AF99A57
