:100000000C94E4060C941C070C941C070C941C071D
:100010000C941C070C941C070C941C070C941C07D4
:100020000C941C070C941C070C9497160C945316F4
:100030000C948A220C941C070C941C070C941C072B
:100040000C941C070C941C070C941C070C941C07A4
:100050000C941C070C9470170C941C070C941C0730
:100060000C941C070C941C070C941C070C941C0784
:100070000C941C070C941C070C941C070C941C0774
:100080000C941C070C941C070C941C070C941C0764
:100090000C941C070C941C070C941C070C941C0754
:1000A0000C941C070C941C070C941C070501098078
:1000B000A101850319012AB700150126B700950192
:1000C00075108100C0050C0901A101850419012AE0
:1000D000A002150126A002950175108100C005013E
:1000E0000906A1018506050719E029E71500250184
:1000F0009508750181020507190029EF15002501F2
:1001000095F075018102050819012905950575010C
:100110009102950175039101C00660FF0961A1017B
:100120000962150026FF00952075088102096315F4
:100130000026FF00952075089102C005010906A15F
:1001400001050719E029E7150025019508750181CA
:10015000029501750881010507190029FF15002680
:10016000FF00950675088100050819012905950508
:1001700075019102950175039101C0000000000016
:10018000000000000000000000000000000000006F
:100190000000000000000000000000000000007EE1
:1001A0000F00D4FFFFFFC700000078000000000030
:1001B0000000002A2B2800000000000000000000C2
:1001C00000000000000029000000002C1E34202147
:1001D0002224342627252E362D3738271E1F20218E
:1001E00022232425263333362E37381F04050607ED
:1001F00008090A0B0C0D0E0F101112131415161707
:1002000018191A1B1C1D2F3130232D350405060724
:1002100008090A0B0C0D0E0F1011121314151617E6
:1002200018191A1B1C1D2F3130354C00DA0281FFC2
:10023000D9F1DB20A4A62EAF00A0C000A1C800AE5B
:10024000D580A81FD300408D1420001E0F05554EE9
:10025000444546494E4544200046554E4354494F77
:100260004E20330046554E4354494F4E20320046EF
:10027000554E4354494F4E20310051574552545921
:100280002020202000203D3D3D3D3D0A00203D53E3
:1002900043523D0A000A4C415945523A20005750FA
:1002A0004D3A20000A00203D3D3D3D3D2000203DCF
:1002B0004E554D3D20003D3D3D3D3D20003D4341DF
:1002C000503D200000010101010101010101020274
:1002D00002020202020202030303030303030304F4
:1002E00004040404040405050505050606060606BF
:1002F000070707070708080808090909090A0A0A79
:100300000B0B0B0C0C0C0D0D0D0E0E0E0F0F0F101A
:1003100010111111121213131414151516161717A4
:10032000181819191A1A1B1B1C1D1D1E1E1F202010
:10033000212222232424252626272829292A2B2C5A
:100340002D2D2E2F30313232333435363738393A7D
:100350003B3C3D3E3F404142434445464748494A75
:100360004C4D4E4F50515354555658595A5B5D5E43
:100370005F616264656668696B6C6D6F70727375DE
:1003800077787A7B7D7E8082838587888A8C8E8F42
:1003900091939596989A9C9EA0A2A3A5A7A9ABAD70
:1003A000AFB1B3B5B7BABCBEC0C2C4C6C9CBCDCF5E
:1003B000D1D4D6D8DBDDDFE2E4E7E9EBEEF0F3F50C
:1003C000F8FAFDFF2223252628292A2C2D2F30324A
:1003D000333536383A3B3D3E4042434547494A4C27
:1003E0004E5051535557595A5C5E60626466686955
:1003F0006B6D6F71737577797B7D7F81838587895D
:100400008A8C8E90929496989A9C9E9FA1A3A5A761
:10041000A8AAACAEAFB1B3B4B6B8B9BBBCBEBFC18D
:10042000C2C3C5C6C7C9CACBCCCDCED0D1D2D2D318
:10043000D4D5D6D7D7D8D9D9DADADBDBDBDCDCDC2C
:10044000DCDCDDDDDDDDDCDCDCDCDCDBDBDBDADAEF
:10045000D9D9D8D7D7D6D5D4D3D2D2D1D0CECDCC66
:10046000CBCAC9C7C6C5C3C2C1BFBEBCBBB9B8B67B
:10047000B4B3B1AFAEACAAA8A7A5A3A19F9E9C9A06
:1004800098969492908E8C8A89878583817F7D7BD4
:1004900079777573716F6D6B6968666462605E5CB5
:1004A0005A5957555351504E4C4A4947454342407B
:1004B0003E3D3B3A3836353332302F2D2C2A292811
:1004C0002625232200AF00AE29003A003B003C0065
:1004D0003D003E003F004000410042004300440018
:1004E0004500000046004700480035001E001F0080
:1004F00020002100220023002400250026002700E0
:100500002D002E002A0049004A004B002B00140049
:100510001A000800150017001C0018000C0012003B
:1005200013002F00300031004C004D004E00390008
:1005300004001600070009000A000B000D000E0061
:100540000F0033003400000028000000000000000D
:10055000E10001511D001B000600190005001100FB
:100560001000360037003800E5000251000052004C
:100570000000E000E300E200000000002C000000AA
:10058000000000000000E600E7000351E400500016
:1005900051004F0029003A003B003C003D003E0066
:1005A0003F0040004100420043004400450000007D
:1005B000AA00A800A90035001E001F00200021008D
:1005C0002200230024002500260027002D002E00F5
:1005D0002A00AC00AE00AB002B0014001A0008008B
:1005E000150017001C0018000C00120013002F004B
:1005F000300031004C004D004E0039000400160060
:10060000070009000A000B000D000E000F00330068
:1006100034000000C25C000000000000E1000000A7
:100620001D001B00B200190005001100100036006B
:1006300037003800E50000000000C95C0000E00061
:10064000E300E200000000002C00000000000000B9
:100650000000E600E7000000E400C35CCA5CC45C84
:1006600029003A003B003C003D003E003F004000B6
:10067000410042004300440045000000AA00A800D9
:10068000A90035001E001F002000210022002300C9
:1006900024002500260027002D002E002A00AC0093
:1006A000AE00AB002B0014001A0008001500170064
:1006B0001C0018000C00120013002F003000310045
:1006C0004C004D004E0039000400160007000900E0
:1006D0000A000B000D000E000F0033003400000074
:1006E000C25C000000000000E10000001D001B00D3
:1006F000B200190005001100100036003700380064
:10070000E50000000000C95C0000E000E300E2003A
:10071000000000002C000000000000000000E600C7
:10072000E7000000E400C35CCA5CC45C29003A0036
:100730003B003C003D003E003F00400041004200C5
:1007400043004400005C0000AA00A800A900350096
:100750001E001F002000210022002300240025008D
:10076000260027002D002E002A00C55CC75CCB5C4C
:100770002B0014001A000800150017001C001800B8
:100780000C00120013002F0030003100C65CC85C62
:10079000CC5C390004001600070009000A000B00B9
:1007A0000D000E000F00330034000000C25C00009A
:1007B00000000000E10000001D001B00B200190055
:1007C000050011001000360037003800E500000079
:1007D0000000C95C0000E000E300E200000000004F
:1007E0002C000000000000000000E600E700000010
:1007F000E400C35CCA5CC45C09025B00030100A0A6
:10080000FA0904000001030101000921110100019E
:1008100022400007058103080001090401000203CA
:1008200000000009211101000122220007058203B6
:100830002000010705030320000109040200010351
:10084000000000092111010001226D000705840349
:100850002000011201000200000008090009000147
:1008600000010200010A036700670038003700003A
:1008700000100367006F0070006F006C0061007271
:100880000000000403090407087F0807003E5B4FCF
:100890005B3E003E6B4F6B3E001C3E7C3E1C0018D6
:1008A0003C7E3C18001C577D571C001C5E7F5E1C64
:1008B0000000183C180000FFE7C3E7FF0000182401
:1008C000180000FFE7DBE7FF0030483A060E00267D
:1008D0002979292600407F05050700407F05253F2F
:1008E000005A3CE73C5A007F3E1C1C0800081C1CB8
:1008F0003E7F0014227F2214005F5F005F5F0006CE
:10090000097F017F00006689956A00606060606011
:100910000094A2FFA2940008047E04080010207E28
:1009200020100008082A1C0800081C2A0808001EBD
:1009300010101010000C1E0C1E0C0030383E383009
:1009400000060E3E0E060000000000000000005FE2
:10095000000000000700070000147F147F1400242B
:100960002A7F2A1200231308646200364956205059
:1009700000000807030000001C2241000000412283
:100980001C00002A1C7F1C2A0008083E08080000E2
:10099000807030000008080808080000006060004F
:1009A000002010080402003E5149453E0000427FED
:1009B0004000007249494946002141494D33001821
:1009C00014127F10002745454539003C4A494931FA
:1009D0000041211109070036494949360046494975
:1009E000291E000000140000000040340000000038
:1009F0000814224100141414141400004122140895
:100A0000000201590906003E415D594E007C121159
:100A1000127C007F49494936003E41414122007F16
:100A20004141413E007F49494941007F090909018F
:100A3000003E41415173007F0808087F0000417F5C
:100A40004100002040413F01007F08142241007F07
:100A500040404040007F021C027F007F0408107F5E
:100A6000003E4141413E007F09090906003E4151D7
:100A7000215E007F091929460026494949320003B1
:100A8000017F0103003F4040403F001F2040201FE6
:100A9000003F4038403F00631408146300030478AB
:100AA0000403006159494D4300007F414141000268
:100AB0000408102000004141417F000402010204AB
:100AC000004040404040000003070800002054540C
:100AD0007840007F28444438003844444428003893
:100AE0004444287F0038545454180000087E0902FA
:100AF0000018A4A49C78007F080404780000447DBA
:100B00004000002040403D00007F102844000000CD
:100B1000417F4000007C04780478007C080404785D
:100B200000384444443800FC1824241800182424B5
:100B300018FC007C080404080048545454240004A1
:100B4000043F4424003C4040207C001C2040201CEA
:100B5000003C4030403C004428102844004C909019
:100B6000907C004464544C4400000836410000006E
:100B70000077000000004136080000020102040274
:100B8000003C2623263C00000000000000404040BE
:100B9000F0F8F8FF38FFF8F83FF8F8FF38FFF8F8FA
:100BA000F040404000000000000080C0C0C0800055
:100BB00000C0C08000000080C0C000C0C000008035
:100BC000C0C00000000000C0C0C0C0C000C0C00065
:100BD0000000000000000000000000000000000015
:100BE0000000000000000000000000000000000005
:100BF00000000000000000000000000000000000F5
:100C0000000000000000C0F0F8FC3E1E06010000DD
:100C1000007F4141417F007F4141417F000080C012
:100C2000E07E5B4F5BFEC00000C000DCD7DEDEDE96
:100C3000D7DC00C000000000000000000000000041
:100C400000000000000000000000000000494949C9
:100C5000FFFFFFFFE0DFBFBF00BFBFDFE0FFFFFF21
:100C6000FF49494900000000001F3F6060E0BF1FCE
:100C7000007F7F071E381E077F7F007F7F0E1F3B90
:100C8000716000000000007F7F0C0C0C007E7E0075
:100C90007F7E0303007F7E03037E7E03037F7E004F
:100CA0000F3E703C063C703E0F00327B49493F7E50
:100CB000007F7E0303001E3F69696F26000000006D
:100CC000000000000000030F1F3F3C787060000030
:100CD000007F4141417F007F4141417F00307B7F68
:100CE0007830202030787F3B0003000F7F0F0F0FFC
:100CF0007F0F000300000000000000000000000063
:100D000000000000000000000000000000010101E0
:100D1000070F0F7F0F7F0F0F7E0F0F7F0F7F0F0FBC
:100D200007010101000000000000000000000101B7
:100D300000000000000000000000000000000000B3
:100D400000000000000000000000000000000000A3
:100D50000000000000000000000000000000000093
:100D60000000000000000000000000000000000083
:100D70000000000000000000000000000000000073
:100D80000000000000000000000000000000000063
:100D90000000000000000000000000000000000053
:100DA0000000000000000000000000000000000043
:100DB0000000000000000000000000000000000033
:100DC000000000000000000011241FBECFEFDAE099
:100DD000DEBFCDBF04B603FE18C0809162089091BB
:100DE0006308A0916408B09165088730904BA740D4
:100DF000B04B59F410926208109263081092640884
:100E000010926508E0E0F8E3099528E0A2E8B1E077
:100E100001C01D92A236B207E1F711E0A0E0B1E0F7
:100E2000E0E6F8E502C005900D92A238B107D9F7C7
:100E30000E94B1220C94052C0C940000E8EDF0E027
:100E400080818E7F80831092E2001092DA001092EF
:100E5000E100A0EEB0E08C9181608C9380818F776F
:100E6000808319BCA7EDB0E08C918E7F8C9380813C
:100E70008F7E808310921F0608952091E4003091A8
:100E8000E50095E6A9012091EC00822F817020FFFA
:100E900006C08091E80080FF06C080E008952091A0
:100EA000E80022FD1AC080914406882389F085302D
:100EB00089F08091EB0085FD0FC02091E400309116
:100EC000E50042175307F9F29150E1F684E00895E6
:100ED00082E0089583E0089581E00895EF92FF9203
:100EE0000F931F93CF937C018B010E943D07C82F66
:100EF000811117C08091E80085FD0BC08091E8004A
:100F00008E778093E8000E943D07882399F3C82FCD
:100F100008C0F70181917F018093F1000150110910
:100F200049F78C2FCF911F910F91FF90EF9008956B
:100F30008091460687FF13C08091E80082FF06C0BB
:100F40008091E8008B778093E80004C0809144068C
:100F50008111F2CF0895809144068823D9F38091BE
:100F6000E80080FFF8CF8091E8008E77ECCF982FD3
:100F70009093E900242F762F50E0891731F070917B
:100F8000EC002091ED005091F00021FD07C09F5F23
:100F9000973071F78093E90081E008953091EB007C
:100FA0003E7F3093EB003091ED003D7F3093ED00BC
:100FB0003091EB0031603093EB007093EC002093A4
:100FC000ED005093F0002091EE0027FDE0CF80E08F
:100FD0000895CF92DF92EF92FF920F931F93CF93DA
:100FE000DF93C8EDD0E088818F7E8883E7EDF0E065
:100FF00080818160808384E082BF81E080931F06CE
:1010000088818E7F888302EE10E0F80110821092B2
:10101000DA0081EEC82ED12CF601108288818F77FC
:10102000888388818068888388818F7D888319BCC4
:101030001092440610924506109243061092420602
:1010400090EEE92EF12CF70180818B7F80838881DF
:101050008160888342E060E080E00E94B707F6018B
:1010600080818E7F8083F801808181608083808190
:1010700088608083F70180818E7F80838881806192
:101080008883DF91CF911F910F91FF90EF90DF90B8
:10109000CF900895FC0180914C0690914D068617E3
:1010A0009707A0F06115710529F49091E8009E77EB
:1010B0009093E80090E06115710551F4911108C01A
:1010C0008091E80082FF34C080E00895BC01F2CF37
:1010D000809144068823C1F18530C1F18091E800F8
:1010E00083FD30C08091E80082FDEACF8091E80066
:1010F00080FFE1CF8091F3002091F200382F61153D
:10110000710519F02830310558F091E0283031058B
:1011100009F090E02091E8002E772093E800CBCFF3
:1011200081918093F100615071092F5F3F4FE7CFAC
:1011300080914406882341F0853041F08091E80099
:1011400083FFBECF81E0089582E0089583E0089593
:101150000895089508958091210608952FB7F89471
:1011600060911606709117068091180690911906E5
:101170002FBF0895209113063091140628173907C0
:1011800071F09093140680931306E0911106F0918C
:101190001206309721F00084F185E02D099408951E
:1011A00020910F06309110062817390771F090939F
:1011B000100680930F06E0911106F0911206309709
:1011C00021F00680F781E02D09940895E091110641
:1011D000F0911206309721F00190F081E02D0994F2
:1011E00080E00895FA01811101C0FB01099480910A
:1011F0005106982F9E7F29F481708260809351065A
:1012000008958031E8F381708E60F8CFAF92BF927D
:10121000DF92EF92FF920F931F93CF93DF93082FEC
:10122000162FE901E42FF0E0EC53FD4F611110C0DF
:10123000E4915E2F4E2F4983E8835A83DF91CF914B
:101240001F910F91FF90EF90DF90BF90AF900895A6
:10125000E62EF12C4491D42EE42FF0E026E0829F7C
:10126000C00111242FEF30E0B9010E949A2A802F8B
:1012700090E0880F991F55E5569FD001579FB00DFC
:1012800011248A1B9B0B982F990F890F5901AE18B7
:10129000BF08AE9ED001AF9EB00DBE9EB00D112412
:1012A0005B2F189F80011124012F11275901A01ACB
:1012B000B10AAE9E8001AF9E100DBE9E100D11248E
:1012C0005901A81AB108AE9CC001AF9C900DBE9CFC
:1012D000900D1124892F9927281B390B2E9FC001AF
:1012E0002F9F900D3E9F900D1124E92F62307105C4
:1012F000A1F050F46115710509F49DCF61307105BD
:1013000081F0EB2F512F97CF6430710569F080F099
:101310006630710509F48FCFF4CFE42F4B2F592F8E
:101320008ACFE42F412F87CFEB2F542F492F83CF24
:101330004B2F5D2DE12F7FCF80E00895F894E82FAB
:10134000E295EF70F0E031A1282F2F7081E090E05E
:1013500001C0880F2A95EAF7982F9095932391A3BF
:1013600092A1892B82A37894089590911A0692FFF6
:1013700006C0282F28712830F9F4877F846093FFF6
:1013800006C0282F28712831F1F4877E84612091CE
:101390001B0620FF06C0382F38713830D9F4877FFC
:1013A000816021FF06C0282F28712831D1F4877E63
:1013B000816194FD877E0895282F24712430F9F6E9
:1013C0008B7F8860DCCF282F2471243101F78B7E3E
:1013D0008861DDCF382F3171313019F78E7F886009
:1013E000E0CF282F2171213121F78E7E8861E1CF56
:1013F000CF93DF93EC0182389105A9F1D8F58133C1
:10140000910509F496C048F58932910509F48AC01E
:101410008A9709F495C0C11522E5D20708F0B6C035
:10142000C11531E5D30708F026C1C83ED10508F043
:101430009CC0C03ED10560F5C83AD10508F087C010
:10144000C53AD10508F0EFC0C130D10509F12097A8
:10145000F9F0C430D105E0F440C08533910509F4BA
:101460005AC0C997C1F680911A06837089F0C0EE00
:10147000D0E00EC0833E910599F170F4803E910555
:1014800001F1823E910539F680911A0682FD21C054
:10149000CE01DF91CF910895863E910561F1873E9F
:1014A000910571F1843E910509F0B5CF80911B063D
:1014B00081FFEECF80911A06C7EED0E084FD0DC00B
:1014C000E7CF80911A0680FD07C190911B0690FF1F
:1014D000DFCFC3EED0E084FFDBCFD0E0C0E0D8CFD9
:1014E00080911A0682FDFBC090911B0690FDBFCF34
:1014F00084FFCECFF2CF80911A0683FDDDCFC8CF17
:1015000080911A0683FDEEC090911B0691FFF0CFEB
:10151000C4EED0E0BDCF80911A0685FFB9CFC9E2F5
:10152000D0E0B6CF80911A0685FFB2CFC5E3D0E0F8
:10153000AFCF80911A0686FFABCFCAE2D0E0A8CF2A
:1015400080911A0686FFA4CFC1E3D0E0A1CFCF3BA4
:10155000D10518F6C85AD0E0CC0FDD1FC35EDE4FB0
:101560000990D881C02DD46493CFC11540E5D4072C
:1015700008F064C0C11580E4D80708F05CC0CE0153
:101580009A9581159F4108F483CFA7CFC11536E501
:10159000D30718F5C11545E5D40708F084C0C11577
:1015A00084E5D80708F07AC09C2F969596959E0101
:1015B00023703327C115D34508F462C0C1E0D0E0E1
:1015C00002C0CC0FDD1F2A95E2F730E2939FC001E5
:1015D0001124C82BD92BDA685BCFC1158AE5D8074F
:1015E00078F4C11599E5D90708F068C0C11528E558
:1015F000D20708F472CFDC2FCC27C06FD06A48CF57
:10160000CE0190568115904208F067CF8D2F8F71D3
:101610000E94B50990E0982F882788279F719C0128
:101620002C2BE90149C0C55AD0E0C65EDE4FC88107
:10163000D0E0D0642DCFDF70D06A2ACFCE01E4E0B5
:1016400096958795EA95E1F783702C2F2695269538
:10165000237040E2249F90011124382B8C2F83703B
:10166000C1E0D0E002C0CC0FDD1F8A95E2F7C22BAB
:10167000D32BDC680DCFDC2FCC27C16FD06A08CF0D
:10168000C1E0D0E002C0CC0FDD1F2A95E2F720E2D6
:10169000929FC0011124C82BD92BEBCFDC2FCC2774
:1016A000C46FD06AF5CE8C2F0E94B509C82FD0E048
:1016B000DC2FCC27CC27DF71D062EACE8C2F8F7045
:1016C0000E94B50934E0D695C7953A95E1F7CF70F9
:1016D0009C2FEC01D069DCCEC9E3D0E0D9CEC2EEBC
:1016E000D0E0D6CEC6EED0E0D3CE809127028111D5
:1016F0001092270208958095909126029823909346
:1017000026020895909119019923D1F090911A061B
:1017100097FF16C0E82FE695E695E695EE31E0F4E2
:10172000F0E0EC57FE4F282F277081E090E001C0D9
:10173000880F2A95EAF780959281892382830895FC
:10174000E6E8F1E09191891303C0DF0111971C9243
:1017500091E0EC38F907B1F70895909119019923B8
:10176000C1F090911A0697FF14C0E82FE695E69510
:10177000E695EE31F8F4F0E0EC57FE4F877021E08B
:1017800030E001C0220F8A95EAF78281822B8283A2
:101790000895A6E8B1E0EFEF90E02D91821751F0A7
:1017A000EF3F19F4211101C0E92F9F5F9630A9F78F
:1017B000EF3F09F408950E2E000CFF0BEC57FE4F7F
:1017C000E6CF809103029091D201981301C0089551
:1017D0008F5F8770FACF21E1929F800D1124982F9F
:1017E000977086958695869523E0829FF001112457
:1017F000EB55FE4F50E040E080E0219130E0092EB3
:1018000002C0369527950A94E2F721703327042EFB
:1018100001C0220F0A94EAF7822B4F5F5F4F4330DB
:10182000510559F7089521E1929F800D1124982FB9
:10183000977041E001C0440F9A95EAF78695869526
:10184000869593E0899FF0011124EB55FE4F90E0BF
:1018500080E070E05191DF0111979B01082E02C0DA
:10186000369527950A94E2F72170219525272423A0
:1018700025272C9301968330910561F70895982FC1
:1018800092959F7011F0892F94E0282F2695269528
:1018900011F09E5F822F869509F09F5F892F089532
:1018A000CF93DF93C0916008D09161088A30C1F472
:1018B00020915706CE018A559640622F70E00E9413
:1018C0009A2A281B822F66E00E94AE2AC82FC15098
:1018D00018F4DF91CF91089580E20E94500CF7CF69
:1018E0008D30E9F4CA55D64020915706622F70E03A
:1018F000CE010E949A2A281B822F9E01280F311D9B
:101900002115324018F080E0D0E0C0E0C80FD11DB2
:10191000C65AD94FD0936108C0936008DACF96E0D9
:10192000FE01AAE5B8E001900D929A95E1F7803E9C
:1019300008F458C086E0FE0111928A95E9F7C0913B
:101940006008D091610846E050E0BE018AE598E069
:101950000E944D2B9E012A553640892B41F1C90129
:1019600045E0969587954A95E1F741E050E0BA0148
:1019700002C0660F771F8A95E2F7CB016091580687
:1019800070915906862B972BB9016B5F7F4FE5E06D
:1019900076956795EA95E1F702C0440F551F6A9561
:1019A000E2F7842B952B90935906809358062A5F73
:1019B0003F4F40915706642F70E0C9010E949A2A58
:1019C000481B463010F4240F311D211572E03707F3
:1019D00010F030E020E0265A394F30936108209310
:1019E000600877CFF6E08F9FB00111246957774FD9
:1019F00046E050E0CE010E94372BA1CFCF93DF937A
:101A0000EC01FE018491811103C0DF91CF91089513
:101A10000E94500C2196F5CF8091260290912502CC
:101A2000892B80938401909127029923A1F0892B1F
:101A300080938401809119018823D9F180911A063D
:101A400087FF37C08EE1E6E8F1E090E0815098F53D
:101A500091110E94750B40E250E065E072E084E86D
:101A600091E00E944D2B892B59F180E2E4E8F1E0EE
:101A7000A5E0B2E001900D928A95E1F7E0911106A0
:101A8000F09112063097E1F080911901882359F006
:101A900080911A0687FF07C0809184018093850199
:101AA00086E0809384010280F381E02D84E891E058
:101AB000099486E0C8CF2191222341F29F5FC6CFCF
:101AC000089590E080E00E94D00890E080E00E94BD
:101AD000BA08109225020C940C0D809356060C94B3
:101AE000610D80915606982F9670963019F4886093
:101AF0000C946D0D877FFCCF21E030E001C0220FF8
:101B00008A95EAF720958091560682230C946D0DF4
:101B1000909104028095892380930402282F2770D6
:101B200091F4282F082E000C330B9217130659F04E
:101B300090911B0692FD07C08595859585950E941D
:101B40007C0D10920402089521E030E001C0220FC4
:101B50008A95EAF780915606822B0C946D0D80933E
:101B600028020C94610D1092260280911901E6E87A
:101B7000F1E0882359F080911A0687FF07C08EE1B3
:101B8000DF011D928A95E9F70C94610D86E0F8CF8C
:101B90001F93CF93DF93CDB7DEB7AA970FB6F89414
:101BA000DEBF0FBECDBF86E496E02091F100DC01E0
:101BB0002D93CD01B6E08E349B07B9F7809147068F
:101BC000833009F472C0B8F4813009F449C082301E
:101BD00009F4B3C08091E80083FF8BC28091460670
:101BE000909147069A3008F084C2E92FF0E0E95F4F
:101BF000F34D0C94CE2A8A3009F48EC08B3009F450
:101C000071C0893039F780914606813219F7809189
:101C10004A0690914B06009711F00297D9F68091F1
:101C2000E800877F8093E8008091E80082FF38C059
:101C30009091F3008091F200029731F48091F100CD
:101C4000813011F0863021F48091F10080932106DB
:101C50008091E8008B778093E8000E949807BACFC4
:101C600080914606813A09F0B5CF8091E800877FE0
:101C70008093E80080914A0690914B06892B61F48D
:101C800060E282E296E070E00E944A088091E800FB
:101C90008B778093E8009ECF60E090E080E0F3CF08
:101CA000809144068111C0CF95CF80914606813A3C
:101CB00009F090CF80914A0690914B06892B09F04C
:101CC00089CF8091E800877F8093E8008091E800C9
:101CD00080FFFCCF809119018093F1008091E80092
:101CE0008E77B9CF80914606813209F073CF80910B
:101CF0004A0690914B06892B09F06CCF8091E80041
:101D0000877F8093E8000E9498078091480680931F
:101D100019010E94B30D5ECF80914606813209F011
:101D200059CF8091E800877F8093E8000E94980750
:101D300080914906809320064DCF80914606813AD6
:101D400009F048CF8091E800877F8093E800809178
:101D5000E80080FFFCCF80912006BECF803899F04C
:101D6000823809F0C6C180914A068F70873008F02A
:101D7000C0C18093E9008091EB0085FB882780F942
:101D80001092E90006C0809142069091430691119D
:101D900082609091E800977F9093E8008093F10033
:101DA0001092F1008091E8008E779FC1882309F49A
:101DB0008DC1823009F09DC180914806811190C18A
:101DC00080914A068F702FEF280F263008F091C1BE
:101DD0008093E9002091EB0020FF82C1933031F421
:101DE0008091EB0080628093EB007AC19091EB00D0
:101DF00090619093EB0021E030E001C0220F8A95C2
:101E0000EAF72093EA001092EA008091EB008860E4
:101E1000EACF81116EC1109148061F778091E300CF
:101E20008078812B8093E3008091E800877F809306
:101E3000E8000E9498078091E80080FFFCCF809125
:101E4000E30080688093E30082E0111183E08093D7
:101E500044064FC18058823008F04BC1209148069B
:101E6000309149062C3DE3E03E07A1F583E08A83EB
:101E70008AE289834FB7F894DE01139620E03EE0B2
:101E800051E2E32FF0E050935700E49120FF03C0AC
:101E9000E295EF703F5FEF708E2F90E0EA30C0F078
:101EA000C7968D939D932F5F243159F74FBF809133
:101EB000E800877F8093E8006AE270E0CE01019637
:101EC0000E944A088091E8008B778093E80011C156
:101ED000C096E7CF80914A0690914B06432F552735
:101EE0004330510509F44AC078F54130510509F4F1
:101EF0007AC08BE590E0E8EFF7E04230510509F059
:101F0000F8C02091E800277F2093E80020914C063C
:101F100030914D068217930708F49C0140E021158B
:101F2000310509F065C0411163C08091E80082FD70
:101F3000C9CF80914406882329F2853019F2809117
:101F4000E80083FFF2CFBECF4132510509F43CC017
:101F50004232510509F0CDC08330910508F0C9C067
:101F6000FC01EE0FFF1FEB58FE4F0190F081E02DBA
:101F70008E589E4FDC018C9190E01AC0332721309F
:101F80003105D1F02115310561F02230310509F01C
:101F9000B0C0E5E6F8E0E4918E2F90E0E5E6F8E0E9
:101FA00007C0E3E8F8E0E4918E2F90E0E3E8F8E082
:101FB000009709F49EC0A5CFE1E7F8E0E4918E2FE9
:101FC00090E0E1E7F8E0F4CF8330910508F091C0AC
:101FD000880F991FFC01E558FE4F0190F081E02D1C
:101FE00089E090E08ECF82E190E0E3E5F8E089CFF0
:101FF00080914406882309F465CF853009F462CFC7
:102000008091E80083FD5ECF8091E80082FD8DCF56
:102010008091E80080FF83CF9091F3008091F200DF
:102020002115310519F08830910550F041E00897ED
:1020300009F040E08091E8008E778093E8006FCF50
:1020400044914093F1003196215031090196E8CF37
:10205000803809F04EC08091E800877F8093E800C7
:10206000809145068093F1009DCE811142C0109170
:1020700048061230F0F58091E800877F8093E800F1
:10208000109345060E949807112311F084E005C0C3
:102090008091E30087FDFACF81E08093440642E01F
:1020A00061EC81E00E94B70742E261EC84E00E94AB
:1020B000B70742E261EC82E00E94B70742E260ECBF
:1020C00083E00E94B7078091440613C080914806C0
:1020D000813079F481E0933009F080E08093430609
:1020E0001092E9008091E800877F8093E8000E94C9
:1020F00098078091E80083FF0AC08091E800877FFD
:102100008093E8008091EB0080628093EB00AA96B8
:102110000FB6F894DEBF0FBECDBFDF91CF911F91F8
:102120000895882321F00E947B0B0C940C0D0895D8
:10213000882339F090912602982B909326020C94D4
:102140000C0D0895882309F44BC0823871F40E9465
:10215000E60881FF45C089E30E94AD0B0E940C0D8B
:1021600089E30E94820B0C940C0D833859F40E9471
:10217000E60880FF35C083E50E94AD0B0E940C0D80
:1021800083E5EFCF843859F40E94E60882FF28C027
:1021900087E40E94AD0B0E940C0D87E4E2CF9CEF18
:1021A000980F913AF0F290E2980F983050F48770BF
:1021B00091E001C0990F8A95EAF7892F0E947B0B65
:1021C000D2CF9BE5980F933020F490E080E00C9400
:1021D000D008885A873120F490E080E00C94BA0847
:1021E0000895CF92DF92EF92FF920F931F93CF93B8
:1021F000DF936C017B0164E670E088E70E94992917
:10220000EC0197FD12C010E000E0F601E00FF11FB5
:10221000849164E670E00E94132AEC01892B29F472
:102220000F5F1F4F0E151F0581F70E94962ACE01E2
:10223000DF91CF911F910F91FF90EF90DF90CF90A2
:10224000089580910D0690910E06911103C091E0C2
:1022500089270895882369F062E070E086EC94E0B5
:102260000E94F110892B19F080910D0608951092AB
:102270000D0680910D06EBCFCF93C0910D06809196
:102280000E068823D1F00E94AE08605A75418F4F28
:102290009F4F6093090670930A0680930B069093F4
:1022A0000C06C11108C062E070E084EC94E00E946A
:1022B000F110892B29F0C0910D068C2FCF91089534
:1022C00081E080930D06F7CF80931C0670931E0665
:1022D00060931D06809144068430F9F48093E900F0
:1022E0008FEF9091E800815095FD06C095ED9A958D
:1022F000F1F700008111F5CF8091E80085FF0DC056
:1023000050E040E063E070E08CE196E00E946E07F0
:102310008091E8008E778093E8000895BC0184E006
:102320000C946411BC0183E00C946411CF93DF938F
:10233000EC01809119018823B1F180911A0687FF81
:1023400032C060E284E08093E9008FEF9091E80072
:10235000815095FD06C095ED9A95F1F70000811129
:10236000F5CF8091E80085FF1BC08091190170E0D6
:1023700050E040E0811104C050E040E068E070E0CF
:10238000CE010E946E078091E8008E778093E8006E
:1023900080E2FE01A2E2B6E001900D928A95E1F79B
:1023A000DF91CF91089568E081E0CDCF81E0809307
:1023B000E00080E28093D8001092C9008FE19EE493
:1023C0000197F1F700C0000087E090EBDC018093FB
:1023D000620890936308A0936408B093650888E14D
:1023E0009CE00FB6F894A895809360000FBE909380
:1023F0006000FFCF8091510680FD0AC0E1EEF2E05F
:10240000118210821282339654E0E031F507C1F751
:102410006A9A3EB13B7F2EB124604FB7F89481EEAB
:1024200092E0FC015191CF0168E02EB9000000C09C
:1024300057FF3EB9550F000000C000C000C03EB9B4
:1024400000C06A9591F7F4E080319F0751F74FBFC4
:102450008FE594E00197F1F700C000000895CF9355
:10246000C82F882309F4A6C08238C1F40E94E60868
:1024700081FDA0C089E30E94AD0B0E940C0D2FEFDF
:1024800081EE94E0215080409040E1F700C00000D0
:1024900089E30E94820BCF910C940C0D8338A1F438
:1024A0000E94E60880FD86C083E50E94AD0B0E9475
:1024B0000C0D2FEF81EE94E0215080409040E1F729
:1024C00000C0000083E5E5CF8438A1F40E94E6084F
:1024D00082FD70C087E40E94AD0B0E940C0D2FEFAF
:1024E00081EE94E0215080409040E1F700C0000070
:1024F00087E4CFCF8CEF8C0F813A88F5809119015A
:10250000882301F180911A0687FF1CC0EC2FE69505
:10251000E695E695F0E0EC57FE4F828190E04C2F77
:10252000477021E030E002C0220F331F4A95E2F7E6
:1025300082239323892B79F08C2F0E94820B0E9497
:102540000C0D09C0E6E8F1E08191C817A9F321E07C
:10255000EC38F207C9F78C2F0E94AD0B9CCF80E2BC
:102560008C0F883068F4C77021E030E001C0220F82
:10257000CA95EAF780912602822B809326028BCFA0
:10258000EBE5EC0FE33040F4F0E0E65EFE4F8081D7
:1025900090E0CF910C94D008C85AC73158F4EC2F72
:1025A000F0E0EE0FFF1FE35EFE4F80819181CF913F
:1025B0000C94BA08CF9108951F93CF93DF93182FEF
:1025C000D0E0C0E0893311F4C0E5D0E0812F0E9453
:1025D0002F12209731F4812FDF91CF911F910C940E
:1025E000A2108FE99FE00197F1F700C0000021974A
:1025F000F0CFCF93DF93C7E5D3E060E0CE010E9438
:102600006E2B2196C11584E0D807B9F7DF91CF91E1
:1026100008956F927F928F929F92AF92BF92CF92C6
:10262000DF92EF92FF920F931F93CF93DF9388EC8B
:10263000C82E84E0D82E95E1E92EFF24F394E7011B
:10264000CC5CD10936011BC0F50185909490692DB1
:10265000C8010E946E2B682DC80101960E946E2B46
:1026600082E0A80EB11C0E5F1F4FC017D10761F7A3
:1026700082E2680E711CA296CE15DF0529F08E014C
:10268000025211095301E0CF7E018CECE80EF11CDF
:102690008CECC80ED11C85E4E81684E0F80679F6C7
:1026A000DF91CF911F910F91FF90EF90DF90CF902E
:1026B000BF90AF909F908F907F906F900895CF9331
:1026C000C82F6FEF811162E283E290E00E946E2BCF
:1026D0006FEFC11163E084E290E00E946E2B6FEF18
:1026E000C11160E385E290E0CF910C946E2B80E005
:1026F0000E945F1360E086E290E00E946E2B0E94D1
:1027000009130E94F91281E00C945F13CF93C091DA
:102710001B06C2FB992790F9981799F080FBC2F924
:10272000C0931B0660911A0684E090E00E946E2B15
:102730006C2F82E290E00E946E2B82E0CF910C948D
:10274000880DCF9108950F931F93CF93DF93C42FDC
:10275000D0E0CC0FDD1F22E2629FC00DD11D1124FD
:102760003CEC839FC00DD11D1124CE0187960E94A1
:102770005A2B082F10E0102F0027CE0188960E94B8
:102780005A2B9801282BC901DF91CF911F910F91EE
:102790000895462F843038F4763028F4613118F4E7
:1027A000672F0C94A31390E080E00895CF92DF92FE
:1027B000FF920F931F93CF93DF936C010091560606
:1027C00080912802082BC7E0D0E010E0FC2EC80161
:1027D0000C2E02C0959587950A94E2F780FD0CC0F7
:1027E0002197A0F7F12C8F2DDF91CF911F910F91A1
:1027F000FF90DF90CF900895B6018C2F0E94C913EF
:102800000E94F809019761F3EECFCF93DF93EC01BB
:102810000E94D613BE010E94C913DF91CF910C9480
:10282000F809FC01808191810E94051492959F70A6
:10283000963091F058F4925F9F70923058F4803F38
:1028400019F030F4883E30F481E008959A5FF4CFB7
:10285000843FD1F380E00895883EB0F3813FD1F703
:10286000F3CF83E290E00E945A2B823289F484E213
:1028700090E00E945A2B833059F485E290E00E9448
:102880005A2B91E0803309F090E0892F81700895F0
:1028900080E0FCCFCF9384E090E00E945A2BC82FB9
:1028A00082E290E00E945A2B982F8C2FCF910895AE
:1028B0004F925F926F927F928F929F92AF92BF9250
:1028C000CF92DF92EF92FF920F931F93CF93DF93FC
:1028D000FC016280448081E08483E4ECF3E0749046
:1028E000E3E4F4E0E491C0E1D4E031EEE32E32E041
:1028F000F32E49E0C42E46E0D42E52E0A52EBB2490
:10290000B39488248A94912C55245A94E7190E2F55
:1029100010E082E0861530F0809152068883809125
:1029200053068983411021C01B821A8297014A8174
:10293000698188810E940609259683E0E80EF11CD2
:10294000CC16DD0631F7DF91CF911F910F91FF90EB
:10295000EF90DF90CF90BF90AF909F908F907F903F
:102960006F905F904F900C94FA118B818823E9F05F
:1029700081508B83859DC00111246C8170E00E9481
:102980009A2AFB01FF27EC53FC4F8491E82FE719AB
:10299000E59DC0011124B8010E949A2A8091540635
:1029A000689FB00111247A83C1CF0E94272B209108
:1029B0005406269521582A9DA0012B9D500D1124C7
:1029C000452F5527841795070CF0B0CF82E0861568
:1029D00088F40E94272BB4010E94BA2A88830E949F
:1029E000272B209153062695622F70E00E94BA2A69
:1029F000280F29831A8280915406893C20F088ECA4
:102A00008C838B8393CF8431D8F784E1F9CFCF9235
:102A1000DF92EF92FF926B017C010E94F708B701F1
:102A2000A60188E090E0FF90EF90DF90CF900C94AB
:102A3000802BEF92FF920F931F93CF93DF9300D0E1
:102A40000F92CDB7DEB7F82E062F142FE22E80910D
:102A5000510680FF36C0E82FE695F0E0E659FE4FBC
:102A600090819093DF028E7F8230C9F49E012F5FA8
:102A70003F4F8F2D0E9406098091510680FF0FC0A5
:102A80008B8199812A81E1EEF2E021839083828318
:102A9000339634E0E031F307C1F70E94FA11F09267
:102AA00052060093530610935406EE2051F06091A5
:102AB00051067091520680915306909154060E94DF
:102AC00007150F900F900F90DF91CF911F910F91ED
:102AD000FF90EF900895E1E5F6E0438128E0421B86
:102AE00008F440E021E0628181810C941915E1E550
:102AF000F6E0438128E0420F08F44FEF21E06281C5
:102B000081810C941915E1E5F6E0628128E0621BF1
:102B100008F460E021E0438181810C941915E1E51E
:102B2000F6E0628128E0620F08F46FEF21E0438154
:102B300081810C941915E1E5F6E0818121E0438162
:102B4000628188500C941915E1E5F6E0818121E05D
:102B500043816281885F0C94191580915506882302
:102B600019F081508093550660915106709152067C
:102B700080915306909154060C9407158091550648
:102B8000833018F48F5F80935506609151067091E1
:102B9000520680915306909154060C940715E1E576
:102BA000F6E083E0808311828FEF82838383148237
:102BB00060817181828193810C94071569EE7EEFAB
:102BC00090E080E00E948C2B60E082E090E00E9428
:102BD0006E2B60E083E090E00E946E2B1092280242
:102BE00060E084E090E00E946E2B60E082E290E082
:102BF0000E946E2B60E085E090E00E946E2B60E00A
:102C000086E090E00E946E2B6FEF87E090E00E94DC
:102C10006E2B40E050E0BA0188E090E00E94802BEB
:102C200060E08DE090E00E946E2B40E050E0BA0141
:102C300088E190E00E94802B60E087E190E00E94B4
:102C40006E2B40E050E0BA018CE190E00E94802BB6
:102C500070E060E080E290E00E948C2B40E050E069
:102C6000BA0188E190E00E94802B80E00E945F130F
:102C70000E94771340E050E0BA018FE090E00E949C
:102C8000802B40E050E0BA0183E190E00C94802B6F
:102C900090E080E00E94682B893E9E4F11F40C94D6
:102CA000311480E008951F920F920FB60F921124F5
:102CB0002F933F934F935F936F937F938F939F9344
:102CC000AF93BF93CF93DF93EF93FF93D091E9003E
:102CD000DF708091EC00C82FC17080FDC0E81092B9
:102CE000E9008091F000877F8093F00078940E9443
:102CF000C80D1092E9008091F00088608093F00088
:102D0000CD2BCF70C093E900FF91EF91DF91CF9170
:102D1000BF91AF919F918F917F916F915F914F91F3
:102D20003F912F910F900FBE0F901F9018951F92FB
:102D30000F920FB60F9211242F933F934F935F93EF
:102D40006F937F938F939F93AF93BF93EF93FF9373
:102D50008091E10082FF09C08091E20082FF05C0FE
:102D60008091E1008B7F8093E1008091DA0080FF09
:102D700024C08091D80080FF20C08091DA008E7F2F
:102D80008093DA008091D90080FF9DC080E189BDE9
:102D900082E189BD09B400FEFDCF81E08093440645
:102DA00080911F06811109C00E941E070E94E90739
:102DB0008091E20084608093E2008091E10080FFD6
:102DC00017C08091E20080FF13C08091E2008E7FE7
:102DD0008093E2008091E20080618093E200809124
:102DE000D80080628093D80019BC85E080934406A7
:102DF0008091E10084FF2BC08091E20084FF27C016
:102E000080E189BD82E189BD89B5982F917080FFED
:102E1000FBCF8091D8008F7D8093D8008091E10016
:102E20008F7E8093E1008091E2008F7E8093E200AC
:102E30008091E20081608093E200809145068823C2
:102E400009F447C084E08093440680914406809151
:102E5000E10083FF27C08091E20083FF23C08091BF
:102E6000E100877F8093E10082E080934406109226
:102E700045068091E1008E7F8093E1008091E20021
:102E80008E7F8093E2008091E20080618093E20077
:102E900042E060E080E00E94B7078091F000886027
:102EA0008093F000FF91EF91BF91AF919F918F912F
:102EB0007F916F915F914F913F912F910F900FBE36
:102EC0000F901F90189519BC1092440610921F067F
:102ED00074CF8091E30087FD93E090934406B5CFD3
:102EE00078941F921FB61F9211248F939F93AF93D4
:102EF000BF938091160690911706A0911806B09185
:102F000019060196A11DB11D809316069093170610
:102F1000A0931806B0931906BF91AF919F918F911E
:102F20001F901FBE1F9018959C014FB7F894809179
:102F3000160690911706A0911806B09119064FBF7A
:102F4000821B930B08952FB7F894809116069091E9
:102F50001706A0911806B09119062FBF08950F9378
:102F60001F93CF93DF93C62FD42F022FFC018281B2
:102F70008823A1F0609350060E94A31790934F06F8
:102F800080934E06C77081E001C0880FCA95EAF7AA
:102F9000DF91CF911F910F910C9498108091500662
:102FA000681335C080914E0690914F060E94941789
:102FB000883C910560F510E21D0FCD17B9F080E255
:102FC0008C0F883040F4C77081E001C0880FCA952B
:102FD000EAF70E949110183048F481E09D2F977015
:102FE00001C0880F9A95EAF70E949810802F0E94DE
:102FF000DC12183098F4D77081E001C0880FDA95A0
:10300000EAF7DF91CF911F910F910C949110C77047
:1030100081E001C0880FCA95EAF7F3CFDF91CF9125
:103020001F910F91089560915106669570E041E0FF
:1030300050E088E191E00E94402B892B19F481E057
:103040008093E0020E94A3179093DA028093D90242
:1030500008959091510690FF36C09170811129C05A
:10306000926090935106662351F0609151067091E1
:10307000520680915306909154060E940715609164
:103080005106669570E041E050E088E191E00E94D1
:10309000402B892BA9F01092E00281E08093DC02A2
:1030A00020E04091540660915306809152060C94A2
:1030B0001915883010F09E60D4CF880F982BD1CF8F
:1030C0000E941318EACF0895809151068695815089
:1030D00009F487E061E00C942918809151068695E7
:1030E0008F5F883008F081E061E00C9429188091AE
:1030F000510680FF07C0869582588F77853010F47F
:103100000C946D1861E082E00C9429183F924F9264
:103110005F926F927F928F929F92AF92BF92CF9267
:10312000DF92EF92FF920F931F93CF93DF9300D024
:1031300000D00F92CDB7DEB78C01FC018381948162
:10314000892B31F08081918189238F3F09F08AC5D5
:103150000F900F900F900F900F90DF91CF911F91D4
:103160000F91FF90EF90DF90CF90BF90AF909F9026
:103170008F907F906F905F904F903F9008950E9446
:10318000D613F82E682F89819A810E94130C6981C9
:103190007A818F2D0E94C9137C01F801228122239C
:1031A00009F453C590568115F0E29F0750F0905EE8
:1031B000811530E1930728F0915C81159F4108F05B
:1031C00077C0C7019927AC014450510944325105D9
:1031D00018F08B970E9780F4E0916602F0E0EE0F06
:1031E000FF1FE559FD4F808191818F3F3FE7930796
:1031F00019F0019691838083C70182519F454097C2
:1032000008F0F6C48FEF93E00E945A2B811129C079
:103210008EEEE80E57E5852E53E0952EE11052C054
:103220001C821B82442443944AE0342E7401FFEF35
:10323000EF1AFF0AC4010E945A2B89831A8288233D
:1032400081F09FEF980F933008F04AC08A8349823B
:1032500022E0820E911CC7010E945A2B8B838111A0
:1032600040C080910402877009F472CFF801828116
:10327000882309F46DCF80911B0682FD69CF82E01F
:103280000F900F900F900F900F90DF91CF911F91A3
:103290000F91FF90EF90DF90CF90BF90AF909F90F5
:1032A0008F907F906F905F904F903F900C94880D1F
:1032B00090E080E0FFEFEF16F10411F008F083CF0B
:1032C000C70181CF811494E0990659F2C4010E948C
:1032D0005A2B811101C0EA94EFEF8E1A9E0A9ECFFD
:1032E0004701CE0101967C01F7012081222309F4D8
:1032F0009DCF213009F047C091818281913031F416
:10330000F2E0EF0EF11C0E94DC1207C0923049F48B
:1033100022E0E20EF11C0E942F123FEFE31AF30AA3
:10332000E3CF933031F432E0E30EF11C0E94A2109F
:10333000F4CF943021F08FEFE81AF80AEECF92E044
:10334000E90EF11C30E020E0B7016F5F7F4FF7011D
:1033500041818053990B8A30910550F021503109F9
:10336000E0F28FE99FE00197F1F700C00000F6CF8F
:10337000329EF001339EF00D11249C012E0F3F1F51
:10338000842F7B01E1CFE22FF0E0E555FE4F549012
:10339000822F86958695869590E0FC01E556FE4F36
:1033A00064902770712C022E02C0759467940A9461
:1033B000E2F7E1E06E227724FC01E557FE4FA4908E
:1033C000B12C022E02C0B594A7940A94E2F7F1E062
:1033D000AF22BB24FC01E558FE4FC490D12C02C0A3
:1033E000D594C7942A95E2F721E0C222DD24611426
:1033F000710419F081EE0E942F12A114B10419F08A
:1034000086EE0E942F12852D0E94DC12AB2819F047
:1034100086EE0E94A210672819F081EE0E94A21089
:10342000CD2809F47ACF8CE26ECF81E00E94A40D02
:103430000E94710D16CF81E00E947C0DF9CF2223EE
:1034400009F40EC482E0F2CF85EFE8168CE5F806A9
:1034500009F469C008F463C0E6EFEE16ECE5FE0679
:1034600009F465C0222309F40EC410925006F3E05B
:10347000EF16FDE5FF0608F061C02AEFE2162CE525
:10348000F20630F4C70182509C45449708F062C0B0
:103490000E944A1490931B0680931A0691E1E91644
:1034A0009CE5F90609F441C108F0B3C0F9E0EF1654
:1034B000FCE5FF0609F423C108F078C035E0E31607
:1034C0003CE5F30609F413C108F05AC093E0E9168D
:1034D0009CE5F90609F401C108F005C180911A06BE
:1034E0008160F2E0EF16FCE5FF0609F4F9C0609197
:1034F0001A06F0901B0684E090E00E946E2B6F2D60
:1035000082E290E00E946E2B0E94B30DAACE27E2C9
:1035100045EE65EE96C326E241EE60EE92C327E2E9
:1035200045EE64EE8EC326E241EE62EE8AC327E2E8
:1035300045EE66EE86C328E241E0EBCF31E6E316C6
:103540003DE5F30609F4A4CF85EAE8168DE5F80613
:1035500009F49ECF26E1E2162CE5F20609F0A1C39C
:10356000809126028A7A91E009F490E09093A40178
:10357000811105C189E20E94AD0B0E940C0D71CE34
:1035800080911A06806227E0E2162CE5F20609F423
:10359000A7C080911A06806138E0E3163CE5F30687
:1035A00008F49EC080911A0680649AC08DE0E816E7
:1035B0008CE5F80609F4ADC0B0F480911A068E7F50
:1035C000EBE0EE16ECE5FE0609F48AC080911A06DF
:1035D0008C60FCE0EF16FCE5FF0608F481C08091EA
:1035E0001A068D7F7DC080911A068F7E2FE0E2162D
:1035F0002CE5F20609F474C080911A06877F30E149
:10360000E3163CE5F30608F46BC080911A068F7D43
:1036100067C08DEFE8168CE5F80609F482C078F5EE
:10362000E5E1EE16ECE5FE0609F489C0A0F4809110
:103630001A06837F23E1E2162CE5F20609F450C056
:1036400008F477C00E94B30D90911A06892F97FB5A
:1036500087F9805845C08BEFE8168CE5F80609F429
:103660004AC008F05AC080911B068160EAEFEE164E
:10367000ECE5FE0609F03BCF80931B0638CFF1E066
:10368000EF16FDE5FF0609F466C098F480911B066D
:103690008C7F3FEFE3163CE5F30671F3B0F18091C8
:1036A0001B06982F909591708E7F892B90FB81F946
:1036B000E3CF91E6E9169DE5F90609F452C0E5EA83
:1036C000EE16EDE5FE0609F453C0F2E0EF16FDE557
:1036D000FF0609F00CCF60E03FC080911A068260BF
:1036E00080931A0604CF80911A068460F9CF8091E6
:1036F0001A068860F5CF80911B068260BDCF0E94BC
:10370000B30D80911A068068EBCF80911B06836011
:10371000B3CF80911A068B7FE3CF80911B068E7FFB
:10372000ABCF80911B068D7FA7CF80911A068F7B30
:10373000D7CF0E94B30D80911A068F77D1CF809199
:103740001A0682FB992790F921E0922790FB82F9D3
:1037500090FB83F9C5CF61E08EE090E00E946E2B74
:10376000C6CE90911A06892F8F7E94FF8061B8CFC4
:1037700090911A06892F8E7F90FF8160B1CF85E3EB
:10378000FACE85E38BC281608093510661E0869515
:103790000E94291866CD44E658E16DE678E10E9462
:1037A000F2085FCD4DE658E164E678E1F8CF4BE9E9
:1037B00055E164EA75E1F3CF4BE655E167E775E162
:1037C000EECF61E081E0E4CF0E94B30DEFEFF4E3D0
:1037D0002CE0E150F0402040E1F700C000000E94E2
:1037E000D61181E084C280E082C2C7010E94EB0B47
:1037F000D82E8EC22F2D2F70C22E8F2D807F19F0C4
:10380000C29490EFC922DD20B9F0CC2069F080E2AB
:103810008E0D883010F0811009C080912602C82AD0
:10382000C09226020E940C0D8E2D4DC08091250263
:10383000C82AC0922502F6CF8E2D0E94A210CC205D
:1038400009F443C080E28E0D883010F0811004C06E
:103850008C2D0E947B0B06C0C09480912502C8224B
:10386000C09225020E940C0D30C03F2D3F70C32E28
:103870008F2D807F803219F0C29480EFC82288207B
:1038800089F081E0881609F47FC0DD2009F489C041
:10389000BB2009F47FC0F801858180FFC5CF8F7000
:1038A000858378C020911B0622FF4BC0DD2009F4E0
:1038B00042C0CC2039F080912602C82AC09226024C
:1038C0000E940C0D80E00E942F12292D2850330BEE
:1038D0002430310510F40E94E608AA2009F438CCFF
:1038E0008091040280FD34CCF80112828595859583
:1038F00085950E94A40DC8010E948618809104023B
:103900008595859585950F900F900F900F900F904E
:10391000DF91CF911F910F91FF90EF90DF90CF90AB
:10392000BF90AF909F908F907F906F905F904F90DF
:103930003F900C947C0D80E00E94A210CC2029F2D4
:1039400087CFDD20A1F0909127028C2D892BB1101B
:1039500003C00E949810B9CFE1E0BE12FACF22FD59
:10396000B4CF981709F4B1CF80932702AECFB1102E
:1039700006C00E94750B8C2D0E949110A6CFF1E01D
:10398000BF1609F4A2CFF5CFDD2031F025E02B15CD
:1039900008F49BCF8C2DDDCF34E03B1508F495CF98
:1039A000EACFBB2041F3F9E38F1209C02FEF37EEC6
:1039B00083E0215030408040E1F700C000008E2DB0
:1039C0000E94A21082CF8F2D86958695837061F01C
:1039D000813009F07ACFC7019370D11002C090E016
:1039E00080E00E94BA0871CFC7019370D11002C065
:1039F00090E080E00E94D00868CF8F2D837091F511
:103A0000D11063CF4E2D429546954770440F440F19
:103A10008E2D8F70042E01C0880F0A94EAF72E2D88
:103A20002071E4FE07C02FE030E001C0220F4A956C
:103A3000EAF720953F2D369536953370323069F090
:103A400050F440912802313029F0822B84230E94C7
:103A5000AF0D3BCF842B822BFACF282B80912802ED
:103A60008227F5CF8695DD2011F08F2D8170882378
:103A700009F42BCF4E2D429546954770440F440FC5
:103A80008E2D8F70042E01C0880F0A94EAF72E2D18
:103A90002071E4FE07C02FE030E001C0220F4A95FC
:103AA000EAF720953F2D369536953370323069F020
:103AB00050F440915606313029F0822B84230E9425
:103AC0006D0D03CF842B822BFACF282B80915606C5
:103AD0008227F5CF9F2D9F70F92EDD2029F0892FA9
:103AE0000E94A40D8E2D35CF8E2D0E9491108F2D0A
:103AF0000E947C0DEACE8E2DE2EF8E16B1F1E81514
:103B000070F0F0EF8F16D1F021EF821691F0DD20EA
:103B100009F45EC0B11088CE8F2D8F712AC033EFAB
:103B2000831651F194EF8912F2CF80911B0682FF28
:103B30002FC08F2D8F71DD20D9F21BC0DD2081F0C9
:103B4000E4E0EB1508F4C1CE2F2D2F7181E090E059
:103B500001C0880F2A95EAF7909156068927AFCFC2
:103B6000F5E0FB1508F4B1CEEFCF8F2D8F71D1109A
:103B7000BFCF0E94A40DA9CE80E0DD2009F49FCF25
:103B80009F2D9F7181E001C0880F9A95EAF797CF2A
:103B9000DD2099F02F2D2F71F22E822F0E94A40D7F
:103BA00080911B0682FD07C038E0F39EC0011124FE
:103BB0008360809304028F2DDCCF81E00E94880D0A
:103BC00081E08B1508F081CE82E00E94880D7DCEC9
:103BD000BB2059F0893309F0F2CE9FEFE7EEF3E016
:103BE0009150E040F040E1F7E8CE8F2D8F7180CF0B
:103BF000F0E1EF16FFE5FF0609F417CC31E1E3161B
:103C00003FE5F30609F41BCC83EFE8168CE5F806D4
:103C100009F481CC08F018CCE8EDEE16ECE5FE06D0
:103C200009F475CCF9EDEF16FCE5FF0609F483CC39
:103C300037EDE3163CE5F30609F014CC26E241EE3D
:103C400061EEC8010E94AF170CCB80E1E8168FE54A
:103C5000F80609F4F0CB91E1E9169FE5F906A1F623
:103C600082E0EACB85E0DE01119601900D928A9503
:103C7000E1F7F801228189819A81211180CA0E948D
:103C8000EB0BF82E84CAF6E1EF16FCE5FF0609F00F
:103C900078C08091A401811174CD89E20E94820BC9
:103CA0006CCC2AE5E2162DE5F20609F49ACD68F40B
:103CB000E1148CE5F80609F487CD9EEDE9169CE544
:103CC000F906B9F40E94DE15CCCAEBE5EE16EDE577
:103CD000FE0609F488CDFCE5EF16FDE5FF0649F484
:103CE00080911B0682FB882780F991E089270E943A
:103CF0008613F8018281E080F180882309F475CD74
:103D0000C7010E94D613D82E682FC7010E94130C3A
:103D1000B7018D2D0E94C9130E94F8097C01882EDD
:103D2000F801D280B580B2943FE0B32280910402C2
:103D30008770C1F0AD2CDD20B1F08F2D807F8034F5
:103D400021F080E28E0D883068F080911B0682FDA4
:103D500009C082E00E94880D809104028770AA2425
:103D6000A3948111A12C9F2C92942FE09222FBE02E
:103D7000F91508F4AACDE92DF0E0EF5EF34D0C94AF
:103D8000CE2A80912602827229ECE2162CE5F206F8
:103D900009F412CD08F04DC095ECE9169CE5F90642
:103DA00009F405CD68F5F3ECEF16FCE5FF0609F420
:103DB000F2CC08F0F7CC32ECE3163CE5F30609F060
:103DC00098CF8091510680FFDECC8E7F8093510684
:103DD000609151067091520680915306909154065D
:103DE0000E9407151092E0023FEF80E792E0315009
:103DF00080409040E1F700C000000E94FA1131CAF3
:103E000043E855E16FE875E197ECE9169CE5F906A2
:103E100009F4C5CC44EA55E16BE975E1E8ECEE162E
:103E2000ECE5FE0608F4BBCC4FE855E163E875E12C
:103E3000B6CCFDECEF16FCE5FF0609F4C2CCC8F4E5
:103E40004DEA55E16EEB75E13BECE3163CE5F3061C
:103E500009F4A5CC47E755E16BE675E19CECE91662
:103E60009CE5F90608F49BCC4EEB55E16DEA75E153
:103E700096CCE6EDEE16ECE5FE0608F4F2C9FDE59B
:103E8000EF16FF0609F035CF0E947718EAC91F9395
:103E9000CF93DF938091D101807FA9F48091CE01EF
:103EA000882389F080910302D091D2016091CC01E6
:103EB0007091CD01A091CF01B091D001C62FC72341
:103EC00016E0D81304C0DF91CF911F91089590E0C0
:103ED000109711F0CF3F19F401968770F2CF189F19
:103EE0009001199F300D1124F901ED52FE4F4181CF
:103EF0004713F2CF40814613EFCF42814111ECCFFF
:103F0000438154814A1B5B0B483C510528F7809143
:103F1000D1018F7080618093D101F901E852FE4F89
:103F200080818F70806180838CEC91E00E94861884
:103F3000DF91CF911F910C94E10BAF92BF92CF9282
:103F4000DF92EF92FF920F931F93CF93DF93CDB742
:103F5000DEB761970FB6F894DEBF0FBECDBF8C0100
:103F600085E0F801DE011D9601900D928A95E1F73A
:103F7000F801E2808CECA82E81E0B82E6091CF0190
:103F80007091D0016115710509F432C19091CC0195
:103F90004091CD01892F84238F3F09F429C12081CD
:103FA0003181C380D480F090CE01F601E61BF70B7F
:103FB000FF2009F4E8C08091D101582F507FE83CE0
:103FC000F10508F0ABC0511177C0FE2C431321C09E
:103FD00092131FC0E1101DC08F7080618093D101CA
:103FE000C5010E9486188091D101F80185838F2D2B
:103FF00061960FB6F894DEBF0FBECDBFDF91CF91B3
:104000001F910F91FF90EF90DF90CF90BF90AF90F6
:104010000895CD2829F0822F83238F3F09F003C113
:1040200080E0F82FF170DF2E80FF3CC0809103020A
:104030004091D20156E0841315C02D873E878D85AF
:104040009E850E940514292F22952F702230F0F0B2
:10405000243018F59F70F1F0F8019581907FD1F42C
:10406000D12C1EC090E0589FF001599FF00D1124F3
:10407000ED52FE4F6181361306C06081261303C0E6
:104080006281E6120FC001968770D5CF9F7011F044
:10409000882331F3805E883018F3C8010E948618A7
:1040A000FD2CA5CFEE2009F4A2CF8091D101816033
:1040B0008093D101F12C9BCF431306C0921304C00F
:1040C000F801EE2009F479C0C8010E941114882378
:1040D00009F1EE20F9F08091D101803270F0209149
:1040E000CC013091CD0138872F831986DB86CA86B3
:1040F0008C87CE0107960E94861886E0F801ACEC0A
:10410000B1E001900D928A95E1F70E94471FFF24CC
:10411000F3946DCFC8010E948618F9CF51110AC0DF
:104120008CEC91E00E94861886E0F50111928A9548
:10413000E9F7C0CF43130FC092130DC0E1100BC0BD
:10414000F8018583C8010E94861886E0F501119266
:104150008A95E9F74CCFC8010E9411148823D1F247
:10416000EE20C1F28091D101803238F22091CC0151
:104170003091CD013A8329831B82DD82CC828E83EC
:10418000CE010196B8CFE83CF105F8F6FE2CEE2002
:1041900009F243131FC092131DC08091D10180FD0D
:1041A00010C0982F907F69F0F8018583903F31F01F
:1041B000982F907F905F8F70892B8583C8010E9414
:1041C000861886E0F801ACECB1E001900D928A957A
:1041D000E1F70DCFC8010E94111481118ECF80919B
:1041E000D10181608093D101C8010E948618FFCE61
:1041F000EE2009F48FCFC8010E941114F82E8823F5
:1042000009F488CF86E0F801ACECB1E001900D92A2
:104210008A95E1F78091CC019091CD010E9405141F
:104220000E94471FE4CE81E08E25FBCE1F93CF93E3
:10423000DF93CDB7DEB767970FB6F894DEBF0FBE3A
:10424000CDBF4B8B5C8B6D8B7E8B8F8B61111092F6
:1042500025021A8A198A85E0FE017396DE011D96F1
:1042600001900D928A95E1F786E0FE013D96DE0110
:10427000179601900D928A95E1F7CE0107960E945C
:104280009D1F882389F016E0809103029091D2014E
:10429000891349C067960FB6F894DEBF0FBECDBF35
:1042A000DF91CF911F91089586E0FE013796DE01E0
:1042B000119601900D928A95E1F78A859B85892B4D
:1042C00011F38F81988589238F3FE9F22091D201E4
:1042D00030E0C90101968770992740910302481781
:1042E000190671F40E94B30D1092D20110920302CC
:1042F00086E0ECECF1E0DF011D928A95E9F7C3CF8F
:1043000096E0929FD001939FB00D1124AD52BE4F05
:10431000FE01319601900D929A95E1F78093D201BA
:104320000E94E10BB0CF819FC00111248D529E4F9E
:104330000E949D1F882309F4ADCF8091030290E075
:10434000019687709927809303029ECF4F925F92C8
:104350006F927F928F929F92AF92BF92CF92DF9295
:10436000EF92FF920F931F93CF93DF93CDB7DEB7FA
:1043700068970FB6F894DEBF0FBECDBF8E010F5FFA
:104380001F4F88E1F80111928A95E9F79BE4E92E25
:1043900091E0F92E6801AA24A394B12C32E6832E71
:1043A00031E0932EF70181917F018F3F09F44FC0D7
:1043B000F894E82FE295EF70F0E021A18F70A5014D
:1043C00002C0440F551F8A95E2F7CA01922F982B1D
:1043D00091A392A18095892382A3789400C0E1E5FE
:1043E000F1E041E050E060E070E0412C512C3201FE
:1043F00021912F3F09F46EC0A22FA295AF70B0E0BB
:1044000090968C9190E02F7002C0959587952A9593
:10441000E2F780FD5FC0DB01CA01482A592A6A2AF7
:104420007B2A440F551F661F771F8E169F0601F7C4
:10443000F701319780818F3F11F00E949E0950EA69
:104440005A95F1F7F6014082518262827382F4E05C
:10445000CF0ED11C41E5E41641E0F40609F0A2CFED
:1044600048E150E0B8018CE292E00E944D2BFF241D
:10447000F394009709F4F12C892B81F188E1F8017C
:10448000ACE2B2E001900D928A95E1F781E0809371
:104490002B020E94A31790932A02809329028091F5
:1044A000290290912A020E9494170597D8F0ECE215
:1044B000F2E0A1ECB2E041915191619171914D9383
:1044C0005D936D937D9352E0E434F507A1F710926C
:1044D0002B0208C080E090E0DC019FCF80912B028E
:1044E0008111DDCF8F2D68960FB6F894DEBF0FBE19
:1044F000CDBFDF91CF911F910F91FF90EF90DF9093
:10450000CF90BF90AF909F908F907F906F905F9073
:104510004F9008951F921FB61F9211248F939F935F
:10452000AF93BF9380911506811113C08091160639
:1045300090911706A0911806B09119064196A11DF9
:10454000B11D8093160690931706A0931806B0939A
:104550001906BF91AF919F918F911F901FBE1F9021
:104560001895CDB7DEB7AF970FB6F894DEBF0FBE84
:10457000CDBF84B7877F84BF0FB6F894A89580918C
:104580006000886180936000109260000FBE80E838
:1045900090E00FB6F89480936100909361000FBE95
:1045A00085B7806885BF85B7806885BF8CE999E04D
:1045B00090938301809382010E941E070E94E90765
:1045C0008091E20084608093E200789480914406B8
:1045D0008823A1F01091E9001F709091EC00892FC1
:1045E000817090FD80E8182B1092E9008091E8001E
:1045F00083FD0E94C80D1F701093E90082E084BD06
:1046000093E095BD9AEF97BD80936E000E943114A0
:10461000811102C00E9477130BE411E041E5E42E02
:1046200041E0F42ED8018D918D018F3F11F00E9451
:104630009E09E016F106B1F701E511E032E6E32E3E
:1046400031E0F32EF80181918F018F3F11F00E942C
:104650009E09E016F106B1F788E1E1ECF2E0DF0136
:10466000282F1D922A95E9F7ECE2F2E0DF011D9276
:104670008A95E9F70E944816811102C00E94DE1552
:1046800082E090E00E945A2B809347020E944A14D5
:1046900090931B0680931A060E94A621BFEFE6E7BF
:1046A000F1E0B150E040F040E1F700C000000E94AE
:1046B000A6218091C10280FF08C06FEF7FEF90E0DC
:1046C00080E00E948C2B0E94D61183E090E00E9433
:1046D0005A2B0E94AF0D1092BE0280E880935706BD
:1046E0000E9493296DE070E08EE392E00E94F11049
:1046F000892BE9F58091BE0263E070E081FD5BC229
:104700008BE392E00E94F110892B89F56DE070E057
:104710008BE292E00E94F110892B49F50E94AE08CD
:10472000605A75418F4F9F4F6093090670930A0638
:1047300080930B0690930C06EAE5F6E080E092E0A9
:10474000DF019C011D9221503040E1F7F093610898
:10475000E09360088FEF9FEF90935906809358067F
:1047600081E080930E0680930D061092BF02809127
:104770004402811133C00E944816811104C00E9476
:10478000DE150E94CF1588E090E00E94622B6093B6
:1047900051067093520680935306909354066E7F91
:1047A00071F40E94CF1588E090E00E94622B609324
:1047B00051067093520680935306909354060E94BC
:1047C000F7081092E0028091510680FF04C060E07B
:1047D00086950E94291881E08093440284E091E04C
:1047E000909312068093110680914406FF24F3945F
:1047F00000E112E1853009F43EC20E94A6218DA796
:1048000081110E94AE0881EC92E09CA78BA7E8E49E
:10481000F2E0DC0110E000E0902F4D915D916D9190
:104820007D91C190D190E190F190C416D506E60635
:10483000F70609F443C2C426D526E626F72680E00B
:10484000812C912C54018394260137014820592052
:104850006A207B2045284628472809F427C289A3D7
:104860009AA3482159216A217B2181E0452B462BBF
:10487000472B09F480E08BA30E94A3178160782F57
:104880009DA38CA349A15AA16BA18DA10E941621C1
:10489000000F111F000F111FF801E85BFD4F808111
:1048A0009181A281B38188259925AA25BB25808382
:1048B0009183A283B38380906B0290906C02092C49
:1048C000000CAA08BB088091100190E0EBE6F2E032
:1048D00021E030E03296821793070CF006C28091F7
:1048E000670290916802A0916902B0916A026FB765
:1048F000F894C0901606D0901706E0901806F09035
:1049000019066FBFC81AD90AEA0AFB0A10911001EA
:1049100099ECC916D104E104F10414F18091660206
:1049200090E0019669E170E00E94BA2A80936602E5
:10493000880F991FFC01E559FD4F11821082812FCC
:10494000183108F087E18F5F809310010E94AE0854
:1049500060936702709368028093690290936A0281
:10496000A2E08A169104A104B1040CF4CBC1A0E624
:10497000BAEEA50194010E94C12B4B015C01B8EC79
:104980001B9F90011124032E000C440B550B2C0D82
:104990003D1D4E1D5F1DA5E0B0E00E94C12B9B0197
:1049A000AC01C501B4010E94D42B69017A01E1EF89
:1049B000CE16D104E104F1042CF010EFC12ED12C5D
:1049C000E12CF12C8091620290916302A09164022B
:1049D000B09165022FB7F894809016069090170654
:1049E000A0901806B09019062FBF881A990AAA0A33
:1049F000BB0AF5E68F169104A104B10484F00E946D
:104A0000AE08609362027093630280936402909395
:104A1000650280919D0280936102C09260021091B4
:104A20006102A0916002A11BBB0BA50194010E9431
:104A3000CC2B24E630E040E050E00E94A22B120F85
:104A400010939D028091E002882309F443C0909165
:104A5000DF02809151068695891B8093DB0200ED71
:104A600017E0A9EAEA2EA8E0FA2E923071F463E08A
:104A70000E94AE2AE92FF0E0E55BFD4FE4910E2F96
:104A800010E0B8E5EB2EB4E1FB2E8091DC02882328
:104A900061F01092DC020E94A3179093DA028093D7
:104AA000D9021092DE021092DD020E94A317E0915B
:104AB000D902F091DA028E1B9F0B8F3F9F4750F473
:104AC0000E0F1F1F1093DA020093D90289ED92E0B6
:104AD000F701099580910E06882309F44CC18AE5F7
:104AE00096E090936108809360080E94E608182F72
:104AF00020919D0230E01C82EAE0F0E0C901BF0194
:104B00000E949A2A805D8B83CB01BF010E949A2A62
:104B1000805D8A8360E32436310530F0C90164E6A4
:104B200070E00E949A2A605D698386EB92E011FF33
:104B300002C08DEB92E00E94FE0C86EA92E010FF2C
:104B400002C08EEA92E00E94FE0C85E892E012FF1D
:104B500002C08DE892E00E94FE0C84EA92E00E947E
:104B6000FE0C8EE992E00E94FE0CFE013196DF0100
:104B70000D900020E9F79D012150310979018F0145
:104B80000E151F0508F4C2C085E992E00E94FE0CD4
:104B9000809156060E943F0C813009F426C188237B
:104BA00009F4BAC0823009F423C1833009F423C167
:104BB0008EE492E0B3C088E392E0A4CD80914406F5
:104BC000843009F442C01092E002809146028111C3
:104BD00016C0F092460280915106982F91709093E2
:104BE00045028E7F809351063FEF80E792E031507F
:104BF00080409040E1F700C000000E94FA110E943E
:104C0000211110921506A8E1B0E0E0E40FB6F89487
:104C1000A895A09360000FBEE093600083B7817FEA
:104C2000846083BF83B7816083BF7894889583B79E
:104C30008E7F83BF0FB6F894A8958091600088613D
:104C400080936000109260000FBE8091430688231D
:104C500091F00E94A621E1ECF2E081919191A19165
:104C6000B191892B8A2B8B2B09F03EC329ED32E0C1
:104C70002E173F0791F780914406853009F49ECFA7
:104C80000E94B30D0E94E6081092460280914502F0
:104C9000882349F08091510681608093510660E03D
:104CA00086950E9429180E941318A7CD8F5F880C43
:104CB000991CAA1CBB1C813109F0C6CD0F5F1F4F88
:104CC0000630110509F0A8CD8FEF8EA38FA318A68B
:104CD0000E94A3178160782F9AA789A74EA15FA190
:104CE00068A58AA50E941621E6CD40815181052E36
:104CF000000C660B770B840E951EA61EB71E2F5F49
:104D00003F4FE8CDC12CD12C76015CCED8018D91DE
:104D10008D010E94500C34CF8AE792E00E94FE0C75
:104D200080910E06882371F0209158063091590623
:104D30002115310539F08091BF0261E070E08823D0
:104D400009F45DC080910D068823A9F00E94AE0889
:104D50000091090610910A0620910B0630910C066D
:104D6000601B710B820B930B6F3F7F4F8F4F9F47E1
:104D700010F40E9421112DA521110E943C110E94C6
:104D8000E6089091C00289138093C0028091440686
:104D9000843009F029CD83E08093E9008091E80018
:104DA00082FF22CD8091E80090E085FF0CC00E9438
:104DB0003D0730E2E32EF12C8E010F5F1F4F882359
:104DC00009F4F2C091E08091E8008B778093E800CD
:104DD000992309F409CDE981E150E33108F04EC18E
:104DE000F0E0E35EF34D0C94CE2A8FE692E096CF8E
:104DF00084E692E093CF89E592E090CF8F5F082F11
:104E000010E07B01082E02C0EE0CFF1C0A94E2F7B2
:104E1000A9014E215F21452B89F39091BE0290FD9F
:104E200043C08295880F8076809313019801369550
:104E300027953695279520931601815E809314015E
:104E40001092170124E630E047E050E061E171E0A4
:104E500088E70E94422A892B09F074CFA801E5E077
:104E6000440F551FEA95E1F78091BE0280FD2AC0EC
:104E7000465A594F04E610E020E230E060E488E74B
:104E80000E94692A892B09F05DCF0E943C11E094B1
:104E9000F0948091580690915906E822F922F092F8
:104EA0005906E09258064ECF880F880F880F8093DE
:104EB000130110921601895F8093140183E080939F
:104EC0001701C0CFEEE9F2E080E2DF011D928A9582
:104ED000E9F7E6E6F1E0FFA7EEA702E611E06AE6F1
:104EE000862E61E0962E77E0D72E55245394AEA5FA
:104EF000BFA52D91BFA7AEA7F80121908F01240E69
:104F0000352E311CC101865A994F1C01E22FF0E069
:104F1000E256FD4F30E020E06D2C621AC52C022EC7
:104F200001C0CC0C0A94EAF7510190E0D5018D91B3
:104F30005D018C21662D691B6770762E062E000C94
:104F4000770BB82F01C0BB0F7A94EAF77B2E7195CF
:104F5000619571096770772701C086956A95EAF7B0
:104F6000782A8081782A70829F5F9830F9F62F5FC7
:104F70003F4F31962830310579F6EEA5FFA58E1604
:104F80009F0609F0B4CF04E610E020E230E04EE9DD
:104F900052E074CF8091F100D8018D938D01B1E082
:104FA000EB1AF10809F40ECF8091E80085FDF2CFED
:104FB0008091E8008B778093E8000E943D0788236A
:104FC00099F300CF1A8289E08B8311C08A818230E5
:104FD00009F4A0C1833091F1813009F04FC00E94E3
:104FE000AE080E94D42A6B837C838D839E8380913C
:104FF0004406843009F0F8CB1091E9001F709091BD
:10500000EC00892F817090FD80E8182B82E080935E
:10501000E9008091E80080FF0DC050E040E060E2D0
:1050200070E0CE0101960E946E078091E8008E77B5
:105030008093E8001F701093E900D6CBFE013196F3
:10504000ABA5BCA54D915D916D917D91BCA7ABA722
:105050006283538344833396A95DB24089F7C7CFF7
:105060008A81823059F46B817C818D819E810E947E
:10507000D42A86E290E00E946E2BB9CF8FEF89830D
:10508000B6CF4C816B818A810E94A3139827892710
:1050900098279E838D83ABCFED80FE80FE24EF2486
:1050A000FE248A810B8132E2039F800111249CEC53
:1050B000899F000D111D11248C8190E0880F991F8C
:1050C000080F191F6F2DC80187960E946E2B6E2D39
:1050D000C8018896D0CF0E94091389CF8A81813870
:1050E000C1F060F4803809F082CF20E04B816091FC
:1050F0005306809152060E94191579CF823859F1D2
:10510000833809F074CF20E0409154066C818B8184
:10511000F2CF60E08B810E9429189B81809151061B
:10512000911111C08E7F809351061092E002AFEF73
:10513000B0E7E2E0A150B040E040E1F700C000007D
:105140000E94FA1154CF81608093510660E08695E9
:105150000E9429184CCF8B818093550648CF8A81B5
:10516000813899F030F4803809F041CF80915406AD
:105170002BCF823891F0833809F039CF80915206D5
:105180008B83809153068C8332CF8091510680FFB0
:1051900002C0869519CF80E017CF8091550614CFB5
:1051A0006091510670915206809153069091540679
:1051B0000E9407151CCF80E18A8319CF1A8289EAE1
:1051C00003CFCA80DB80DC24CD24DC248E010F5F7A
:1051D0001F4FEC80E00EF12EF11CC601895A9C4F46
:1051E0000E151F0509F403CFF9EACF16D10458F4C0
:1051F0000E945A2BD80114968C93FFEFCF1ADF0A26
:105200000F5F1F4FEACFF8011482F7CF0A811B818D
:105210001027012710279E012F5F3F4F6901EC8067
:10522000E00EF12EF11CC801895A9C4FE016F106E0
:1052300009F4DDCE093A110528F4D60114966C91D3
:105240000E946E2BBFEFCB1ADB0A0F5F1F4FEBCF15
:105250000E94F912CCCE84E0AFCFCA80DB80DC2480
:10526000CD24DC248E010F5F1F4FEC80E00EF12E69
:10527000F11CC6018796E016F10609F4B8CEE0E30A
:10528000CE16E3E0DE0658F40E945A2BD80114969D
:105290008C93FFEFCF1ADF0A0F5F1F4FEACFF801A1
:1052A0001482F7CF0A811B811027012710279E0146
:1052B0002F5F3F4F6901EC80E00EF12EF11CC80119
:1052C0008796E016F10609F492CE003333E0130717
:1052D00028F4D60114966C910E946E2BBFEFCB1A66
:1052E000DB0A0F5F1F4FEBCF09BD19BD09B400FEEC
:1052F000FDCF8091D8008F7D8093D8008091E00011
:1053000082608093E0008091E00081FDFCCF0E94EC
:10531000B30DB1CC86E290E00E945A2B1B821C8216
:105320001D828E8364CE1092B9008CE08093B80009
:1053300008959F92AF92BF92CF92DF92EF92FF9229
:105340000F931F93CF93DF93B82EEB010E94A31707
:105350006C01EE24E394F12CC431D10560F025E01A
:10536000E22EF12CCF3FDC0731F0CE0164E170E09A
:105370000E949A2A7B0184EAA82E94E8992E109222
:10538000BC00A092BC000E94A3178C018091BC00BD
:1053900087FF0DC08091B900887F883039F18091F6
:1053A000B900887F803111F10FEF1FEF09C00E9413
:1053B000A317801B910B8E159F0540F30EEF1FEF77
:1053C000CF3FDC07E1F2C6010E9494178C179D07BE
:1053D000B0F2C801DF91CF911F910F91FF90EF9034
:1053E000DF90CF90BF90AF909F900895B092BB0098
:1053F0009092BC000E94A3178C018091BC0087FF93
:105400000AC08091B900887F883111F0803461F63C
:1054100010E000E0DECF0E94A317801B910B8E15D9
:105420009F0558F3CBCF0F931F93CF93DF93EB01DF
:105430008093BB0084E88093BC000E94A3178C017A
:105440008091BC0087FF11C02091B900287F81E0C6
:1054500090E0283211F490E080E0919581959109D7
:10546000DF91CF911F910F910895CF3FDC0741F35A
:105470000E94A317801B910B8C179D0708F38EEFDA
:105480009FEFEECFCF92DF92EF92FF920F931F9399
:10549000CF93DF936B018A017901B9010E949929A9
:1054A000E6010C0D1D1DC017D10761F424E92093FE
:1054B000BC00DF91CF911F910F91FF90EF90DF9093
:1054C000CF90089597FDF2CFB70189910E94132ADA
:1054D000EACFCF92DF92EF92FF920F931F93CF9379
:1054E000DF93C62F6A017901B8010E94992997FDBF
:1054F0000CC0B8018C2F0E94132AE601EC0CFD1C95
:10550000CE15DF0511F097FF0CC024E92093BC00F5
:10551000DF91CF911F910F91FF90EF90DF90CF908F
:105520000895B80189910E94132AEACF84E98093F3
:10553000BC000895AA1BBB1B51E107C0AA1FBB1FDB
:10554000A617B70710F0A61BB70B881F991F5A950F
:10555000A9F780959095BC01CD010895991B79E03C
:1055600004C0991F961708F0961B881F7A95C9F7F3
:105570008095089597FB072E16F4009407D077FDC9
:1055800009D00E949A2A07FC05D03EF49095819597
:105590009F4F0895709561957F4F0895EE0FFF1FFF
:1055A0000590F491E02D09946927962769277827BB
:1055B0008727782708958F929F92AF92BF92CF92BC
:1055C000DF92EF92FF92CF93DF93EC0168817981B4
:1055D0008A819B81611571058105910521F464E241
:1055E00079ED8BE597E02DE133EF41E050E00E944B
:1055F000A22B49015A019B01AC01A7EAB1E40E9428
:10560000C12B6B017C01ACEEB4EFA50194010E94AB
:10561000CF2BDC01CB018C0D9D1DAE1DBF1DB7FF37
:1056200003C00197A109B04888839983AA83BB83EB
:105630009F77DF91CF91FF90EF90DF90CF90BF9059
:10564000AF909F908F9008950E94DB2A089580E08C
:1056500091E00E94DB2A0895B0E0A0E08093000171
:1056600090930101A0930201B09303010895FB01FF
:10567000DC0102C005900D9241505040D8F70895CA
:10568000FC014150504030F001900616D1F731979F
:10569000CF010895882799270895FB01DC0104C0F4
:1056A0008D910190801921F441505040C8F7881B1A
:1056B000990B0895F999FECF92BD81BDF89A99276B
:1056C00080B50895A6E1B0E044E050E00C94942B3E
:1056D000A8E1B0E042E050E00C94942B262FF99919
:1056E000FECF92BD81BDF89A019700B4021639F041
:1056F0001FBA20BD0FB6F894FA9AF99A0FBE089512
:105700000396272F0E946F2B0E946E2B252F0E943D
:105710006F2B242F0C946F2B0196272F0E946F2B39
:105720000C946E2BDC01CB01FC01F999FECF06C075
:10573000F2BDE1BDF89A319600B40D92415050404F
:10574000B8F70895052E97FB1EF400940E94B92B1C
:1057500057FD07D00E94D42B07FC03D04EF40C94C5
:10576000B92B50954095309521953F4F4F4F5F4F46
:10577000089590958095709561957F4F8F4F9F4FBD
:1057800008950E94F62BA59F900DB49F900DA49FA5
:10579000800D911D11240895B7FF0C94C12B0E9418
:1057A000C12B821B930B0895A1E21A2EAA1BBB1BCF
:1057B000FD010DC0AA1FBB1FEE1FFF1FA217B307DD
:1057C000E407F50720F0A21BB30BE40BF50B661FF3
:1057D000771F881F991F1A9469F7609570958095B7
:1057E00090959B01AC01BD01CF010895A29FB0012E
:1057F000B39FC001A39F700D811D1124911DB29F05
:10580000700D811D1124911D0895F894FFCFAE0EE7
:10581000D60E7910D60E7910090F2A0F791028109C
:105820003510FA1BFA1B351C351CE31C651C651C66
:10583000651CFD1C6A1D7B1D7B1DE227E6273028A9
:1058400041284C286B286E28AF28D0283E283E28B7
:10585000DB28DE28E128062928292B292D29522991
:1058600001000000AB089611AA0892118E11A80839
:10587000010021007F2200030101818283E200E90F
:1058800000EA00B500B600B700CD008301CC008A65
:1058900001920194012102230224022502260227FB
:1058A000022A02B300B4006F007000303132333787
:1058B00095F0F1F4F5F6F76636353497969467C6A9
:1058C000929300081018181008000001020202024A
:1058D000020240226D3B011901AC000A0823084373
:0258E0000800BE
:00000001FF
